{"contracts/DAO.sol":{"DAO":{"abi":[{"anonymous":false,"inputs":[{"indexed":true,"internalType":"address","name":"initiator","type":"address"},{"indexed":false,"internalType":"bytes32","name":"role","type":"bytes32"},{"indexed":false,"internalType":"string","name":"message","type":"string"},{"indexed":true,"internalType":"address","name":"beneficiary","type":"address"},{"indexed":false,"internalType":"uint256","name":"amount","type":"uint256"}],"name":"Action","type":"event"},{"anonymous":false,"inputs":[{"indexed":true,"internalType":"bytes32","name":"role","type":"bytes32"},{"indexed":true,"internalType":"bytes32","name":"previousAdminRole","type":"bytes32"},{"indexed":true,"internalType":"bytes32","name":"newAdminRole","type":"bytes32"}],"name":"RoleAdminChanged","type":"event"},{"anonymous":false,"inputs":[{"indexed":true,"internalType":"bytes32","name":"role","type":"bytes32"},{"indexed":true,"internalType":"address","name":"account","type":"address"},{"indexed":true,"internalType":"address","name":"sender","type":"address"}],"name":"RoleGranted","type":"event"},{"anonymous":false,"inputs":[{"indexed":true,"internalType":"bytes32","name":"role","type":"bytes32"},{"indexed":true,"internalType":"address","name":"account","type":"address"},{"indexed":true,"internalType":"address","name":"sender","type":"address"}],"name":"RoleRevoked","type":"event"},{"inputs":[],"name":"DEFAULT_ADMIN_ROLE","outputs":[{"internalType":"bytes32","name":"","type":"bytes32"}],"stateMutability":"view","type":"function"},{"inputs":[{"internalType":"uint256","name":"proposalId","type":"uint256"},{"internalType":"bool","name":"chosen","type":"bool"}],"name":"Vote","outputs":[{"components":[{"internalType":"address","name":"voter","type":"address"},{"internalType":"uint256","name":"timestamp","type":"uint256"},{"internalType":"bool","name":"chosen","type":"bool"}],"internalType":"struct DAO.VotedStruct","name":"","type":"tuple"}],"stateMutability":"nonpayable","type":"function"},{"inputs":[],"name":"contribute","outputs":[],"stateMutability":"payable","type":"function"},{"inputs":[{"internalType":"string","name":"title","type":"string"},{"internalType":"string","name":"description","type":"string"},{"internalType":"address","name":"beneficiary","type":"address"},{"internalType":"uint256","name":"amount","type":"uint256"}],"name":"createProposal","outputs":[],"stateMutability":"nonpayable","type":"function"},{"inputs":[],"name":"daoBalance","outputs":[{"internalType":"uint256","name":"","type":"uint256"}],"stateMutability":"view","type":"function"},{"inputs":[],"name":"getBalance","outputs":[{"internalType":"uint256","name":"","type":"uint256"}],"stateMutability":"view","type":"function"},{"inputs":[{"internalType":"uint256","name":"proposalId","type":"uint256"}],"name":"getProposal","outputs":[{"components":[{"internalType":"uint256","name":"id","type":"uint256"},{"internalType":"uint256","name":"amount","type":"uint256"},{"internalType":"uint256","name":"duration","type":"uint256"},{"internalType":"uint256","name":"upvotes","type":"uint256"},{"internalType":"uint256","name":"downvotes","type":"uint256"},{"internalType":"string","name":"title","type":"string"},{"internalType":"string","name":"description","type":"string"},{"internalType":"bool","name":"passed","type":"bool"},{"internalType":"bool","name":"paid","type":"bool"},{"internalType":"address payable","name":"beneficiary","type":"address"},{"internalType":"address","name":"originator","type":"address"},{"internalType":"address","name":"executor","type":"address"}],"internalType":"struct DAO.ProposalStruct","name":"","type":"tuple"}],"stateMutability":"view","type":"function"},{"inputs":[],"name":"getProposals","outputs":[{"components":[{"internalType":"uint256","name":"id","type":"uint256"},{"internalType":"uint256","name":"amount","type":"uint256"},{"internalType":"uint256","name":"duration","type":"uint256"},{"internalType":"uint256","name":"upvotes","type":"uint256"},{"internalType":"uint256","name":"downvotes","type":"uint256"},{"internalType":"string","name":"title","type":"string"},{"internalType":"string","name":"description","type":"string"},{"internalType":"bool","name":"passed","type":"bool"},{"internalType":"bool","name":"paid","type":"bool"},{"internalType":"address payable","name":"beneficiary","type":"address"},{"internalType":"address","name":"originator","type":"address"},{"internalType":"address","name":"executor","type":"address"}],"internalType":"struct DAO.ProposalStruct[]","name":"props","type":"tuple[]"}],"stateMutability":"view","type":"function"},{"inputs":[],"name":"getProposerBalance","outputs":[{"internalType":"uint256","name":"","type":"uint256"}],"stateMutability":"view","type":"function"},{"inputs":[],"name":"getProposerVotes","outputs":[{"internalType":"uint256[]","name":"","type":"uint256[]"}],"stateMutability":"view","type":"function"},{"inputs":[{"internalType":"bytes32","name":"role","type":"bytes32"}],"name":"getRoleAdmin","outputs":[{"internalType":"bytes32","name":"","type":"bytes32"}],"stateMutability":"view","type":"function"},{"inputs":[],"name":"getStakeholderBalance","outputs":[{"internalType":"uint256","name":"","type":"uint256"}],"stateMutability":"view","type":"function"},{"inputs":[{"internalType":"uint256","name":"proposalId","type":"uint256"}],"name":"getVotesOf","outputs":[{"components":[{"internalType":"address","name":"voter","type":"address"},{"internalType":"uint256","name":"timestamp","type":"uint256"},{"internalType":"bool","name":"chosen","type":"bool"}],"internalType":"struct DAO.VotedStruct[]","name":"","type":"tuple[]"}],"stateMutability":"view","type":"function"},{"inputs":[{"internalType":"bytes32","name":"role","type":"bytes32"},{"internalType":"address","name":"account","type":"address"}],"name":"grantRole","outputs":[],"stateMutability":"nonpayable","type":"function"},{"inputs":[{"internalType":"bytes32","name":"role","type":"bytes32"},{"internalType":"address","name":"account","type":"address"}],"name":"hasRole","outputs":[{"internalType":"bool","name":"","type":"bool"}],"stateMutability":"view","type":"function"},{"inputs":[],"name":"isProposer","outputs":[{"internalType":"bool","name":"","type":"bool"}],"stateMutability":"view","type":"function"},{"inputs":[],"name":"isStakeholder","outputs":[{"internalType":"bool","name":"","type":"bool"}],"stateMutability":"view","type":"function"},{"inputs":[{"internalType":"uint256","name":"proposalId","type":"uint256"}],"name":"payBeneficiary","outputs":[{"internalType":"uint256","name":"","type":"uint256"}],"stateMutability":"nonpayable","type":"function"},{"inputs":[{"internalType":"bytes32","name":"role","type":"bytes32"},{"internalType":"address","name":"account","type":"address"}],"name":"renounceRole","outputs":[],"stateMutability":"nonpayable","type":"function"},{"inputs":[{"internalType":"bytes32","name":"role","type":"bytes32"},{"internalType":"address","name":"account","type":"address"}],"name":"revokeRole","outputs":[],"stateMutability":"nonpayable","type":"function"},{"inputs":[{"internalType":"bytes4","name":"interfaceId","type":"bytes4"}],"name":"supportsInterface","outputs":[{"internalType":"bool","name":"","type":"bool"}],"stateMutability":"view","type":"function"}],"evm":{"bytecode":{"linkReferences":{},"object":"6101006040527ff4bb84e1768dd286358a736d195a0b228621173f655a73b89bf8b191ed0ba07d6080908152507fc4338366b9cfc07901c46677a3a32746bd05d5c114e4d0d293c468cff87acde060a090815250670de0b6b3a764000060c09081525061025863ffffffff1660e09063ffffffff1681525034801561008357600080fd5b50600160008190555060805160a05160c05160e051613f0b61011260003960006110ca01526000611a550152600081816105c20152818161085301528181610f3d01528181611153015281816111b8015281816114450152818161156b015281816119db01528181611ac301528181611c860152611cfb015260008181610e710152611b440152613f0b6000f3fe60806040526004361061012a5760003560e01c80637cdc2eb7116100ab578063bd9728161161006f578063bd9728161461041a578063c02146ac14610445578063c7f758a814610470578063d547741f146104ad578063d7bb99ba146104d6578063f86f19fd146104e05761012a565b80637cdc2eb7146103215780638bfa1f401461034a57806391d1485414610387578063a217fddf146103c4578063a2b5098b146103ef5761012a565b80632f2ff15d116100f25780632f2ff15d1461023c57806336568abe1461026557806362564c481461028e57806369a136dc146102b95780636a80d84d146102f65761012a565b806301ffc9a71461012f578063119c37c81461016c57806312065fe0146101a9578063248a9ca3146101d45780632a14652414610211575b600080fd5b34801561013b57600080fd5b50610156600480360381019061015191906126ca565b61050b565b6040516101639190612712565b60405180910390f35b34801561017857600080fd5b50610193600480360381019061018e9190612763565b610585565b6040516101a0919061279f565b60405180910390f35b3480156101b557600080fd5b506101be6108a1565b6040516101cb919061279f565b60405180910390f35b3480156101e057600080fd5b506101fb60048036038101906101f691906127f0565b6108e8565b604051610208919061282c565b60405180910390f35b34801561021d57600080fd5b50610226610908565b6040516102339190612712565b60405180910390f35b34801561024857600080fd5b50610263600480360381019061025e91906128a5565b610951565b005b34801561027157600080fd5b5061028c600480360381019061028791906128a5565b610972565b005b34801561029a57600080fd5b506102a36109f5565b6040516102b09190612b90565b60405180910390f35b3480156102c557600080fd5b506102e060048036038101906102db9190612763565b610d64565b6040516102ed9190612ca3565b60405180910390f35b34801561030257600080fd5b5061030b610e51565b604051610318919061279f565b60405180910390f35b34801561032d57600080fd5b5061034860048036038101906103439190612dfa565b610f1f565b005b34801561035657600080fd5b50610371600480360381019061036c9190612ec5565b611192565b60405161037e9190612f47565b60405180910390f35b34801561039357600080fd5b506103ae60048036038101906103a991906128a5565b6114bc565b6040516103bb9190612712565b60405180910390f35b3480156103d057600080fd5b506103d9611527565b6040516103e6919061282c565b60405180910390f35b3480156103fb57600080fd5b5061040461152e565b6040516104119190613011565b60405180910390f35b34801561042657600080fd5b5061042f611667565b60405161043c919061279f565b60405180910390f35b34801561045157600080fd5b5061045a61166d565b6040516104679190612712565b60405180910390f35b34801561047c57600080fd5b5061049760048036038101906104929190612763565b6116b6565b6040516104a4919061313e565b60405180910390f35b3480156104b957600080fd5b506104d460048036038101906104cf91906128a5565b611972565b005b6104de611993565b005b3480156104ec57600080fd5b506104f5611cbe565b604051610502919061279f565b60405180910390f35b60007f7965db0b000000000000000000000000000000000000000000000000000000007bffffffffffffffffffffffffffffffffffffffffffffffffffffffff1916827bffffffffffffffffffffffffffffffffffffffffffffffffffffffff1916148061057e575061057d82611da9565b5b9050919050565b60006040518060400160405280601c81526020017f556e617574686f72697a65643a2050726f706f73657273206f6e6c79000000008152506105e77f0000000000000000000000000000000000000000000000000000000000000000336114bc565b8190610629576040517f08c379a000000000000000000000000000000000000000000000000000000000815260040161062091906131aa565b60405180910390fd5b50610632611e13565b600060046000858152602001908152602001600020905080600101546003541015610692576040517f08c379a000000000000000000000000000000000000000000000000000000000815260040161068990613218565b60405180910390fd5b8060070160019054906101000a900460ff16156106e4576040517f08c379a00000000000000000000000000000000000000000000000000000000081526004016106db90613284565b60405180910390fd5b806004015481600301541161072e576040517f08c379a0000000000000000000000000000000000000000000000000000000008152600401610725906132f0565b60405180910390fd5b60018160070160016101000a81548160ff021916908315150217905550338160090160006101000a81548173ffffffffffffffffffffffffffffffffffffffff021916908373ffffffffffffffffffffffffffffffffffffffff1602179055508060010154600360008282546107a4919061333f565b925050819055506107dd8160070160029054906101000a900473ffffffffffffffffffffffffffffffffffffffff168260010154611e62565b508060070160029054906101000a900473ffffffffffffffffffffffffffffffffffffffff1673ffffffffffffffffffffffffffffffffffffffff163373ffffffffffffffffffffffffffffffffffffffff167fa596782d699d74613fcbf59d33e720baabd313d6be9c95e2268f305430305eb77f000000000000000000000000000000000000000000000000000000000000000084600101546040516108859291906133bf565b60405180910390a360035492505061089b611f1a565b50919050565b6000600760003373ffffffffffffffffffffffffffffffffffffffff1673ffffffffffffffffffffffffffffffffffffffff16815260200190815260200160002054905090565b600060016000838152602001908152602001600020600101549050919050565b600080600860003373ffffffffffffffffffffffffffffffffffffffff1673ffffffffffffffffffffffffffffffffffffffff1681526020019081526020016000205411905090565b61095a826108e8565b61096381611f24565b61096d8383611f38565b505050565b61097a612018565b73ffffffffffffffffffffffffffffffffffffffff168173ffffffffffffffffffffffffffffffffffffffff16146109e7576040517f08c379a00000000000000000000000000000000000000000000000000000000081526004016109de9061346d565b60405180910390fd5b6109f18282612020565b5050565b6060600260009054906101000a900463ffffffff1663ffffffff1667ffffffffffffffff811115610a2957610a28612ccf565b5b604051908082528060200260200182016040528015610a6257816020015b610a4f61257e565b815260200190600190039081610a475790505b50905060005b600260009054906101000a900463ffffffff1663ffffffff16811015610d605760046000828152602001908152602001600020604051806101800160405290816000820154815260200160018201548152602001600282015481526020016003820154815260200160048201548152602001600582018054610ae9906134bc565b80601f0160208091040260200160405190810160405280929190818152602001828054610b15906134bc565b8015610b625780601f10610b3757610100808354040283529160200191610b62565b820191906000526020600020905b815481529060010190602001808311610b4557829003601f168201915b50505050508152602001600682018054610b7b906134bc565b80601f0160208091040260200160405190810160405280929190818152602001828054610ba7906134bc565b8015610bf45780601f10610bc957610100808354040283529160200191610bf4565b820191906000526020600020905b815481529060010190602001808311610bd757829003601f168201915b505050505081526020016007820160009054906101000a900460ff161515151581526020016007820160019054906101000a900460ff161515151581526020016007820160029054906101000a900473ffffffffffffffffffffffffffffffffffffffff1673ffffffffffffffffffffffffffffffffffffffff1673ffffffffffffffffffffffffffffffffffffffff1681526020016008820160009054906101000a900473ffffffffffffffffffffffffffffffffffffffff1673ffffffffffffffffffffffffffffffffffffffff1673ffffffffffffffffffffffffffffffffffffffff1681526020016009820160009054906101000a900473ffffffffffffffffffffffffffffffffffffffff1673ffffffffffffffffffffffffffffffffffffffff1673ffffffffffffffffffffffffffffffffffffffff1681525050828281518110610d4857610d476134ed565b5b60200260200101819052508080600101915050610a68565b5090565b606060066000838152602001908152602001600020805480602002602001604051908101604052809291908181526020016000905b82821015610e4657838290600052602060002090600302016040518060600160405290816000820160009054906101000a900473ffffffffffffffffffffffffffffffffffffffff1673ffffffffffffffffffffffffffffffffffffffff1673ffffffffffffffffffffffffffffffffffffffff168152602001600182015481526020016002820160009054906101000a900460ff16151515158152505081526020019060010190610d99565b505050509050919050565b6000604051806060016040528060218152602001613e8860219139610e967f0000000000000000000000000000000000000000000000000000000000000000336114bc565b8190610ed8576040517f08c379a0000000000000000000000000000000000000000000000000000000008152600401610ecf91906131aa565b60405180910390fd5b50600760003373ffffffffffffffffffffffffffffffffffffffff1673ffffffffffffffffffffffffffffffffffffffff1681526020019081526020016000205491505090565b604051806060016040528060308152602001613e5860309139610f627f0000000000000000000000000000000000000000000000000000000000000000336114bc565b8190610fa4576040517f08c379a0000000000000000000000000000000000000000000000000000000008152600401610f9b91906131aa565b60405180910390fd5b5060006002600081819054906101000a900463ffffffff1680929190610fc99061352c565b91906101000a81548163ffffffff021916908363ffffffff16021790555090506000600460008363ffffffff16815260200190815260200160002090508163ffffffff168160000181905550338160080160006101000a81548173ffffffffffffffffffffffffffffffffffffffff021916908373ffffffffffffffffffffffffffffffffffffffff160217905550868160050190816110699190613704565b508581600601908161107b9190613704565b50848160070160026101000a81548173ffffffffffffffffffffffffffffffffffffffff021916908373ffffffffffffffffffffffffffffffffffffffff1602179055508381600101819055507f000000000000000000000000000000000000000000000000000000000000000063ffffffff16426110fa91906137d6565b81600201819055508473ffffffffffffffffffffffffffffffffffffffff163373ffffffffffffffffffffffffffffffffffffffff167fa596782d699d74613fcbf59d33e720baabd313d6be9c95e2268f305430305eb77f000000000000000000000000000000000000000000000000000000000000000087604051611181929190613856565b60405180910390a350505050505050565b61119a612625565b6040518060600160405280602d8152602001613ea9602d91396111dd7f0000000000000000000000000000000000000000000000000000000000000000336114bc565b819061121f576040517f08c379a000000000000000000000000000000000000000000000000000000000815260040161121691906131aa565b60405180910390fd5b50600060046000868152602001908152602001600020905061124081612102565b83156112655780600301600081548092919061125b90613892565b9190505550611280565b80600401600081548092919061127a90613892565b91905055505b600560003373ffffffffffffffffffffffffffffffffffffffff1673ffffffffffffffffffffffffffffffffffffffff16815260200190815260200160002081600001549080600181540180825580915050600190039060005260206000200160009091909190915055600660008260000154815260200190815260200160002060405180606001604052803373ffffffffffffffffffffffffffffffffffffffff168152602001428152602001861515815250908060018154018082558091505060019003906000526020600020906003020160009091909190915060008201518160000160006101000a81548173ffffffffffffffffffffffffffffffffffffffff021916908373ffffffffffffffffffffffffffffffffffffffff1602179055506020820151816001015560408201518160020160006101000a81548160ff02191690831515021790555050508060070160029054906101000a900473ffffffffffffffffffffffffffffffffffffffff1673ffffffffffffffffffffffffffffffffffffffff163373ffffffffffffffffffffffffffffffffffffffff167fa596782d699d74613fcbf59d33e720baabd313d6be9c95e2268f305430305eb77f00000000000000000000000000000000000000000000000000000000000000008460010154604051611477929190613926565b60405180910390a360405180606001604052803373ffffffffffffffffffffffffffffffffffffffff1681526020014281526020018515158152509250505092915050565b60006001600084815260200190815260200160002060000160008373ffffffffffffffffffffffffffffffffffffffff1673ffffffffffffffffffffffffffffffffffffffff16815260200190815260200160002060009054906101000a900460ff16905092915050565b6000801b81565b60606040518060400160405280601c81526020017f556e617574686f72697a65643a206e6f7420612070726f706f736572000000008152506115907f0000000000000000000000000000000000000000000000000000000000000000336114bc565b81906115d2576040517f08c379a00000000000000000000000000000000000000000000000000000000081526004016115c991906131aa565b60405180910390fd5b50600560003373ffffffffffffffffffffffffffffffffffffffff1673ffffffffffffffffffffffffffffffffffffffff16815260200190815260200160002080548060200260200160405190810160405280929190818152602001828054801561165c57602002820191906000526020600020905b815481526020019060010190808311611648575b505050505091505090565b60035481565b600080600760003373ffffffffffffffffffffffffffffffffffffffff1673ffffffffffffffffffffffffffffffffffffffff1681526020019081526020016000205411905090565b6116be61257e565b6004600083815260200190815260200160002060405180610180016040529081600082015481526020016001820154815260200160028201548152602001600382015481526020016004820154815260200160058201805461171f906134bc565b80601f016020809104026020016040519081016040528092919081815260200182805461174b906134bc565b80156117985780601f1061176d57610100808354040283529160200191611798565b820191906000526020600020905b81548152906001019060200180831161177b57829003601f168201915b505050505081526020016006820180546117b1906134bc565b80601f01602080910402602001604051908101604052809291908181526020018280546117dd906134bc565b801561182a5780601f106117ff5761010080835404028352916020019161182a565b820191906000526020600020905b81548152906001019060200180831161180d57829003601f168201915b505050505081526020016007820160009054906101000a900460ff161515151581526020016007820160019054906101000a900460ff161515151581526020016007820160029054906101000a900473ffffffffffffffffffffffffffffffffffffffff1673ffffffffffffffffffffffffffffffffffffffff1673ffffffffffffffffffffffffffffffffffffffff1681526020016008820160009054906101000a900473ffffffffffffffffffffffffffffffffffffffff1673ffffffffffffffffffffffffffffffffffffffff1673ffffffffffffffffffffffffffffffffffffffff1681526020016009820160009054906101000a900473ffffffffffffffffffffffffffffffffffffffff1673ffffffffffffffffffffffffffffffffffffffff1673ffffffffffffffffffffffffffffffffffffffff16815250509050919050565b61197b826108e8565b61198481611f24565b61198e8383612020565b505050565b600034116119d6576040517f08c379a00000000000000000000000000000000000000000000000000000000081526004016119cd906139d4565b60405180910390fd5b611a007f0000000000000000000000000000000000000000000000000000000000000000336114bc565b611b6f57600034600760003373ffffffffffffffffffffffffffffffffffffffff1673ffffffffffffffffffffffffffffffffffffffff16815260200190815260200160002054611a5191906137d6565b90507f00000000000000000000000000000000000000000000000000000000000000008110611ae95780600860003373ffffffffffffffffffffffffffffffffffffffff1673ffffffffffffffffffffffffffffffffffffffff16815260200190815260200160002081905550611ae87f000000000000000000000000000000000000000000000000000000000000000033611f38565b5b34600760003373ffffffffffffffffffffffffffffffffffffffff1673ffffffffffffffffffffffffffffffffffffffff1681526020019081526020016000206000828254611b3891906137d6565b92505081905550611b697f000000000000000000000000000000000000000000000000000000000000000033611f38565b50611c1c565b34600760003373ffffffffffffffffffffffffffffffffffffffff1673ffffffffffffffffffffffffffffffffffffffff1681526020019081526020016000206000828254611bbe91906137d6565b9250508190555034600860003373ffffffffffffffffffffffffffffffffffffffff1673ffffffffffffffffffffffffffffffffffffffff1681526020019081526020016000206000828254611c1491906137d6565b925050819055505b3460036000828254611c2e91906137d6565b925050819055503073ffffffffffffffffffffffffffffffffffffffff163373ffffffffffffffffffffffffffffffffffffffff167fa596782d699d74613fcbf59d33e720baabd313d6be9c95e2268f305430305eb77f000000000000000000000000000000000000000000000000000000000000000034604051611cb4929190613a40565b60405180910390a3565b60006040518060400160405280601c81526020017f556e617574686f72697a65643a206e6f7420612070726f706f73657200000000815250611d207f0000000000000000000000000000000000000000000000000000000000000000336114bc565b8190611d62576040517f08c379a0000000000000000000000000000000000000000000000000000000008152600401611d5991906131aa565b60405180910390fd5b50600860003373ffffffffffffffffffffffffffffffffffffffff1673ffffffffffffffffffffffffffffffffffffffff1681526020019081526020016000205491505090565b60007f01ffc9a7000000000000000000000000000000000000000000000000000000007bffffffffffffffffffffffffffffffffffffffffffffffffffffffff1916827bffffffffffffffffffffffffffffffffffffffffffffffffffffffff1916149050919050565b600260005403611e58576040517f08c379a0000000000000000000000000000000000000000000000000000000008152600401611e4f90613ac8565b60405180910390fd5b6002600081905550565b6000808373ffffffffffffffffffffffffffffffffffffffff1683604051611e8990613b19565b60006040518083038185875af1925050503d8060008114611ec6576040519150601f19603f3d011682016040523d82523d6000602084013e611ecb565b606091505b5050905080611f0f576040517f08c379a0000000000000000000000000000000000000000000000000000000008152600401611f0690613b7a565b60405180910390fd5b600191505092915050565b6001600081905550565b611f3581611f30612018565b612290565b50565b611f4282826114bc565b61201457600180600084815260200190815260200160002060000160008373ffffffffffffffffffffffffffffffffffffffff1673ffffffffffffffffffffffffffffffffffffffff16815260200190815260200160002060006101000a81548160ff021916908315150217905550611fb9612018565b73ffffffffffffffffffffffffffffffffffffffff168173ffffffffffffffffffffffffffffffffffffffff16837f2f8788117e7eff1d82e926ec794901d17c78024a50270940304540a733656f0d60405160405180910390a45b5050565b600033905090565b61202a82826114bc565b156120fe5760006001600084815260200190815260200160002060000160008373ffffffffffffffffffffffffffffffffffffffff1673ffffffffffffffffffffffffffffffffffffffff16815260200190815260200160002060006101000a81548160ff0219169083151502179055506120a3612018565b73ffffffffffffffffffffffffffffffffffffffff168173ffffffffffffffffffffffffffffffffffffffff16837ff6391f5c32d9c69d2a47ea670b442974b53935d1edc7fd64eb21e047a839171b60405160405180910390a45b5050565b8060070160009054906101000a900460ff1680612123575042816002015411155b156121805760018160070160006101000a81548160ff0219169083151502179055506040517f08c379a000000000000000000000000000000000000000000000000000000000815260040161217790613be6565b60405180910390fd5b6000600560003373ffffffffffffffffffffffffffffffffffffffff1673ffffffffffffffffffffffffffffffffffffffff16815260200190815260200160002080548060200260200160405190810160405280929190818152602001828054801561220b57602002820191906000526020600020905b8154815260200190600101908083116121f7575b5050505050905060005b815181101561228b57818181518110612231576122306134ed565b5b602002602001015183600001540361227e576040517f08c379a000000000000000000000000000000000000000000000000000000000815260040161227590613c52565b60405180910390fd5b8080600101915050612215565b505050565b61229a82826114bc565b612311576122a781612315565b6122b58360001c6020612342565b6040516020016122c6929190613d46565b6040516020818303038152906040526040517f08c379a000000000000000000000000000000000000000000000000000000000815260040161230891906131aa565b60405180910390fd5b5050565b606061233b8273ffffffffffffffffffffffffffffffffffffffff16601460ff16612342565b9050919050565b6060600060028360026123559190613d80565b61235f91906137d6565b67ffffffffffffffff81111561237857612377612ccf565b5b6040519080825280601f01601f1916602001820160405280156123aa5781602001600182028036833780820191505090505b5090507f3000000000000000000000000000000000000000000000000000000000000000816000815181106123e2576123e16134ed565b5b60200101907effffffffffffffffffffffffffffffffffffffffffffffffffffffffffffff1916908160001a9053507f780000000000000000000000000000000000000000000000000000000000000081600181518110612446576124456134ed565b5b60200101907effffffffffffffffffffffffffffffffffffffffffffffffffffffffffffff1916908160001a905350600060018460026124869190613d80565b61249091906137d6565b90505b6001811115612530577f3031323334353637383961626364656600000000000000000000000000000000600f8616601081106124d2576124d16134ed565b5b1a60f81b8282815181106124e9576124e86134ed565b5b60200101907effffffffffffffffffffffffffffffffffffffffffffffffffffffffffffff1916908160001a905350600485901c94508061252990613dc2565b9050612493565b5060008414612574576040517f08c379a000000000000000000000000000000000000000000000000000000000815260040161256b90613e37565b60405180910390fd5b8091505092915050565b60405180610180016040528060008152602001600081526020016000815260200160008152602001600081526020016060815260200160608152602001600015158152602001600015158152602001600073ffffffffffffffffffffffffffffffffffffffff168152602001600073ffffffffffffffffffffffffffffffffffffffff168152602001600073ffffffffffffffffffffffffffffffffffffffff1681525090565b6040518060600160405280600073ffffffffffffffffffffffffffffffffffffffff168152602001600081526020016000151581525090565b6000604051905090565b600080fd5b600080fd5b60007fffffffff0000000000000000000000000000000000000000000000000000000082169050919050565b6126a781612672565b81146126b257600080fd5b50565b6000813590506126c48161269e565b92915050565b6000602082840312156126e0576126df612668565b5b60006126ee848285016126b5565b91505092915050565b60008115159050919050565b61270c816126f7565b82525050565b60006020820190506127276000830184612703565b92915050565b6000819050919050565b6127408161272d565b811461274b57600080fd5b50565b60008135905061275d81612737565b92915050565b60006020828403121561277957612778612668565b5b60006127878482850161274e565b91505092915050565b6127998161272d565b82525050565b60006020820190506127b46000830184612790565b92915050565b6000819050919050565b6127cd816127ba565b81146127d857600080fd5b50565b6000813590506127ea816127c4565b92915050565b60006020828403121561280657612805612668565b5b6000612814848285016127db565b91505092915050565b612826816127ba565b82525050565b6000602082019050612841600083018461281d565b92915050565b600073ffffffffffffffffffffffffffffffffffffffff82169050919050565b600061287282612847565b9050919050565b61288281612867565b811461288d57600080fd5b50565b60008135905061289f81612879565b92915050565b600080604083850312156128bc576128bb612668565b5b60006128ca858286016127db565b92505060206128db85828601612890565b9150509250929050565b600081519050919050565b600082825260208201905092915050565b6000819050602082019050919050565b61291a8161272d565b82525050565b600081519050919050565b600082825260208201905092915050565b60005b8381101561295a57808201518184015260208101905061293f565b60008484015250505050565b6000601f19601f8301169050919050565b600061298282612920565b61298c818561292b565b935061299c81856020860161293c565b6129a581612966565b840191505092915050565b6129b9816126f7565b82525050565b60006129ca82612847565b9050919050565b6129da816129bf565b82525050565b6129e981612867565b82525050565b600061018083016000830151612a086000860182612911565b506020830151612a1b6020860182612911565b506040830151612a2e6040860182612911565b506060830151612a416060860182612911565b506080830151612a546080860182612911565b5060a083015184820360a0860152612a6c8282612977565b91505060c083015184820360c0860152612a868282612977565b91505060e0830151612a9b60e08601826129b0565b50610100830151612ab06101008601826129b0565b50610120830151612ac56101208601826129d1565b50610140830151612ada6101408601826129e0565b50610160830151612aef6101608601826129e0565b508091505092915050565b6000612b0683836129ef565b905092915050565b6000602082019050919050565b6000612b26826128e5565b612b3081856128f0565b935083602082028501612b4285612901565b8060005b85811015612b7e5784840389528151612b5f8582612afa565b9450612b6a83612b0e565b925060208a01995050600181019050612b46565b50829750879550505050505092915050565b60006020820190508181036000830152612baa8184612b1b565b905092915050565b600081519050919050565b600082825260208201905092915050565b6000819050602082019050919050565b606082016000820151612bf460008501826129e0565b506020820151612c076020850182612911565b506040820151612c1a60408501826129b0565b50505050565b6000612c2c8383612bde565b60608301905092915050565b6000602082019050919050565b6000612c5082612bb2565b612c5a8185612bbd565b9350612c6583612bce565b8060005b83811015612c96578151612c7d8882612c20565b9750612c8883612c38565b925050600181019050612c69565b5085935050505092915050565b60006020820190508181036000830152612cbd8184612c45565b905092915050565b600080fd5b600080fd5b7f4e487b7100000000000000000000000000000000000000000000000000000000600052604160045260246000fd5b612d0782612966565b810181811067ffffffffffffffff82111715612d2657612d25612ccf565b5b80604052505050565b6000612d3961265e565b9050612d458282612cfe565b919050565b600067ffffffffffffffff821115612d6557612d64612ccf565b5b612d6e82612966565b9050602081019050919050565b82818337600083830152505050565b6000612d9d612d9884612d4a565b612d2f565b905082815260208101848484011115612db957612db8612cca565b5b612dc4848285612d7b565b509392505050565b600082601f830112612de157612de0612cc5565b5b8135612df1848260208601612d8a565b91505092915050565b60008060008060808587031215612e1457612e13612668565b5b600085013567ffffffffffffffff811115612e3257612e3161266d565b5b612e3e87828801612dcc565b945050602085013567ffffffffffffffff811115612e5f57612e5e61266d565b5b612e6b87828801612dcc565b9350506040612e7c87828801612890565b9250506060612e8d8782880161274e565b91505092959194509250565b612ea2816126f7565b8114612ead57600080fd5b50565b600081359050612ebf81612e99565b92915050565b60008060408385031215612edc57612edb612668565b5b6000612eea8582860161274e565b9250506020612efb85828601612eb0565b9150509250929050565b606082016000820151612f1b60008501826129e0565b506020820151612f2e6020850182612911565b506040820151612f4160408501826129b0565b50505050565b6000606082019050612f5c6000830184612f05565b92915050565b600081519050919050565b600082825260208201905092915050565b6000819050602082019050919050565b6000612f9a8383612911565b60208301905092915050565b6000602082019050919050565b6000612fbe82612f62565b612fc88185612f6d565b9350612fd383612f7e565b8060005b83811015613004578151612feb8882612f8e565b9750612ff683612fa6565b925050600181019050612fd7565b5085935050505092915050565b6000602082019050818103600083015261302b8184612fb3565b905092915050565b60006101808301600083015161304c6000860182612911565b50602083015161305f6020860182612911565b5060408301516130726040860182612911565b5060608301516130856060860182612911565b5060808301516130986080860182612911565b5060a083015184820360a08601526130b08282612977565b91505060c083015184820360c08601526130ca8282612977565b91505060e08301516130df60e08601826129b0565b506101008301516130f46101008601826129b0565b506101208301516131096101208601826129d1565b5061014083015161311e6101408601826129e0565b506101608301516131336101608601826129e0565b508091505092915050565b600060208201905081810360008301526131588184613033565b905092915050565b600082825260208201905092915050565b600061317c82612920565b6131868185613160565b935061319681856020860161293c565b61319f81612966565b840191505092915050565b600060208201905081810360008301526131c48184613171565b905092915050565b7f496e73756666696369656e742066756e64000000000000000000000000000000600082015250565b6000613202601183613160565b915061320d826131cc565b602082019050919050565b60006020820190508181036000830152613231816131f5565b9050919050565b7f5061796d656e742073656e74206265666f726500000000000000000000000000600082015250565b600061326e601383613160565b915061327982613238565b602082019050919050565b6000602082019050818103600083015261329d81613261565b9050919050565b7f496e73756666696369656e7420766f7465730000000000000000000000000000600082015250565b60006132da601283613160565b91506132e5826132a4565b602082019050919050565b60006020820190508181036000830152613309816132cd565b9050919050565b7f4e487b7100000000000000000000000000000000000000000000000000000000600052601160045260246000fd5b600061334a8261272d565b91506133558361272d565b925082820390508181111561336d5761336c613310565b5b92915050565b7f5041594d454e54205452414e5346455245440000000000000000000000000000600082015250565b60006133a9601283613160565b91506133b482613373565b602082019050919050565b60006060820190506133d4600083018561281d565b81810360208301526133e58161339c565b90506133f46040830184612790565b9392505050565b7f416363657373436f6e74726f6c3a2063616e206f6e6c792072656e6f756e636560008201527f20726f6c657320666f722073656c660000000000000000000000000000000000602082015250565b6000613457602f83613160565b9150613462826133fb565b604082019050919050565b600060208201905081810360008301526134868161344a565b9050919050565b7f4e487b7100000000000000000000000000000000000000000000000000000000600052602260045260246000fd5b600060028204905060018216806134d457607f821691505b6020821081036134e7576134e661348d565b5b50919050565b7f4e487b7100000000000000000000000000000000000000000000000000000000600052603260045260246000fd5b600063ffffffff82169050919050565b60006135378261351c565b915063ffffffff820361354d5761354c613310565b5b600182019050919050565b60008190508160005260206000209050919050565b60006020601f8301049050919050565b600082821b905092915050565b6000600883026135ba7fffffffffffffffffffffffffffffffffffffffffffffffffffffffffffffffff8261357d565b6135c4868361357d565b95508019841693508086168417925050509392505050565b6000819050919050565b60006136016135fc6135f78461272d565b6135dc565b61272d565b9050919050565b6000819050919050565b61361b836135e6565b61362f61362782613608565b84845461358a565b825550505050565b600090565b613644613637565b61364f818484613612565b505050565b5b818110156136735761366860008261363c565b600181019050613655565b5050565b601f8211156136b85761368981613558565b6136928461356d565b810160208510156136a1578190505b6136b56136ad8561356d565b830182613654565b50505b505050565b600082821c905092915050565b60006136db600019846008026136bd565b1980831691505092915050565b60006136f483836136ca565b9150826002028217905092915050565b61370d82612920565b67ffffffffffffffff81111561372657613725612ccf565b5b61373082546134bc565b61373b828285613677565b600060209050601f83116001811461376e576000841561375c578287015190505b61376685826136e8565b8655506137ce565b601f19841661377c86613558565b60005b828110156137a45784890151825560018201915060208501945060208101905061377f565b868310156137c157848901516137bd601f8916826136ca565b8355505b6001600288020188555050505b505050505050565b60006137e18261272d565b91506137ec8361272d565b925082820190508082111561380457613803613310565b5b92915050565b7f50524f504f53414c205241495345440000000000000000000000000000000000600082015250565b6000613840600f83613160565b915061384b8261380a565b602082019050919050565b600060608201905061386b600083018561281d565b818103602083015261387c81613833565b905061388b6040830184612790565b9392505050565b600061389d8261272d565b91507fffffffffffffffffffffffffffffffffffffffffffffffffffffffffffffffff82036138cf576138ce613310565b5b600182019050919050565b7f50524f504f53414c20564f544500000000000000000000000000000000000000600082015250565b6000613910600d83613160565b915061391b826138da565b602082019050919050565b600060608201905061393b600083018561281d565b818103602083015261394c81613903565b905061395b6040830184612790565b9392505050565b7f436f6e747269627574696e67207a65726f206973206e6f7420616c6c6f77656460008201527f2e00000000000000000000000000000000000000000000000000000000000000602082015250565b60006139be602183613160565b91506139c982613962565b604082019050919050565b600060208201905081810360008301526139ed816139b1565b9050919050565b7f434f4e545249425554494f4e2052454345495645440000000000000000000000600082015250565b6000613a2a601583613160565b9150613a35826139f4565b602082019050919050565b6000606082019050613a55600083018561281d565b8181036020830152613a6681613a1d565b9050613a756040830184612790565b9392505050565b7f5265656e7472616e637947756172643a207265656e7472616e742063616c6c00600082015250565b6000613ab2601f83613160565b9150613abd82613a7c565b602082019050919050565b60006020820190508181036000830152613ae181613aa5565b9050919050565b600081905092915050565b50565b6000613b03600083613ae8565b9150613b0e82613af3565b600082019050919050565b6000613b2482613af6565b9150819050919050565b7f5061796d656e74206661696c6564000000000000000000000000000000000000600082015250565b6000613b64600e83613160565b9150613b6f82613b2e565b602082019050919050565b60006020820190508181036000830152613b9381613b57565b9050919050565b7f70726f706f73616c206475726174696f6e206578706972656400000000000000600082015250565b6000613bd0601983613160565b9150613bdb82613b9a565b602082019050919050565b60006020820190508181036000830152613bff81613bc3565b9050919050565b7f446f75626c6520766f74696e67206e6f7420616c6c6f77656400000000000000600082015250565b6000613c3c601983613160565b9150613c4782613c06565b602082019050919050565b60006020820190508181036000830152613c6b81613c2f565b9050919050565b600081905092915050565b7f416363657373436f6e74726f6c3a206163636f756e7420000000000000000000600082015250565b6000613cb3601783613c72565b9150613cbe82613c7d565b601782019050919050565b6000613cd482612920565b613cde8185613c72565b9350613cee81856020860161293c565b80840191505092915050565b7f206973206d697373696e6720726f6c6520000000000000000000000000000000600082015250565b6000613d30601183613c72565b9150613d3b82613cfa565b601182019050919050565b6000613d5182613ca6565b9150613d5d8285613cc9565b9150613d6882613d23565b9150613d748284613cc9565b91508190509392505050565b6000613d8b8261272d565b9150613d968361272d565b9250828202613da48161272d565b91508282048414831517613dbb57613dba613310565b5b5092915050565b6000613dcd8261272d565b915060008203613de057613ddf613310565b5b600182039050919050565b7f537472696e67733a20686578206c656e67746820696e73756666696369656e74600082015250565b6000613e21602083613160565b9150613e2c82613deb565b602082019050919050565b60006020820190508181036000830152613e5081613e14565b905091905056fe70726f706f73616c206372656174696f6e20616c6c6f77656420666f72207468652070726f706f73657273206f6e6c7944656e6965643a2055736572206973206e6f742061207374616b65686f6c646572556e617574686f72697a6564206163636573733a2050726f706f73657273206f6e6c79207065726d6974746564a264697066735822122004f94791e46ffae6e3d800ec1cc4aaa2c2449b6f6d2eccf82fab640a1020bdf664736f6c63430008160033","opcodes":"PUSH2 0x100 PUSH1 0x40 MSTORE PUSH32 0xF4BB84E1768DD286358A736D195A0B228621173F655A73B89BF8B191ED0BA07D PUSH1 0x80 SWAP1 DUP2 MSTORE POP PUSH32 0xC4338366B9CFC07901C46677A3A32746BD05D5C114E4D0D293C468CFF87ACDE0 PUSH1 0xA0 SWAP1 DUP2 MSTORE POP PUSH8 0xDE0B6B3A7640000 PUSH1 0xC0 SWAP1 DUP2 MSTORE POP PUSH2 0x258 PUSH4 0xFFFFFFFF AND PUSH1 0xE0 SWAP1 PUSH4 0xFFFFFFFF AND DUP2 MSTORE POP CALLVALUE DUP1 ISZERO PUSH2 0x83 JUMPI PUSH1 0x0 DUP1 REVERT JUMPDEST POP PUSH1 0x1 PUSH1 0x0 DUP2 SWAP1 SSTORE POP PUSH1 0x80 MLOAD PUSH1 0xA0 MLOAD PUSH1 0xC0 MLOAD PUSH1 0xE0 MLOAD PUSH2 0x3F0B PUSH2 0x112 PUSH1 0x0 CODECOPY PUSH1 0x0 PUSH2 0x10CA ADD MSTORE PUSH1 0x0 PUSH2 0x1A55 ADD MSTORE PUSH1 0x0 DUP2 DUP2 PUSH2 0x5C2 ADD MSTORE DUP2 DUP2 PUSH2 0x853 ADD MSTORE DUP2 DUP2 PUSH2 0xF3D ADD MSTORE DUP2 DUP2 PUSH2 0x1153 ADD MSTORE DUP2 DUP2 PUSH2 0x11B8 ADD MSTORE DUP2 DUP2 PUSH2 0x1445 ADD MSTORE DUP2 DUP2 PUSH2 0x156B ADD MSTORE DUP2 DUP2 PUSH2 0x19DB ADD MSTORE DUP2 DUP2 PUSH2 0x1AC3 ADD MSTORE DUP2 DUP2 PUSH2 0x1C86 ADD MSTORE PUSH2 0x1CFB ADD MSTORE PUSH1 0x0 DUP2 DUP2 PUSH2 0xE71 ADD MSTORE PUSH2 0x1B44 ADD MSTORE PUSH2 0x3F0B PUSH1 0x0 RETURN INVALID PUSH1 0x80 PUSH1 0x40 MSTORE PUSH1 0x4 CALLDATASIZE LT PUSH2 0x12A JUMPI PUSH1 0x0 CALLDATALOAD PUSH1 0xE0 SHR DUP1 PUSH4 0x7CDC2EB7 GT PUSH2 0xAB JUMPI DUP1 PUSH4 0xBD972816 GT PUSH2 0x6F JUMPI DUP1 PUSH4 0xBD972816 EQ PUSH2 0x41A JUMPI DUP1 PUSH4 0xC02146AC EQ PUSH2 0x445 JUMPI DUP1 PUSH4 0xC7F758A8 EQ PUSH2 0x470 JUMPI DUP1 PUSH4 0xD547741F EQ PUSH2 0x4AD JUMPI DUP1 PUSH4 0xD7BB99BA EQ PUSH2 0x4D6 JUMPI DUP1 PUSH4 0xF86F19FD EQ PUSH2 0x4E0 JUMPI PUSH2 0x12A JUMP JUMPDEST DUP1 PUSH4 0x7CDC2EB7 EQ PUSH2 0x321 JUMPI DUP1 PUSH4 0x8BFA1F40 EQ PUSH2 0x34A JUMPI DUP1 PUSH4 0x91D14854 EQ PUSH2 0x387 JUMPI DUP1 PUSH4 0xA217FDDF EQ PUSH2 0x3C4 JUMPI DUP1 PUSH4 0xA2B5098B EQ PUSH2 0x3EF JUMPI PUSH2 0x12A JUMP JUMPDEST DUP1 PUSH4 0x2F2FF15D GT PUSH2 0xF2 JUMPI DUP1 PUSH4 0x2F2FF15D EQ PUSH2 0x23C JUMPI DUP1 PUSH4 0x36568ABE EQ PUSH2 0x265 JUMPI DUP1 PUSH4 0x62564C48 EQ PUSH2 0x28E JUMPI DUP1 PUSH4 0x69A136DC EQ PUSH2 0x2B9 JUMPI DUP1 PUSH4 0x6A80D84D EQ PUSH2 0x2F6 JUMPI PUSH2 0x12A JUMP JUMPDEST DUP1 PUSH4 0x1FFC9A7 EQ PUSH2 0x12F JUMPI DUP1 PUSH4 0x119C37C8 EQ PUSH2 0x16C JUMPI DUP1 PUSH4 0x12065FE0 EQ PUSH2 0x1A9 JUMPI DUP1 PUSH4 0x248A9CA3 EQ PUSH2 0x1D4 JUMPI DUP1 PUSH4 0x2A146524 EQ PUSH2 0x211 JUMPI JUMPDEST PUSH1 0x0 DUP1 REVERT JUMPDEST CALLVALUE DUP1 ISZERO PUSH2 0x13B JUMPI PUSH1 0x0 DUP1 REVERT JUMPDEST POP PUSH2 0x156 PUSH1 0x4 DUP1 CALLDATASIZE SUB DUP2 ADD SWAP1 PUSH2 0x151 SWAP2 SWAP1 PUSH2 0x26CA JUMP JUMPDEST PUSH2 0x50B JUMP JUMPDEST PUSH1 0x40 MLOAD PUSH2 0x163 SWAP2 SWAP1 PUSH2 0x2712 JUMP JUMPDEST PUSH1 0x40 MLOAD DUP1 SWAP2 SUB SWAP1 RETURN JUMPDEST CALLVALUE DUP1 ISZERO PUSH2 0x178 JUMPI PUSH1 0x0 DUP1 REVERT JUMPDEST POP PUSH2 0x193 PUSH1 0x4 DUP1 CALLDATASIZE SUB DUP2 ADD SWAP1 PUSH2 0x18E SWAP2 SWAP1 PUSH2 0x2763 JUMP JUMPDEST PUSH2 0x585 JUMP JUMPDEST PUSH1 0x40 MLOAD PUSH2 0x1A0 SWAP2 SWAP1 PUSH2 0x279F JUMP JUMPDEST PUSH1 0x40 MLOAD DUP1 SWAP2 SUB SWAP1 RETURN JUMPDEST CALLVALUE DUP1 ISZERO PUSH2 0x1B5 JUMPI PUSH1 0x0 DUP1 REVERT JUMPDEST POP PUSH2 0x1BE PUSH2 0x8A1 JUMP JUMPDEST PUSH1 0x40 MLOAD PUSH2 0x1CB SWAP2 SWAP1 PUSH2 0x279F JUMP JUMPDEST PUSH1 0x40 MLOAD DUP1 SWAP2 SUB SWAP1 RETURN JUMPDEST CALLVALUE DUP1 ISZERO PUSH2 0x1E0 JUMPI PUSH1 0x0 DUP1 REVERT JUMPDEST POP PUSH2 0x1FB PUSH1 0x4 DUP1 CALLDATASIZE SUB DUP2 ADD SWAP1 PUSH2 0x1F6 SWAP2 SWAP1 PUSH2 0x27F0 JUMP JUMPDEST PUSH2 0x8E8 JUMP JUMPDEST PUSH1 0x40 MLOAD PUSH2 0x208 SWAP2 SWAP1 PUSH2 0x282C JUMP JUMPDEST PUSH1 0x40 MLOAD DUP1 SWAP2 SUB SWAP1 RETURN JUMPDEST CALLVALUE DUP1 ISZERO PUSH2 0x21D JUMPI PUSH1 0x0 DUP1 REVERT JUMPDEST POP PUSH2 0x226 PUSH2 0x908 JUMP JUMPDEST PUSH1 0x40 MLOAD PUSH2 0x233 SWAP2 SWAP1 PUSH2 0x2712 JUMP JUMPDEST PUSH1 0x40 MLOAD DUP1 SWAP2 SUB SWAP1 RETURN JUMPDEST CALLVALUE DUP1 ISZERO PUSH2 0x248 JUMPI PUSH1 0x0 DUP1 REVERT JUMPDEST POP PUSH2 0x263 PUSH1 0x4 DUP1 CALLDATASIZE SUB DUP2 ADD SWAP1 PUSH2 0x25E SWAP2 SWAP1 PUSH2 0x28A5 JUMP JUMPDEST PUSH2 0x951 JUMP JUMPDEST STOP JUMPDEST CALLVALUE DUP1 ISZERO PUSH2 0x271 JUMPI PUSH1 0x0 DUP1 REVERT JUMPDEST POP PUSH2 0x28C PUSH1 0x4 DUP1 CALLDATASIZE SUB DUP2 ADD SWAP1 PUSH2 0x287 SWAP2 SWAP1 PUSH2 0x28A5 JUMP JUMPDEST PUSH2 0x972 JUMP JUMPDEST STOP JUMPDEST CALLVALUE DUP1 ISZERO PUSH2 0x29A JUMPI PUSH1 0x0 DUP1 REVERT JUMPDEST POP PUSH2 0x2A3 PUSH2 0x9F5 JUMP JUMPDEST PUSH1 0x40 MLOAD PUSH2 0x2B0 SWAP2 SWAP1 PUSH2 0x2B90 JUMP JUMPDEST PUSH1 0x40 MLOAD DUP1 SWAP2 SUB SWAP1 RETURN JUMPDEST CALLVALUE DUP1 ISZERO PUSH2 0x2C5 JUMPI PUSH1 0x0 DUP1 REVERT JUMPDEST POP PUSH2 0x2E0 PUSH1 0x4 DUP1 CALLDATASIZE SUB DUP2 ADD SWAP1 PUSH2 0x2DB SWAP2 SWAP1 PUSH2 0x2763 JUMP JUMPDEST PUSH2 0xD64 JUMP JUMPDEST PUSH1 0x40 MLOAD PUSH2 0x2ED SWAP2 SWAP1 PUSH2 0x2CA3 JUMP JUMPDEST PUSH1 0x40 MLOAD DUP1 SWAP2 SUB SWAP1 RETURN JUMPDEST CALLVALUE DUP1 ISZERO PUSH2 0x302 JUMPI PUSH1 0x0 DUP1 REVERT JUMPDEST POP PUSH2 0x30B PUSH2 0xE51 JUMP JUMPDEST PUSH1 0x40 MLOAD PUSH2 0x318 SWAP2 SWAP1 PUSH2 0x279F JUMP JUMPDEST PUSH1 0x40 MLOAD DUP1 SWAP2 SUB SWAP1 RETURN JUMPDEST CALLVALUE DUP1 ISZERO PUSH2 0x32D JUMPI PUSH1 0x0 DUP1 REVERT JUMPDEST POP PUSH2 0x348 PUSH1 0x4 DUP1 CALLDATASIZE SUB DUP2 ADD SWAP1 PUSH2 0x343 SWAP2 SWAP1 PUSH2 0x2DFA JUMP JUMPDEST PUSH2 0xF1F JUMP JUMPDEST STOP JUMPDEST CALLVALUE DUP1 ISZERO PUSH2 0x356 JUMPI PUSH1 0x0 DUP1 REVERT JUMPDEST POP PUSH2 0x371 PUSH1 0x4 DUP1 CALLDATASIZE SUB DUP2 ADD SWAP1 PUSH2 0x36C SWAP2 SWAP1 PUSH2 0x2EC5 JUMP JUMPDEST PUSH2 0x1192 JUMP JUMPDEST PUSH1 0x40 MLOAD PUSH2 0x37E SWAP2 SWAP1 PUSH2 0x2F47 JUMP JUMPDEST PUSH1 0x40 MLOAD DUP1 SWAP2 SUB SWAP1 RETURN JUMPDEST CALLVALUE DUP1 ISZERO PUSH2 0x393 JUMPI PUSH1 0x0 DUP1 REVERT JUMPDEST POP PUSH2 0x3AE PUSH1 0x4 DUP1 CALLDATASIZE SUB DUP2 ADD SWAP1 PUSH2 0x3A9 SWAP2 SWAP1 PUSH2 0x28A5 JUMP JUMPDEST PUSH2 0x14BC JUMP JUMPDEST PUSH1 0x40 MLOAD PUSH2 0x3BB SWAP2 SWAP1 PUSH2 0x2712 JUMP JUMPDEST PUSH1 0x40 MLOAD DUP1 SWAP2 SUB SWAP1 RETURN JUMPDEST CALLVALUE DUP1 ISZERO PUSH2 0x3D0 JUMPI PUSH1 0x0 DUP1 REVERT JUMPDEST POP PUSH2 0x3D9 PUSH2 0x1527 JUMP JUMPDEST PUSH1 0x40 MLOAD PUSH2 0x3E6 SWAP2 SWAP1 PUSH2 0x282C JUMP JUMPDEST PUSH1 0x40 MLOAD DUP1 SWAP2 SUB SWAP1 RETURN JUMPDEST CALLVALUE DUP1 ISZERO PUSH2 0x3FB JUMPI PUSH1 0x0 DUP1 REVERT JUMPDEST POP PUSH2 0x404 PUSH2 0x152E JUMP JUMPDEST PUSH1 0x40 MLOAD PUSH2 0x411 SWAP2 SWAP1 PUSH2 0x3011 JUMP JUMPDEST PUSH1 0x40 MLOAD DUP1 SWAP2 SUB SWAP1 RETURN JUMPDEST CALLVALUE DUP1 ISZERO PUSH2 0x426 JUMPI PUSH1 0x0 DUP1 REVERT JUMPDEST POP PUSH2 0x42F PUSH2 0x1667 JUMP JUMPDEST PUSH1 0x40 MLOAD PUSH2 0x43C SWAP2 SWAP1 PUSH2 0x279F JUMP JUMPDEST PUSH1 0x40 MLOAD DUP1 SWAP2 SUB SWAP1 RETURN JUMPDEST CALLVALUE DUP1 ISZERO PUSH2 0x451 JUMPI PUSH1 0x0 DUP1 REVERT JUMPDEST POP PUSH2 0x45A PUSH2 0x166D JUMP JUMPDEST PUSH1 0x40 MLOAD PUSH2 0x467 SWAP2 SWAP1 PUSH2 0x2712 JUMP JUMPDEST PUSH1 0x40 MLOAD DUP1 SWAP2 SUB SWAP1 RETURN JUMPDEST CALLVALUE DUP1 ISZERO PUSH2 0x47C JUMPI PUSH1 0x0 DUP1 REVERT JUMPDEST POP PUSH2 0x497 PUSH1 0x4 DUP1 CALLDATASIZE SUB DUP2 ADD SWAP1 PUSH2 0x492 SWAP2 SWAP1 PUSH2 0x2763 JUMP JUMPDEST PUSH2 0x16B6 JUMP JUMPDEST PUSH1 0x40 MLOAD PUSH2 0x4A4 SWAP2 SWAP1 PUSH2 0x313E JUMP JUMPDEST PUSH1 0x40 MLOAD DUP1 SWAP2 SUB SWAP1 RETURN JUMPDEST CALLVALUE DUP1 ISZERO PUSH2 0x4B9 JUMPI PUSH1 0x0 DUP1 REVERT JUMPDEST POP PUSH2 0x4D4 PUSH1 0x4 DUP1 CALLDATASIZE SUB DUP2 ADD SWAP1 PUSH2 0x4CF SWAP2 SWAP1 PUSH2 0x28A5 JUMP JUMPDEST PUSH2 0x1972 JUMP JUMPDEST STOP JUMPDEST PUSH2 0x4DE PUSH2 0x1993 JUMP JUMPDEST STOP JUMPDEST CALLVALUE DUP1 ISZERO PUSH2 0x4EC JUMPI PUSH1 0x0 DUP1 REVERT JUMPDEST POP PUSH2 0x4F5 PUSH2 0x1CBE JUMP JUMPDEST PUSH1 0x40 MLOAD PUSH2 0x502 SWAP2 SWAP1 PUSH2 0x279F JUMP JUMPDEST PUSH1 0x40 MLOAD DUP1 SWAP2 SUB SWAP1 RETURN JUMPDEST PUSH1 0x0 PUSH32 0x7965DB0B00000000000000000000000000000000000000000000000000000000 PUSH28 0xFFFFFFFFFFFFFFFFFFFFFFFFFFFFFFFFFFFFFFFFFFFFFFFFFFFFFFFF NOT AND DUP3 PUSH28 0xFFFFFFFFFFFFFFFFFFFFFFFFFFFFFFFFFFFFFFFFFFFFFFFFFFFFFFFF NOT AND EQ DUP1 PUSH2 0x57E JUMPI POP PUSH2 0x57D DUP3 PUSH2 0x1DA9 JUMP JUMPDEST JUMPDEST SWAP1 POP SWAP2 SWAP1 POP JUMP JUMPDEST PUSH1 0x0 PUSH1 0x40 MLOAD DUP1 PUSH1 0x40 ADD PUSH1 0x40 MSTORE DUP1 PUSH1 0x1C DUP2 MSTORE PUSH1 0x20 ADD PUSH32 0x556E617574686F72697A65643A2050726F706F73657273206F6E6C7900000000 DUP2 MSTORE POP PUSH2 0x5E7 PUSH32 0x0 CALLER PUSH2 0x14BC JUMP JUMPDEST DUP2 SWAP1 PUSH2 0x629 JUMPI PUSH1 0x40 MLOAD PUSH32 0x8C379A000000000000000000000000000000000000000000000000000000000 DUP2 MSTORE PUSH1 0x4 ADD PUSH2 0x620 SWAP2 SWAP1 PUSH2 0x31AA JUMP JUMPDEST PUSH1 0x40 MLOAD DUP1 SWAP2 SUB SWAP1 REVERT JUMPDEST POP PUSH2 0x632 PUSH2 0x1E13 JUMP JUMPDEST PUSH1 0x0 PUSH1 0x4 PUSH1 0x0 DUP6 DUP2 MSTORE PUSH1 0x20 ADD SWAP1 DUP2 MSTORE PUSH1 0x20 ADD PUSH1 0x0 KECCAK256 SWAP1 POP DUP1 PUSH1 0x1 ADD SLOAD PUSH1 0x3 SLOAD LT ISZERO PUSH2 0x692 JUMPI PUSH1 0x40 MLOAD PUSH32 0x8C379A000000000000000000000000000000000000000000000000000000000 DUP2 MSTORE PUSH1 0x4 ADD PUSH2 0x689 SWAP1 PUSH2 0x3218 JUMP JUMPDEST PUSH1 0x40 MLOAD DUP1 SWAP2 SUB SWAP1 REVERT JUMPDEST DUP1 PUSH1 0x7 ADD PUSH1 0x1 SWAP1 SLOAD SWAP1 PUSH2 0x100 EXP SWAP1 DIV PUSH1 0xFF AND ISZERO PUSH2 0x6E4 JUMPI PUSH1 0x40 MLOAD PUSH32 0x8C379A000000000000000000000000000000000000000000000000000000000 DUP2 MSTORE PUSH1 0x4 ADD PUSH2 0x6DB SWAP1 PUSH2 0x3284 JUMP JUMPDEST PUSH1 0x40 MLOAD DUP1 SWAP2 SUB SWAP1 REVERT JUMPDEST DUP1 PUSH1 0x4 ADD SLOAD DUP2 PUSH1 0x3 ADD SLOAD GT PUSH2 0x72E JUMPI PUSH1 0x40 MLOAD PUSH32 0x8C379A000000000000000000000000000000000000000000000000000000000 DUP2 MSTORE PUSH1 0x4 ADD PUSH2 0x725 SWAP1 PUSH2 0x32F0 JUMP JUMPDEST PUSH1 0x40 MLOAD DUP1 SWAP2 SUB SWAP1 REVERT JUMPDEST PUSH1 0x1 DUP2 PUSH1 0x7 ADD PUSH1 0x1 PUSH2 0x100 EXP DUP2 SLOAD DUP2 PUSH1 0xFF MUL NOT AND SWAP1 DUP4 ISZERO ISZERO MUL OR SWAP1 SSTORE POP CALLER DUP2 PUSH1 0x9 ADD PUSH1 0x0 PUSH2 0x100 EXP DUP2 SLOAD DUP2 PUSH20 0xFFFFFFFFFFFFFFFFFFFFFFFFFFFFFFFFFFFFFFFF MUL NOT AND SWAP1 DUP4 PUSH20 0xFFFFFFFFFFFFFFFFFFFFFFFFFFFFFFFFFFFFFFFF AND MUL OR SWAP1 SSTORE POP DUP1 PUSH1 0x1 ADD SLOAD PUSH1 0x3 PUSH1 0x0 DUP3 DUP3 SLOAD PUSH2 0x7A4 SWAP2 SWAP1 PUSH2 0x333F JUMP JUMPDEST SWAP3 POP POP DUP2 SWAP1 SSTORE POP PUSH2 0x7DD DUP2 PUSH1 0x7 ADD PUSH1 0x2 SWAP1 SLOAD SWAP1 PUSH2 0x100 EXP SWAP1 DIV PUSH20 0xFFFFFFFFFFFFFFFFFFFFFFFFFFFFFFFFFFFFFFFF AND DUP3 PUSH1 0x1 ADD SLOAD PUSH2 0x1E62 JUMP JUMPDEST POP DUP1 PUSH1 0x7 ADD PUSH1 0x2 SWAP1 SLOAD SWAP1 PUSH2 0x100 EXP SWAP1 DIV PUSH20 0xFFFFFFFFFFFFFFFFFFFFFFFFFFFFFFFFFFFFFFFF AND PUSH20 0xFFFFFFFFFFFFFFFFFFFFFFFFFFFFFFFFFFFFFFFF AND CALLER PUSH20 0xFFFFFFFFFFFFFFFFFFFFFFFFFFFFFFFFFFFFFFFF AND PUSH32 0xA596782D699D74613FCBF59D33E720BAABD313D6BE9C95E2268F305430305EB7 PUSH32 0x0 DUP5 PUSH1 0x1 ADD SLOAD PUSH1 0x40 MLOAD PUSH2 0x885 SWAP3 SWAP2 SWAP1 PUSH2 0x33BF JUMP JUMPDEST PUSH1 0x40 MLOAD DUP1 SWAP2 SUB SWAP1 LOG3 PUSH1 0x3 SLOAD SWAP3 POP POP PUSH2 0x89B PUSH2 0x1F1A JUMP JUMPDEST POP SWAP2 SWAP1 POP JUMP JUMPDEST PUSH1 0x0 PUSH1 0x7 PUSH1 0x0 CALLER PUSH20 0xFFFFFFFFFFFFFFFFFFFFFFFFFFFFFFFFFFFFFFFF AND PUSH20 0xFFFFFFFFFFFFFFFFFFFFFFFFFFFFFFFFFFFFFFFF AND DUP2 MSTORE PUSH1 0x20 ADD SWAP1 DUP2 MSTORE PUSH1 0x20 ADD PUSH1 0x0 KECCAK256 SLOAD SWAP1 POP SWAP1 JUMP JUMPDEST PUSH1 0x0 PUSH1 0x1 PUSH1 0x0 DUP4 DUP2 MSTORE PUSH1 0x20 ADD SWAP1 DUP2 MSTORE PUSH1 0x20 ADD PUSH1 0x0 KECCAK256 PUSH1 0x1 ADD SLOAD SWAP1 POP SWAP2 SWAP1 POP JUMP JUMPDEST PUSH1 0x0 DUP1 PUSH1 0x8 PUSH1 0x0 CALLER PUSH20 0xFFFFFFFFFFFFFFFFFFFFFFFFFFFFFFFFFFFFFFFF AND PUSH20 0xFFFFFFFFFFFFFFFFFFFFFFFFFFFFFFFFFFFFFFFF AND DUP2 MSTORE PUSH1 0x20 ADD SWAP1 DUP2 MSTORE PUSH1 0x20 ADD PUSH1 0x0 KECCAK256 SLOAD GT SWAP1 POP SWAP1 JUMP JUMPDEST PUSH2 0x95A DUP3 PUSH2 0x8E8 JUMP JUMPDEST PUSH2 0x963 DUP2 PUSH2 0x1F24 JUMP JUMPDEST PUSH2 0x96D DUP4 DUP4 PUSH2 0x1F38 JUMP JUMPDEST POP POP POP JUMP JUMPDEST PUSH2 0x97A PUSH2 0x2018 JUMP JUMPDEST PUSH20 0xFFFFFFFFFFFFFFFFFFFFFFFFFFFFFFFFFFFFFFFF AND DUP2 PUSH20 0xFFFFFFFFFFFFFFFFFFFFFFFFFFFFFFFFFFFFFFFF AND EQ PUSH2 0x9E7 JUMPI PUSH1 0x40 MLOAD PUSH32 0x8C379A000000000000000000000000000000000000000000000000000000000 DUP2 MSTORE PUSH1 0x4 ADD PUSH2 0x9DE SWAP1 PUSH2 0x346D JUMP JUMPDEST PUSH1 0x40 MLOAD DUP1 SWAP2 SUB SWAP1 REVERT JUMPDEST PUSH2 0x9F1 DUP3 DUP3 PUSH2 0x2020 JUMP JUMPDEST POP POP JUMP JUMPDEST PUSH1 0x60 PUSH1 0x2 PUSH1 0x0 SWAP1 SLOAD SWAP1 PUSH2 0x100 EXP SWAP1 DIV PUSH4 0xFFFFFFFF AND PUSH4 0xFFFFFFFF AND PUSH8 0xFFFFFFFFFFFFFFFF DUP2 GT ISZERO PUSH2 0xA29 JUMPI PUSH2 0xA28 PUSH2 0x2CCF JUMP JUMPDEST JUMPDEST PUSH1 0x40 MLOAD SWAP1 DUP1 DUP3 MSTORE DUP1 PUSH1 0x20 MUL PUSH1 0x20 ADD DUP3 ADD PUSH1 0x40 MSTORE DUP1 ISZERO PUSH2 0xA62 JUMPI DUP2 PUSH1 0x20 ADD JUMPDEST PUSH2 0xA4F PUSH2 0x257E JUMP JUMPDEST DUP2 MSTORE PUSH1 0x20 ADD SWAP1 PUSH1 0x1 SWAP1 SUB SWAP1 DUP2 PUSH2 0xA47 JUMPI SWAP1 POP JUMPDEST POP SWAP1 POP PUSH1 0x0 JUMPDEST PUSH1 0x2 PUSH1 0x0 SWAP1 SLOAD SWAP1 PUSH2 0x100 EXP SWAP1 DIV PUSH4 0xFFFFFFFF AND PUSH4 0xFFFFFFFF AND DUP2 LT ISZERO PUSH2 0xD60 JUMPI PUSH1 0x4 PUSH1 0x0 DUP3 DUP2 MSTORE PUSH1 0x20 ADD SWAP1 DUP2 MSTORE PUSH1 0x20 ADD PUSH1 0x0 KECCAK256 PUSH1 0x40 MLOAD DUP1 PUSH2 0x180 ADD PUSH1 0x40 MSTORE SWAP1 DUP2 PUSH1 0x0 DUP3 ADD SLOAD DUP2 MSTORE PUSH1 0x20 ADD PUSH1 0x1 DUP3 ADD SLOAD DUP2 MSTORE PUSH1 0x20 ADD PUSH1 0x2 DUP3 ADD SLOAD DUP2 MSTORE PUSH1 0x20 ADD PUSH1 0x3 DUP3 ADD SLOAD DUP2 MSTORE PUSH1 0x20 ADD PUSH1 0x4 DUP3 ADD SLOAD DUP2 MSTORE PUSH1 0x20 ADD PUSH1 0x5 DUP3 ADD DUP1 SLOAD PUSH2 0xAE9 SWAP1 PUSH2 0x34BC JUMP JUMPDEST DUP1 PUSH1 0x1F ADD PUSH1 0x20 DUP1 SWAP2 DIV MUL PUSH1 0x20 ADD PUSH1 0x40 MLOAD SWAP1 DUP2 ADD PUSH1 0x40 MSTORE DUP1 SWAP3 SWAP2 SWAP1 DUP2 DUP2 MSTORE PUSH1 0x20 ADD DUP3 DUP1 SLOAD PUSH2 0xB15 SWAP1 PUSH2 0x34BC JUMP JUMPDEST DUP1 ISZERO PUSH2 0xB62 JUMPI DUP1 PUSH1 0x1F LT PUSH2 0xB37 JUMPI PUSH2 0x100 DUP1 DUP4 SLOAD DIV MUL DUP4 MSTORE SWAP2 PUSH1 0x20 ADD SWAP2 PUSH2 0xB62 JUMP JUMPDEST DUP3 ADD SWAP2 SWAP1 PUSH1 0x0 MSTORE PUSH1 0x20 PUSH1 0x0 KECCAK256 SWAP1 JUMPDEST DUP2 SLOAD DUP2 MSTORE SWAP1 PUSH1 0x1 ADD SWAP1 PUSH1 0x20 ADD DUP1 DUP4 GT PUSH2 0xB45 JUMPI DUP3 SWAP1 SUB PUSH1 0x1F AND DUP3 ADD SWAP2 JUMPDEST POP POP POP POP POP DUP2 MSTORE PUSH1 0x20 ADD PUSH1 0x6 DUP3 ADD DUP1 SLOAD PUSH2 0xB7B SWAP1 PUSH2 0x34BC JUMP JUMPDEST DUP1 PUSH1 0x1F ADD PUSH1 0x20 DUP1 SWAP2 DIV MUL PUSH1 0x20 ADD PUSH1 0x40 MLOAD SWAP1 DUP2 ADD PUSH1 0x40 MSTORE DUP1 SWAP3 SWAP2 SWAP1 DUP2 DUP2 MSTORE PUSH1 0x20 ADD DUP3 DUP1 SLOAD PUSH2 0xBA7 SWAP1 PUSH2 0x34BC JUMP JUMPDEST DUP1 ISZERO PUSH2 0xBF4 JUMPI DUP1 PUSH1 0x1F LT PUSH2 0xBC9 JUMPI PUSH2 0x100 DUP1 DUP4 SLOAD DIV MUL DUP4 MSTORE SWAP2 PUSH1 0x20 ADD SWAP2 PUSH2 0xBF4 JUMP JUMPDEST DUP3 ADD SWAP2 SWAP1 PUSH1 0x0 MSTORE PUSH1 0x20 PUSH1 0x0 KECCAK256 SWAP1 JUMPDEST DUP2 SLOAD DUP2 MSTORE SWAP1 PUSH1 0x1 ADD SWAP1 PUSH1 0x20 ADD DUP1 DUP4 GT PUSH2 0xBD7 JUMPI DUP3 SWAP1 SUB PUSH1 0x1F AND DUP3 ADD SWAP2 JUMPDEST POP POP POP POP POP DUP2 MSTORE PUSH1 0x20 ADD PUSH1 0x7 DUP3 ADD PUSH1 0x0 SWAP1 SLOAD SWAP1 PUSH2 0x100 EXP SWAP1 DIV PUSH1 0xFF AND ISZERO ISZERO ISZERO ISZERO DUP2 MSTORE PUSH1 0x20 ADD PUSH1 0x7 DUP3 ADD PUSH1 0x1 SWAP1 SLOAD SWAP1 PUSH2 0x100 EXP SWAP1 DIV PUSH1 0xFF AND ISZERO ISZERO ISZERO ISZERO DUP2 MSTORE PUSH1 0x20 ADD PUSH1 0x7 DUP3 ADD PUSH1 0x2 SWAP1 SLOAD SWAP1 PUSH2 0x100 EXP SWAP1 DIV PUSH20 0xFFFFFFFFFFFFFFFFFFFFFFFFFFFFFFFFFFFFFFFF AND PUSH20 0xFFFFFFFFFFFFFFFFFFFFFFFFFFFFFFFFFFFFFFFF AND PUSH20 0xFFFFFFFFFFFFFFFFFFFFFFFFFFFFFFFFFFFFFFFF AND DUP2 MSTORE PUSH1 0x20 ADD PUSH1 0x8 DUP3 ADD PUSH1 0x0 SWAP1 SLOAD SWAP1 PUSH2 0x100 EXP SWAP1 DIV PUSH20 0xFFFFFFFFFFFFFFFFFFFFFFFFFFFFFFFFFFFFFFFF AND PUSH20 0xFFFFFFFFFFFFFFFFFFFFFFFFFFFFFFFFFFFFFFFF AND PUSH20 0xFFFFFFFFFFFFFFFFFFFFFFFFFFFFFFFFFFFFFFFF AND DUP2 MSTORE PUSH1 0x20 ADD PUSH1 0x9 DUP3 ADD PUSH1 0x0 SWAP1 SLOAD SWAP1 PUSH2 0x100 EXP SWAP1 DIV PUSH20 0xFFFFFFFFFFFFFFFFFFFFFFFFFFFFFFFFFFFFFFFF AND PUSH20 0xFFFFFFFFFFFFFFFFFFFFFFFFFFFFFFFFFFFFFFFF AND PUSH20 0xFFFFFFFFFFFFFFFFFFFFFFFFFFFFFFFFFFFFFFFF AND DUP2 MSTORE POP POP DUP3 DUP3 DUP2 MLOAD DUP2 LT PUSH2 0xD48 JUMPI PUSH2 0xD47 PUSH2 0x34ED JUMP JUMPDEST JUMPDEST PUSH1 0x20 MUL PUSH1 0x20 ADD ADD DUP2 SWAP1 MSTORE POP DUP1 DUP1 PUSH1 0x1 ADD SWAP2 POP POP PUSH2 0xA68 JUMP JUMPDEST POP SWAP1 JUMP JUMPDEST PUSH1 0x60 PUSH1 0x6 PUSH1 0x0 DUP4 DUP2 MSTORE PUSH1 0x20 ADD SWAP1 DUP2 MSTORE PUSH1 0x20 ADD PUSH1 0x0 KECCAK256 DUP1 SLOAD DUP1 PUSH1 0x20 MUL PUSH1 0x20 ADD PUSH1 0x40 MLOAD SWAP1 DUP2 ADD PUSH1 0x40 MSTORE DUP1 SWAP3 SWAP2 SWAP1 DUP2 DUP2 MSTORE PUSH1 0x20 ADD PUSH1 0x0 SWAP1 JUMPDEST DUP3 DUP3 LT ISZERO PUSH2 0xE46 JUMPI DUP4 DUP3 SWAP1 PUSH1 0x0 MSTORE PUSH1 0x20 PUSH1 0x0 KECCAK256 SWAP1 PUSH1 0x3 MUL ADD PUSH1 0x40 MLOAD DUP1 PUSH1 0x60 ADD PUSH1 0x40 MSTORE SWAP1 DUP2 PUSH1 0x0 DUP3 ADD PUSH1 0x0 SWAP1 SLOAD SWAP1 PUSH2 0x100 EXP SWAP1 DIV PUSH20 0xFFFFFFFFFFFFFFFFFFFFFFFFFFFFFFFFFFFFFFFF AND PUSH20 0xFFFFFFFFFFFFFFFFFFFFFFFFFFFFFFFFFFFFFFFF AND PUSH20 0xFFFFFFFFFFFFFFFFFFFFFFFFFFFFFFFFFFFFFFFF AND DUP2 MSTORE PUSH1 0x20 ADD PUSH1 0x1 DUP3 ADD SLOAD DUP2 MSTORE PUSH1 0x20 ADD PUSH1 0x2 DUP3 ADD PUSH1 0x0 SWAP1 SLOAD SWAP1 PUSH2 0x100 EXP SWAP1 DIV PUSH1 0xFF AND ISZERO ISZERO ISZERO ISZERO DUP2 MSTORE POP POP DUP2 MSTORE PUSH1 0x20 ADD SWAP1 PUSH1 0x1 ADD SWAP1 PUSH2 0xD99 JUMP JUMPDEST POP POP POP POP SWAP1 POP SWAP2 SWAP1 POP JUMP JUMPDEST PUSH1 0x0 PUSH1 0x40 MLOAD DUP1 PUSH1 0x60 ADD PUSH1 0x40 MSTORE DUP1 PUSH1 0x21 DUP2 MSTORE PUSH1 0x20 ADD PUSH2 0x3E88 PUSH1 0x21 SWAP2 CODECOPY PUSH2 0xE96 PUSH32 0x0 CALLER PUSH2 0x14BC JUMP JUMPDEST DUP2 SWAP1 PUSH2 0xED8 JUMPI PUSH1 0x40 MLOAD PUSH32 0x8C379A000000000000000000000000000000000000000000000000000000000 DUP2 MSTORE PUSH1 0x4 ADD PUSH2 0xECF SWAP2 SWAP1 PUSH2 0x31AA JUMP JUMPDEST PUSH1 0x40 MLOAD DUP1 SWAP2 SUB SWAP1 REVERT JUMPDEST POP PUSH1 0x7 PUSH1 0x0 CALLER PUSH20 0xFFFFFFFFFFFFFFFFFFFFFFFFFFFFFFFFFFFFFFFF AND PUSH20 0xFFFFFFFFFFFFFFFFFFFFFFFFFFFFFFFFFFFFFFFF AND DUP2 MSTORE PUSH1 0x20 ADD SWAP1 DUP2 MSTORE PUSH1 0x20 ADD PUSH1 0x0 KECCAK256 SLOAD SWAP2 POP POP SWAP1 JUMP JUMPDEST PUSH1 0x40 MLOAD DUP1 PUSH1 0x60 ADD PUSH1 0x40 MSTORE DUP1 PUSH1 0x30 DUP2 MSTORE PUSH1 0x20 ADD PUSH2 0x3E58 PUSH1 0x30 SWAP2 CODECOPY PUSH2 0xF62 PUSH32 0x0 CALLER PUSH2 0x14BC JUMP JUMPDEST DUP2 SWAP1 PUSH2 0xFA4 JUMPI PUSH1 0x40 MLOAD PUSH32 0x8C379A000000000000000000000000000000000000000000000000000000000 DUP2 MSTORE PUSH1 0x4 ADD PUSH2 0xF9B SWAP2 SWAP1 PUSH2 0x31AA JUMP JUMPDEST PUSH1 0x40 MLOAD DUP1 SWAP2 SUB SWAP1 REVERT JUMPDEST POP PUSH1 0x0 PUSH1 0x2 PUSH1 0x0 DUP2 DUP2 SWAP1 SLOAD SWAP1 PUSH2 0x100 EXP SWAP1 DIV PUSH4 0xFFFFFFFF AND DUP1 SWAP3 SWAP2 SWAP1 PUSH2 0xFC9 SWAP1 PUSH2 0x352C JUMP JUMPDEST SWAP2 SWAP1 PUSH2 0x100 EXP DUP2 SLOAD DUP2 PUSH4 0xFFFFFFFF MUL NOT AND SWAP1 DUP4 PUSH4 0xFFFFFFFF AND MUL OR SWAP1 SSTORE POP SWAP1 POP PUSH1 0x0 PUSH1 0x4 PUSH1 0x0 DUP4 PUSH4 0xFFFFFFFF AND DUP2 MSTORE PUSH1 0x20 ADD SWAP1 DUP2 MSTORE PUSH1 0x20 ADD PUSH1 0x0 KECCAK256 SWAP1 POP DUP2 PUSH4 0xFFFFFFFF AND DUP2 PUSH1 0x0 ADD DUP2 SWAP1 SSTORE POP CALLER DUP2 PUSH1 0x8 ADD PUSH1 0x0 PUSH2 0x100 EXP DUP2 SLOAD DUP2 PUSH20 0xFFFFFFFFFFFFFFFFFFFFFFFFFFFFFFFFFFFFFFFF MUL NOT AND SWAP1 DUP4 PUSH20 0xFFFFFFFFFFFFFFFFFFFFFFFFFFFFFFFFFFFFFFFF AND MUL OR SWAP1 SSTORE POP DUP7 DUP2 PUSH1 0x5 ADD SWAP1 DUP2 PUSH2 0x1069 SWAP2 SWAP1 PUSH2 0x3704 JUMP JUMPDEST POP DUP6 DUP2 PUSH1 0x6 ADD SWAP1 DUP2 PUSH2 0x107B SWAP2 SWAP1 PUSH2 0x3704 JUMP JUMPDEST POP DUP5 DUP2 PUSH1 0x7 ADD PUSH1 0x2 PUSH2 0x100 EXP DUP2 SLOAD DUP2 PUSH20 0xFFFFFFFFFFFFFFFFFFFFFFFFFFFFFFFFFFFFFFFF MUL NOT AND SWAP1 DUP4 PUSH20 0xFFFFFFFFFFFFFFFFFFFFFFFFFFFFFFFFFFFFFFFF AND MUL OR SWAP1 SSTORE POP DUP4 DUP2 PUSH1 0x1 ADD DUP2 SWAP1 SSTORE POP PUSH32 0x0 PUSH4 0xFFFFFFFF AND TIMESTAMP PUSH2 0x10FA SWAP2 SWAP1 PUSH2 0x37D6 JUMP JUMPDEST DUP2 PUSH1 0x2 ADD DUP2 SWAP1 SSTORE POP DUP5 PUSH20 0xFFFFFFFFFFFFFFFFFFFFFFFFFFFFFFFFFFFFFFFF AND CALLER PUSH20 0xFFFFFFFFFFFFFFFFFFFFFFFFFFFFFFFFFFFFFFFF AND PUSH32 0xA596782D699D74613FCBF59D33E720BAABD313D6BE9C95E2268F305430305EB7 PUSH32 0x0 DUP8 PUSH1 0x40 MLOAD PUSH2 0x1181 SWAP3 SWAP2 SWAP1 PUSH2 0x3856 JUMP JUMPDEST PUSH1 0x40 MLOAD DUP1 SWAP2 SUB SWAP1 LOG3 POP POP POP POP POP POP POP JUMP JUMPDEST PUSH2 0x119A PUSH2 0x2625 JUMP JUMPDEST PUSH1 0x40 MLOAD DUP1 PUSH1 0x60 ADD PUSH1 0x40 MSTORE DUP1 PUSH1 0x2D DUP2 MSTORE PUSH1 0x20 ADD PUSH2 0x3EA9 PUSH1 0x2D SWAP2 CODECOPY PUSH2 0x11DD PUSH32 0x0 CALLER PUSH2 0x14BC JUMP JUMPDEST DUP2 SWAP1 PUSH2 0x121F JUMPI PUSH1 0x40 MLOAD PUSH32 0x8C379A000000000000000000000000000000000000000000000000000000000 DUP2 MSTORE PUSH1 0x4 ADD PUSH2 0x1216 SWAP2 SWAP1 PUSH2 0x31AA JUMP JUMPDEST PUSH1 0x40 MLOAD DUP1 SWAP2 SUB SWAP1 REVERT JUMPDEST POP PUSH1 0x0 PUSH1 0x4 PUSH1 0x0 DUP7 DUP2 MSTORE PUSH1 0x20 ADD SWAP1 DUP2 MSTORE PUSH1 0x20 ADD PUSH1 0x0 KECCAK256 SWAP1 POP PUSH2 0x1240 DUP2 PUSH2 0x2102 JUMP JUMPDEST DUP4 ISZERO PUSH2 0x1265 JUMPI DUP1 PUSH1 0x3 ADD PUSH1 0x0 DUP2 SLOAD DUP1 SWAP3 SWAP2 SWAP1 PUSH2 0x125B SWAP1 PUSH2 0x3892 JUMP JUMPDEST SWAP2 SWAP1 POP SSTORE POP PUSH2 0x1280 JUMP JUMPDEST DUP1 PUSH1 0x4 ADD PUSH1 0x0 DUP2 SLOAD DUP1 SWAP3 SWAP2 SWAP1 PUSH2 0x127A SWAP1 PUSH2 0x3892 JUMP JUMPDEST SWAP2 SWAP1 POP SSTORE POP JUMPDEST PUSH1 0x5 PUSH1 0x0 CALLER PUSH20 0xFFFFFFFFFFFFFFFFFFFFFFFFFFFFFFFFFFFFFFFF AND PUSH20 0xFFFFFFFFFFFFFFFFFFFFFFFFFFFFFFFFFFFFFFFF AND DUP2 MSTORE PUSH1 0x20 ADD SWAP1 DUP2 MSTORE PUSH1 0x20 ADD PUSH1 0x0 KECCAK256 DUP2 PUSH1 0x0 ADD SLOAD SWAP1 DUP1 PUSH1 0x1 DUP2 SLOAD ADD DUP1 DUP3 SSTORE DUP1 SWAP2 POP POP PUSH1 0x1 SWAP1 SUB SWAP1 PUSH1 0x0 MSTORE PUSH1 0x20 PUSH1 0x0 KECCAK256 ADD PUSH1 0x0 SWAP1 SWAP2 SWAP1 SWAP2 SWAP1 SWAP2 POP SSTORE PUSH1 0x6 PUSH1 0x0 DUP3 PUSH1 0x0 ADD SLOAD DUP2 MSTORE PUSH1 0x20 ADD SWAP1 DUP2 MSTORE PUSH1 0x20 ADD PUSH1 0x0 KECCAK256 PUSH1 0x40 MLOAD DUP1 PUSH1 0x60 ADD PUSH1 0x40 MSTORE DUP1 CALLER PUSH20 0xFFFFFFFFFFFFFFFFFFFFFFFFFFFFFFFFFFFFFFFF AND DUP2 MSTORE PUSH1 0x20 ADD TIMESTAMP DUP2 MSTORE PUSH1 0x20 ADD DUP7 ISZERO ISZERO DUP2 MSTORE POP SWAP1 DUP1 PUSH1 0x1 DUP2 SLOAD ADD DUP1 DUP3 SSTORE DUP1 SWAP2 POP POP PUSH1 0x1 SWAP1 SUB SWAP1 PUSH1 0x0 MSTORE PUSH1 0x20 PUSH1 0x0 KECCAK256 SWAP1 PUSH1 0x3 MUL ADD PUSH1 0x0 SWAP1 SWAP2 SWAP1 SWAP2 SWAP1 SWAP2 POP PUSH1 0x0 DUP3 ADD MLOAD DUP2 PUSH1 0x0 ADD PUSH1 0x0 PUSH2 0x100 EXP DUP2 SLOAD DUP2 PUSH20 0xFFFFFFFFFFFFFFFFFFFFFFFFFFFFFFFFFFFFFFFF MUL NOT AND SWAP1 DUP4 PUSH20 0xFFFFFFFFFFFFFFFFFFFFFFFFFFFFFFFFFFFFFFFF AND MUL OR SWAP1 SSTORE POP PUSH1 0x20 DUP3 ADD MLOAD DUP2 PUSH1 0x1 ADD SSTORE PUSH1 0x40 DUP3 ADD MLOAD DUP2 PUSH1 0x2 ADD PUSH1 0x0 PUSH2 0x100 EXP DUP2 SLOAD DUP2 PUSH1 0xFF MUL NOT AND SWAP1 DUP4 ISZERO ISZERO MUL OR SWAP1 SSTORE POP POP POP DUP1 PUSH1 0x7 ADD PUSH1 0x2 SWAP1 SLOAD SWAP1 PUSH2 0x100 EXP SWAP1 DIV PUSH20 0xFFFFFFFFFFFFFFFFFFFFFFFFFFFFFFFFFFFFFFFF AND PUSH20 0xFFFFFFFFFFFFFFFFFFFFFFFFFFFFFFFFFFFFFFFF AND CALLER PUSH20 0xFFFFFFFFFFFFFFFFFFFFFFFFFFFFFFFFFFFFFFFF AND PUSH32 0xA596782D699D74613FCBF59D33E720BAABD313D6BE9C95E2268F305430305EB7 PUSH32 0x0 DUP5 PUSH1 0x1 ADD SLOAD PUSH1 0x40 MLOAD PUSH2 0x1477 SWAP3 SWAP2 SWAP1 PUSH2 0x3926 JUMP JUMPDEST PUSH1 0x40 MLOAD DUP1 SWAP2 SUB SWAP1 LOG3 PUSH1 0x40 MLOAD DUP1 PUSH1 0x60 ADD PUSH1 0x40 MSTORE DUP1 CALLER PUSH20 0xFFFFFFFFFFFFFFFFFFFFFFFFFFFFFFFFFFFFFFFF AND DUP2 MSTORE PUSH1 0x20 ADD TIMESTAMP DUP2 MSTORE PUSH1 0x20 ADD DUP6 ISZERO ISZERO DUP2 MSTORE POP SWAP3 POP POP POP SWAP3 SWAP2 POP POP JUMP JUMPDEST PUSH1 0x0 PUSH1 0x1 PUSH1 0x0 DUP5 DUP2 MSTORE PUSH1 0x20 ADD SWAP1 DUP2 MSTORE PUSH1 0x20 ADD PUSH1 0x0 KECCAK256 PUSH1 0x0 ADD PUSH1 0x0 DUP4 PUSH20 0xFFFFFFFFFFFFFFFFFFFFFFFFFFFFFFFFFFFFFFFF AND PUSH20 0xFFFFFFFFFFFFFFFFFFFFFFFFFFFFFFFFFFFFFFFF AND DUP2 MSTORE PUSH1 0x20 ADD SWAP1 DUP2 MSTORE PUSH1 0x20 ADD PUSH1 0x0 KECCAK256 PUSH1 0x0 SWAP1 SLOAD SWAP1 PUSH2 0x100 EXP SWAP1 DIV PUSH1 0xFF AND SWAP1 POP SWAP3 SWAP2 POP POP JUMP JUMPDEST PUSH1 0x0 DUP1 SHL DUP2 JUMP JUMPDEST PUSH1 0x60 PUSH1 0x40 MLOAD DUP1 PUSH1 0x40 ADD PUSH1 0x40 MSTORE DUP1 PUSH1 0x1C DUP2 MSTORE PUSH1 0x20 ADD PUSH32 0x556E617574686F72697A65643A206E6F7420612070726F706F73657200000000 DUP2 MSTORE POP PUSH2 0x1590 PUSH32 0x0 CALLER PUSH2 0x14BC JUMP JUMPDEST DUP2 SWAP1 PUSH2 0x15D2 JUMPI PUSH1 0x40 MLOAD PUSH32 0x8C379A000000000000000000000000000000000000000000000000000000000 DUP2 MSTORE PUSH1 0x4 ADD PUSH2 0x15C9 SWAP2 SWAP1 PUSH2 0x31AA JUMP JUMPDEST PUSH1 0x40 MLOAD DUP1 SWAP2 SUB SWAP1 REVERT JUMPDEST POP PUSH1 0x5 PUSH1 0x0 CALLER PUSH20 0xFFFFFFFFFFFFFFFFFFFFFFFFFFFFFFFFFFFFFFFF AND PUSH20 0xFFFFFFFFFFFFFFFFFFFFFFFFFFFFFFFFFFFFFFFF AND DUP2 MSTORE PUSH1 0x20 ADD SWAP1 DUP2 MSTORE PUSH1 0x20 ADD PUSH1 0x0 KECCAK256 DUP1 SLOAD DUP1 PUSH1 0x20 MUL PUSH1 0x20 ADD PUSH1 0x40 MLOAD SWAP1 DUP2 ADD PUSH1 0x40 MSTORE DUP1 SWAP3 SWAP2 SWAP1 DUP2 DUP2 MSTORE PUSH1 0x20 ADD DUP3 DUP1 SLOAD DUP1 ISZERO PUSH2 0x165C JUMPI PUSH1 0x20 MUL DUP3 ADD SWAP2 SWAP1 PUSH1 0x0 MSTORE PUSH1 0x20 PUSH1 0x0 KECCAK256 SWAP1 JUMPDEST DUP2 SLOAD DUP2 MSTORE PUSH1 0x20 ADD SWAP1 PUSH1 0x1 ADD SWAP1 DUP1 DUP4 GT PUSH2 0x1648 JUMPI JUMPDEST POP POP POP POP POP SWAP2 POP POP SWAP1 JUMP JUMPDEST PUSH1 0x3 SLOAD DUP2 JUMP JUMPDEST PUSH1 0x0 DUP1 PUSH1 0x7 PUSH1 0x0 CALLER PUSH20 0xFFFFFFFFFFFFFFFFFFFFFFFFFFFFFFFFFFFFFFFF AND PUSH20 0xFFFFFFFFFFFFFFFFFFFFFFFFFFFFFFFFFFFFFFFF AND DUP2 MSTORE PUSH1 0x20 ADD SWAP1 DUP2 MSTORE PUSH1 0x20 ADD PUSH1 0x0 KECCAK256 SLOAD GT SWAP1 POP SWAP1 JUMP JUMPDEST PUSH2 0x16BE PUSH2 0x257E JUMP JUMPDEST PUSH1 0x4 PUSH1 0x0 DUP4 DUP2 MSTORE PUSH1 0x20 ADD SWAP1 DUP2 MSTORE PUSH1 0x20 ADD PUSH1 0x0 KECCAK256 PUSH1 0x40 MLOAD DUP1 PUSH2 0x180 ADD PUSH1 0x40 MSTORE SWAP1 DUP2 PUSH1 0x0 DUP3 ADD SLOAD DUP2 MSTORE PUSH1 0x20 ADD PUSH1 0x1 DUP3 ADD SLOAD DUP2 MSTORE PUSH1 0x20 ADD PUSH1 0x2 DUP3 ADD SLOAD DUP2 MSTORE PUSH1 0x20 ADD PUSH1 0x3 DUP3 ADD SLOAD DUP2 MSTORE PUSH1 0x20 ADD PUSH1 0x4 DUP3 ADD SLOAD DUP2 MSTORE PUSH1 0x20 ADD PUSH1 0x5 DUP3 ADD DUP1 SLOAD PUSH2 0x171F SWAP1 PUSH2 0x34BC JUMP JUMPDEST DUP1 PUSH1 0x1F ADD PUSH1 0x20 DUP1 SWAP2 DIV MUL PUSH1 0x20 ADD PUSH1 0x40 MLOAD SWAP1 DUP2 ADD PUSH1 0x40 MSTORE DUP1 SWAP3 SWAP2 SWAP1 DUP2 DUP2 MSTORE PUSH1 0x20 ADD DUP3 DUP1 SLOAD PUSH2 0x174B SWAP1 PUSH2 0x34BC JUMP JUMPDEST DUP1 ISZERO PUSH2 0x1798 JUMPI DUP1 PUSH1 0x1F LT PUSH2 0x176D JUMPI PUSH2 0x100 DUP1 DUP4 SLOAD DIV MUL DUP4 MSTORE SWAP2 PUSH1 0x20 ADD SWAP2 PUSH2 0x1798 JUMP JUMPDEST DUP3 ADD SWAP2 SWAP1 PUSH1 0x0 MSTORE PUSH1 0x20 PUSH1 0x0 KECCAK256 SWAP1 JUMPDEST DUP2 SLOAD DUP2 MSTORE SWAP1 PUSH1 0x1 ADD SWAP1 PUSH1 0x20 ADD DUP1 DUP4 GT PUSH2 0x177B JUMPI DUP3 SWAP1 SUB PUSH1 0x1F AND DUP3 ADD SWAP2 JUMPDEST POP POP POP POP POP DUP2 MSTORE PUSH1 0x20 ADD PUSH1 0x6 DUP3 ADD DUP1 SLOAD PUSH2 0x17B1 SWAP1 PUSH2 0x34BC JUMP JUMPDEST DUP1 PUSH1 0x1F ADD PUSH1 0x20 DUP1 SWAP2 DIV MUL PUSH1 0x20 ADD PUSH1 0x40 MLOAD SWAP1 DUP2 ADD PUSH1 0x40 MSTORE DUP1 SWAP3 SWAP2 SWAP1 DUP2 DUP2 MSTORE PUSH1 0x20 ADD DUP3 DUP1 SLOAD PUSH2 0x17DD SWAP1 PUSH2 0x34BC JUMP JUMPDEST DUP1 ISZERO PUSH2 0x182A JUMPI DUP1 PUSH1 0x1F LT PUSH2 0x17FF JUMPI PUSH2 0x100 DUP1 DUP4 SLOAD DIV MUL DUP4 MSTORE SWAP2 PUSH1 0x20 ADD SWAP2 PUSH2 0x182A JUMP JUMPDEST DUP3 ADD SWAP2 SWAP1 PUSH1 0x0 MSTORE PUSH1 0x20 PUSH1 0x0 KECCAK256 SWAP1 JUMPDEST DUP2 SLOAD DUP2 MSTORE SWAP1 PUSH1 0x1 ADD SWAP1 PUSH1 0x20 ADD DUP1 DUP4 GT PUSH2 0x180D JUMPI DUP3 SWAP1 SUB PUSH1 0x1F AND DUP3 ADD SWAP2 JUMPDEST POP POP POP POP POP DUP2 MSTORE PUSH1 0x20 ADD PUSH1 0x7 DUP3 ADD PUSH1 0x0 SWAP1 SLOAD SWAP1 PUSH2 0x100 EXP SWAP1 DIV PUSH1 0xFF AND ISZERO ISZERO ISZERO ISZERO DUP2 MSTORE PUSH1 0x20 ADD PUSH1 0x7 DUP3 ADD PUSH1 0x1 SWAP1 SLOAD SWAP1 PUSH2 0x100 EXP SWAP1 DIV PUSH1 0xFF AND ISZERO ISZERO ISZERO ISZERO DUP2 MSTORE PUSH1 0x20 ADD PUSH1 0x7 DUP3 ADD PUSH1 0x2 SWAP1 SLOAD SWAP1 PUSH2 0x100 EXP SWAP1 DIV PUSH20 0xFFFFFFFFFFFFFFFFFFFFFFFFFFFFFFFFFFFFFFFF AND PUSH20 0xFFFFFFFFFFFFFFFFFFFFFFFFFFFFFFFFFFFFFFFF AND PUSH20 0xFFFFFFFFFFFFFFFFFFFFFFFFFFFFFFFFFFFFFFFF AND DUP2 MSTORE PUSH1 0x20 ADD PUSH1 0x8 DUP3 ADD PUSH1 0x0 SWAP1 SLOAD SWAP1 PUSH2 0x100 EXP SWAP1 DIV PUSH20 0xFFFFFFFFFFFFFFFFFFFFFFFFFFFFFFFFFFFFFFFF AND PUSH20 0xFFFFFFFFFFFFFFFFFFFFFFFFFFFFFFFFFFFFFFFF AND PUSH20 0xFFFFFFFFFFFFFFFFFFFFFFFFFFFFFFFFFFFFFFFF AND DUP2 MSTORE PUSH1 0x20 ADD PUSH1 0x9 DUP3 ADD PUSH1 0x0 SWAP1 SLOAD SWAP1 PUSH2 0x100 EXP SWAP1 DIV PUSH20 0xFFFFFFFFFFFFFFFFFFFFFFFFFFFFFFFFFFFFFFFF AND PUSH20 0xFFFFFFFFFFFFFFFFFFFFFFFFFFFFFFFFFFFFFFFF AND PUSH20 0xFFFFFFFFFFFFFFFFFFFFFFFFFFFFFFFFFFFFFFFF AND DUP2 MSTORE POP POP SWAP1 POP SWAP2 SWAP1 POP JUMP JUMPDEST PUSH2 0x197B DUP3 PUSH2 0x8E8 JUMP JUMPDEST PUSH2 0x1984 DUP2 PUSH2 0x1F24 JUMP JUMPDEST PUSH2 0x198E DUP4 DUP4 PUSH2 0x2020 JUMP JUMPDEST POP POP POP JUMP JUMPDEST PUSH1 0x0 CALLVALUE GT PUSH2 0x19D6 JUMPI PUSH1 0x40 MLOAD PUSH32 0x8C379A000000000000000000000000000000000000000000000000000000000 DUP2 MSTORE PUSH1 0x4 ADD PUSH2 0x19CD SWAP1 PUSH2 0x39D4 JUMP JUMPDEST PUSH1 0x40 MLOAD DUP1 SWAP2 SUB SWAP1 REVERT JUMPDEST PUSH2 0x1A00 PUSH32 0x0 CALLER PUSH2 0x14BC JUMP JUMPDEST PUSH2 0x1B6F JUMPI PUSH1 0x0 CALLVALUE PUSH1 0x7 PUSH1 0x0 CALLER PUSH20 0xFFFFFFFFFFFFFFFFFFFFFFFFFFFFFFFFFFFFFFFF AND PUSH20 0xFFFFFFFFFFFFFFFFFFFFFFFFFFFFFFFFFFFFFFFF AND DUP2 MSTORE PUSH1 0x20 ADD SWAP1 DUP2 MSTORE PUSH1 0x20 ADD PUSH1 0x0 KECCAK256 SLOAD PUSH2 0x1A51 SWAP2 SWAP1 PUSH2 0x37D6 JUMP JUMPDEST SWAP1 POP PUSH32 0x0 DUP2 LT PUSH2 0x1AE9 JUMPI DUP1 PUSH1 0x8 PUSH1 0x0 CALLER PUSH20 0xFFFFFFFFFFFFFFFFFFFFFFFFFFFFFFFFFFFFFFFF AND PUSH20 0xFFFFFFFFFFFFFFFFFFFFFFFFFFFFFFFFFFFFFFFF AND DUP2 MSTORE PUSH1 0x20 ADD SWAP1 DUP2 MSTORE PUSH1 0x20 ADD PUSH1 0x0 KECCAK256 DUP2 SWAP1 SSTORE POP PUSH2 0x1AE8 PUSH32 0x0 CALLER PUSH2 0x1F38 JUMP JUMPDEST JUMPDEST CALLVALUE PUSH1 0x7 PUSH1 0x0 CALLER PUSH20 0xFFFFFFFFFFFFFFFFFFFFFFFFFFFFFFFFFFFFFFFF AND PUSH20 0xFFFFFFFFFFFFFFFFFFFFFFFFFFFFFFFFFFFFFFFF AND DUP2 MSTORE PUSH1 0x20 ADD SWAP1 DUP2 MSTORE PUSH1 0x20 ADD PUSH1 0x0 KECCAK256 PUSH1 0x0 DUP3 DUP3 SLOAD PUSH2 0x1B38 SWAP2 SWAP1 PUSH2 0x37D6 JUMP JUMPDEST SWAP3 POP POP DUP2 SWAP1 SSTORE POP PUSH2 0x1B69 PUSH32 0x0 CALLER PUSH2 0x1F38 JUMP JUMPDEST POP PUSH2 0x1C1C JUMP JUMPDEST CALLVALUE PUSH1 0x7 PUSH1 0x0 CALLER PUSH20 0xFFFFFFFFFFFFFFFFFFFFFFFFFFFFFFFFFFFFFFFF AND PUSH20 0xFFFFFFFFFFFFFFFFFFFFFFFFFFFFFFFFFFFFFFFF AND DUP2 MSTORE PUSH1 0x20 ADD SWAP1 DUP2 MSTORE PUSH1 0x20 ADD PUSH1 0x0 KECCAK256 PUSH1 0x0 DUP3 DUP3 SLOAD PUSH2 0x1BBE SWAP2 SWAP1 PUSH2 0x37D6 JUMP JUMPDEST SWAP3 POP POP DUP2 SWAP1 SSTORE POP CALLVALUE PUSH1 0x8 PUSH1 0x0 CALLER PUSH20 0xFFFFFFFFFFFFFFFFFFFFFFFFFFFFFFFFFFFFFFFF AND PUSH20 0xFFFFFFFFFFFFFFFFFFFFFFFFFFFFFFFFFFFFFFFF AND DUP2 MSTORE PUSH1 0x20 ADD SWAP1 DUP2 MSTORE PUSH1 0x20 ADD PUSH1 0x0 KECCAK256 PUSH1 0x0 DUP3 DUP3 SLOAD PUSH2 0x1C14 SWAP2 SWAP1 PUSH2 0x37D6 JUMP JUMPDEST SWAP3 POP POP DUP2 SWAP1 SSTORE POP JUMPDEST CALLVALUE PUSH1 0x3 PUSH1 0x0 DUP3 DUP3 SLOAD PUSH2 0x1C2E SWAP2 SWAP1 PUSH2 0x37D6 JUMP JUMPDEST SWAP3 POP POP DUP2 SWAP1 SSTORE POP ADDRESS PUSH20 0xFFFFFFFFFFFFFFFFFFFFFFFFFFFFFFFFFFFFFFFF AND CALLER PUSH20 0xFFFFFFFFFFFFFFFFFFFFFFFFFFFFFFFFFFFFFFFF AND PUSH32 0xA596782D699D74613FCBF59D33E720BAABD313D6BE9C95E2268F305430305EB7 PUSH32 0x0 CALLVALUE PUSH1 0x40 MLOAD PUSH2 0x1CB4 SWAP3 SWAP2 SWAP1 PUSH2 0x3A40 JUMP JUMPDEST PUSH1 0x40 MLOAD DUP1 SWAP2 SUB SWAP1 LOG3 JUMP JUMPDEST PUSH1 0x0 PUSH1 0x40 MLOAD DUP1 PUSH1 0x40 ADD PUSH1 0x40 MSTORE DUP1 PUSH1 0x1C DUP2 MSTORE PUSH1 0x20 ADD PUSH32 0x556E617574686F72697A65643A206E6F7420612070726F706F73657200000000 DUP2 MSTORE POP PUSH2 0x1D20 PUSH32 0x0 CALLER PUSH2 0x14BC JUMP JUMPDEST DUP2 SWAP1 PUSH2 0x1D62 JUMPI PUSH1 0x40 MLOAD PUSH32 0x8C379A000000000000000000000000000000000000000000000000000000000 DUP2 MSTORE PUSH1 0x4 ADD PUSH2 0x1D59 SWAP2 SWAP1 PUSH2 0x31AA JUMP JUMPDEST PUSH1 0x40 MLOAD DUP1 SWAP2 SUB SWAP1 REVERT JUMPDEST POP PUSH1 0x8 PUSH1 0x0 CALLER PUSH20 0xFFFFFFFFFFFFFFFFFFFFFFFFFFFFFFFFFFFFFFFF AND PUSH20 0xFFFFFFFFFFFFFFFFFFFFFFFFFFFFFFFFFFFFFFFF AND DUP2 MSTORE PUSH1 0x20 ADD SWAP1 DUP2 MSTORE PUSH1 0x20 ADD PUSH1 0x0 KECCAK256 SLOAD SWAP2 POP POP SWAP1 JUMP JUMPDEST PUSH1 0x0 PUSH32 0x1FFC9A700000000000000000000000000000000000000000000000000000000 PUSH28 0xFFFFFFFFFFFFFFFFFFFFFFFFFFFFFFFFFFFFFFFFFFFFFFFFFFFFFFFF NOT AND DUP3 PUSH28 0xFFFFFFFFFFFFFFFFFFFFFFFFFFFFFFFFFFFFFFFFFFFFFFFFFFFFFFFF NOT AND EQ SWAP1 POP SWAP2 SWAP1 POP JUMP JUMPDEST PUSH1 0x2 PUSH1 0x0 SLOAD SUB PUSH2 0x1E58 JUMPI PUSH1 0x40 MLOAD PUSH32 0x8C379A000000000000000000000000000000000000000000000000000000000 DUP2 MSTORE PUSH1 0x4 ADD PUSH2 0x1E4F SWAP1 PUSH2 0x3AC8 JUMP JUMPDEST PUSH1 0x40 MLOAD DUP1 SWAP2 SUB SWAP1 REVERT JUMPDEST PUSH1 0x2 PUSH1 0x0 DUP2 SWAP1 SSTORE POP JUMP JUMPDEST PUSH1 0x0 DUP1 DUP4 PUSH20 0xFFFFFFFFFFFFFFFFFFFFFFFFFFFFFFFFFFFFFFFF AND DUP4 PUSH1 0x40 MLOAD PUSH2 0x1E89 SWAP1 PUSH2 0x3B19 JUMP JUMPDEST PUSH1 0x0 PUSH1 0x40 MLOAD DUP1 DUP4 SUB DUP2 DUP6 DUP8 GAS CALL SWAP3 POP POP POP RETURNDATASIZE DUP1 PUSH1 0x0 DUP2 EQ PUSH2 0x1EC6 JUMPI PUSH1 0x40 MLOAD SWAP2 POP PUSH1 0x1F NOT PUSH1 0x3F RETURNDATASIZE ADD AND DUP3 ADD PUSH1 0x40 MSTORE RETURNDATASIZE DUP3 MSTORE RETURNDATASIZE PUSH1 0x0 PUSH1 0x20 DUP5 ADD RETURNDATACOPY PUSH2 0x1ECB JUMP JUMPDEST PUSH1 0x60 SWAP2 POP JUMPDEST POP POP SWAP1 POP DUP1 PUSH2 0x1F0F JUMPI PUSH1 0x40 MLOAD PUSH32 0x8C379A000000000000000000000000000000000000000000000000000000000 DUP2 MSTORE PUSH1 0x4 ADD PUSH2 0x1F06 SWAP1 PUSH2 0x3B7A JUMP JUMPDEST PUSH1 0x40 MLOAD DUP1 SWAP2 SUB SWAP1 REVERT JUMPDEST PUSH1 0x1 SWAP2 POP POP SWAP3 SWAP2 POP POP JUMP JUMPDEST PUSH1 0x1 PUSH1 0x0 DUP2 SWAP1 SSTORE POP JUMP JUMPDEST PUSH2 0x1F35 DUP2 PUSH2 0x1F30 PUSH2 0x2018 JUMP JUMPDEST PUSH2 0x2290 JUMP JUMPDEST POP JUMP JUMPDEST PUSH2 0x1F42 DUP3 DUP3 PUSH2 0x14BC JUMP JUMPDEST PUSH2 0x2014 JUMPI PUSH1 0x1 DUP1 PUSH1 0x0 DUP5 DUP2 MSTORE PUSH1 0x20 ADD SWAP1 DUP2 MSTORE PUSH1 0x20 ADD PUSH1 0x0 KECCAK256 PUSH1 0x0 ADD PUSH1 0x0 DUP4 PUSH20 0xFFFFFFFFFFFFFFFFFFFFFFFFFFFFFFFFFFFFFFFF AND PUSH20 0xFFFFFFFFFFFFFFFFFFFFFFFFFFFFFFFFFFFFFFFF AND DUP2 MSTORE PUSH1 0x20 ADD SWAP1 DUP2 MSTORE PUSH1 0x20 ADD PUSH1 0x0 KECCAK256 PUSH1 0x0 PUSH2 0x100 EXP DUP2 SLOAD DUP2 PUSH1 0xFF MUL NOT AND SWAP1 DUP4 ISZERO ISZERO MUL OR SWAP1 SSTORE POP PUSH2 0x1FB9 PUSH2 0x2018 JUMP JUMPDEST PUSH20 0xFFFFFFFFFFFFFFFFFFFFFFFFFFFFFFFFFFFFFFFF AND DUP2 PUSH20 0xFFFFFFFFFFFFFFFFFFFFFFFFFFFFFFFFFFFFFFFF AND DUP4 PUSH32 0x2F8788117E7EFF1D82E926EC794901D17C78024A50270940304540A733656F0D PUSH1 0x40 MLOAD PUSH1 0x40 MLOAD DUP1 SWAP2 SUB SWAP1 LOG4 JUMPDEST POP POP JUMP JUMPDEST PUSH1 0x0 CALLER SWAP1 POP SWAP1 JUMP JUMPDEST PUSH2 0x202A DUP3 DUP3 PUSH2 0x14BC JUMP JUMPDEST ISZERO PUSH2 0x20FE JUMPI PUSH1 0x0 PUSH1 0x1 PUSH1 0x0 DUP5 DUP2 MSTORE PUSH1 0x20 ADD SWAP1 DUP2 MSTORE PUSH1 0x20 ADD PUSH1 0x0 KECCAK256 PUSH1 0x0 ADD PUSH1 0x0 DUP4 PUSH20 0xFFFFFFFFFFFFFFFFFFFFFFFFFFFFFFFFFFFFFFFF AND PUSH20 0xFFFFFFFFFFFFFFFFFFFFFFFFFFFFFFFFFFFFFFFF AND DUP2 MSTORE PUSH1 0x20 ADD SWAP1 DUP2 MSTORE PUSH1 0x20 ADD PUSH1 0x0 KECCAK256 PUSH1 0x0 PUSH2 0x100 EXP DUP2 SLOAD DUP2 PUSH1 0xFF MUL NOT AND SWAP1 DUP4 ISZERO ISZERO MUL OR SWAP1 SSTORE POP PUSH2 0x20A3 PUSH2 0x2018 JUMP JUMPDEST PUSH20 0xFFFFFFFFFFFFFFFFFFFFFFFFFFFFFFFFFFFFFFFF AND DUP2 PUSH20 0xFFFFFFFFFFFFFFFFFFFFFFFFFFFFFFFFFFFFFFFF AND DUP4 PUSH32 0xF6391F5C32D9C69D2A47EA670B442974B53935D1EDC7FD64EB21E047A839171B PUSH1 0x40 MLOAD PUSH1 0x40 MLOAD DUP1 SWAP2 SUB SWAP1 LOG4 JUMPDEST POP POP JUMP JUMPDEST DUP1 PUSH1 0x7 ADD PUSH1 0x0 SWAP1 SLOAD SWAP1 PUSH2 0x100 EXP SWAP1 DIV PUSH1 0xFF AND DUP1 PUSH2 0x2123 JUMPI POP TIMESTAMP DUP2 PUSH1 0x2 ADD SLOAD GT ISZERO JUMPDEST ISZERO PUSH2 0x2180 JUMPI PUSH1 0x1 DUP2 PUSH1 0x7 ADD PUSH1 0x0 PUSH2 0x100 EXP DUP2 SLOAD DUP2 PUSH1 0xFF MUL NOT AND SWAP1 DUP4 ISZERO ISZERO MUL OR SWAP1 SSTORE POP PUSH1 0x40 MLOAD PUSH32 0x8C379A000000000000000000000000000000000000000000000000000000000 DUP2 MSTORE PUSH1 0x4 ADD PUSH2 0x2177 SWAP1 PUSH2 0x3BE6 JUMP JUMPDEST PUSH1 0x40 MLOAD DUP1 SWAP2 SUB SWAP1 REVERT JUMPDEST PUSH1 0x0 PUSH1 0x5 PUSH1 0x0 CALLER PUSH20 0xFFFFFFFFFFFFFFFFFFFFFFFFFFFFFFFFFFFFFFFF AND PUSH20 0xFFFFFFFFFFFFFFFFFFFFFFFFFFFFFFFFFFFFFFFF AND DUP2 MSTORE PUSH1 0x20 ADD SWAP1 DUP2 MSTORE PUSH1 0x20 ADD PUSH1 0x0 KECCAK256 DUP1 SLOAD DUP1 PUSH1 0x20 MUL PUSH1 0x20 ADD PUSH1 0x40 MLOAD SWAP1 DUP2 ADD PUSH1 0x40 MSTORE DUP1 SWAP3 SWAP2 SWAP1 DUP2 DUP2 MSTORE PUSH1 0x20 ADD DUP3 DUP1 SLOAD DUP1 ISZERO PUSH2 0x220B JUMPI PUSH1 0x20 MUL DUP3 ADD SWAP2 SWAP1 PUSH1 0x0 MSTORE PUSH1 0x20 PUSH1 0x0 KECCAK256 SWAP1 JUMPDEST DUP2 SLOAD DUP2 MSTORE PUSH1 0x20 ADD SWAP1 PUSH1 0x1 ADD SWAP1 DUP1 DUP4 GT PUSH2 0x21F7 JUMPI JUMPDEST POP POP POP POP POP SWAP1 POP PUSH1 0x0 JUMPDEST DUP2 MLOAD DUP2 LT ISZERO PUSH2 0x228B JUMPI DUP2 DUP2 DUP2 MLOAD DUP2 LT PUSH2 0x2231 JUMPI PUSH2 0x2230 PUSH2 0x34ED JUMP JUMPDEST JUMPDEST PUSH1 0x20 MUL PUSH1 0x20 ADD ADD MLOAD DUP4 PUSH1 0x0 ADD SLOAD SUB PUSH2 0x227E JUMPI PUSH1 0x40 MLOAD PUSH32 0x8C379A000000000000000000000000000000000000000000000000000000000 DUP2 MSTORE PUSH1 0x4 ADD PUSH2 0x2275 SWAP1 PUSH2 0x3C52 JUMP JUMPDEST PUSH1 0x40 MLOAD DUP1 SWAP2 SUB SWAP1 REVERT JUMPDEST DUP1 DUP1 PUSH1 0x1 ADD SWAP2 POP POP PUSH2 0x2215 JUMP JUMPDEST POP POP POP JUMP JUMPDEST PUSH2 0x229A DUP3 DUP3 PUSH2 0x14BC JUMP JUMPDEST PUSH2 0x2311 JUMPI PUSH2 0x22A7 DUP2 PUSH2 0x2315 JUMP JUMPDEST PUSH2 0x22B5 DUP4 PUSH1 0x0 SHR PUSH1 0x20 PUSH2 0x2342 JUMP JUMPDEST PUSH1 0x40 MLOAD PUSH1 0x20 ADD PUSH2 0x22C6 SWAP3 SWAP2 SWAP1 PUSH2 0x3D46 JUMP JUMPDEST PUSH1 0x40 MLOAD PUSH1 0x20 DUP2 DUP4 SUB SUB DUP2 MSTORE SWAP1 PUSH1 0x40 MSTORE PUSH1 0x40 MLOAD PUSH32 0x8C379A000000000000000000000000000000000000000000000000000000000 DUP2 MSTORE PUSH1 0x4 ADD PUSH2 0x2308 SWAP2 SWAP1 PUSH2 0x31AA JUMP JUMPDEST PUSH1 0x40 MLOAD DUP1 SWAP2 SUB SWAP1 REVERT JUMPDEST POP POP JUMP JUMPDEST PUSH1 0x60 PUSH2 0x233B DUP3 PUSH20 0xFFFFFFFFFFFFFFFFFFFFFFFFFFFFFFFFFFFFFFFF AND PUSH1 0x14 PUSH1 0xFF AND PUSH2 0x2342 JUMP JUMPDEST SWAP1 POP SWAP2 SWAP1 POP JUMP JUMPDEST PUSH1 0x60 PUSH1 0x0 PUSH1 0x2 DUP4 PUSH1 0x2 PUSH2 0x2355 SWAP2 SWAP1 PUSH2 0x3D80 JUMP JUMPDEST PUSH2 0x235F SWAP2 SWAP1 PUSH2 0x37D6 JUMP JUMPDEST PUSH8 0xFFFFFFFFFFFFFFFF DUP2 GT ISZERO PUSH2 0x2378 JUMPI PUSH2 0x2377 PUSH2 0x2CCF JUMP JUMPDEST JUMPDEST PUSH1 0x40 MLOAD SWAP1 DUP1 DUP3 MSTORE DUP1 PUSH1 0x1F ADD PUSH1 0x1F NOT AND PUSH1 0x20 ADD DUP3 ADD PUSH1 0x40 MSTORE DUP1 ISZERO PUSH2 0x23AA JUMPI DUP2 PUSH1 0x20 ADD PUSH1 0x1 DUP3 MUL DUP1 CALLDATASIZE DUP4 CALLDATACOPY DUP1 DUP3 ADD SWAP2 POP POP SWAP1 POP JUMPDEST POP SWAP1 POP PUSH32 0x3000000000000000000000000000000000000000000000000000000000000000 DUP2 PUSH1 0x0 DUP2 MLOAD DUP2 LT PUSH2 0x23E2 JUMPI PUSH2 0x23E1 PUSH2 0x34ED JUMP JUMPDEST JUMPDEST PUSH1 0x20 ADD ADD SWAP1 PUSH31 0xFFFFFFFFFFFFFFFFFFFFFFFFFFFFFFFFFFFFFFFFFFFFFFFFFFFFFFFFFFFFFF NOT AND SWAP1 DUP2 PUSH1 0x0 BYTE SWAP1 MSTORE8 POP PUSH32 0x7800000000000000000000000000000000000000000000000000000000000000 DUP2 PUSH1 0x1 DUP2 MLOAD DUP2 LT PUSH2 0x2446 JUMPI PUSH2 0x2445 PUSH2 0x34ED JUMP JUMPDEST JUMPDEST PUSH1 0x20 ADD ADD SWAP1 PUSH31 0xFFFFFFFFFFFFFFFFFFFFFFFFFFFFFFFFFFFFFFFFFFFFFFFFFFFFFFFFFFFFFF NOT AND SWAP1 DUP2 PUSH1 0x0 BYTE SWAP1 MSTORE8 POP PUSH1 0x0 PUSH1 0x1 DUP5 PUSH1 0x2 PUSH2 0x2486 SWAP2 SWAP1 PUSH2 0x3D80 JUMP JUMPDEST PUSH2 0x2490 SWAP2 SWAP1 PUSH2 0x37D6 JUMP JUMPDEST SWAP1 POP JUMPDEST PUSH1 0x1 DUP2 GT ISZERO PUSH2 0x2530 JUMPI PUSH32 0x3031323334353637383961626364656600000000000000000000000000000000 PUSH1 0xF DUP7 AND PUSH1 0x10 DUP2 LT PUSH2 0x24D2 JUMPI PUSH2 0x24D1 PUSH2 0x34ED JUMP JUMPDEST JUMPDEST BYTE PUSH1 0xF8 SHL DUP3 DUP3 DUP2 MLOAD DUP2 LT PUSH2 0x24E9 JUMPI PUSH2 0x24E8 PUSH2 0x34ED JUMP JUMPDEST JUMPDEST PUSH1 0x20 ADD ADD SWAP1 PUSH31 0xFFFFFFFFFFFFFFFFFFFFFFFFFFFFFFFFFFFFFFFFFFFFFFFFFFFFFFFFFFFFFF NOT AND SWAP1 DUP2 PUSH1 0x0 BYTE SWAP1 MSTORE8 POP PUSH1 0x4 DUP6 SWAP1 SHR SWAP5 POP DUP1 PUSH2 0x2529 SWAP1 PUSH2 0x3DC2 JUMP JUMPDEST SWAP1 POP PUSH2 0x2493 JUMP JUMPDEST POP PUSH1 0x0 DUP5 EQ PUSH2 0x2574 JUMPI PUSH1 0x40 MLOAD PUSH32 0x8C379A000000000000000000000000000000000000000000000000000000000 DUP2 MSTORE PUSH1 0x4 ADD PUSH2 0x256B SWAP1 PUSH2 0x3E37 JUMP JUMPDEST PUSH1 0x40 MLOAD DUP1 SWAP2 SUB SWAP1 REVERT JUMPDEST DUP1 SWAP2 POP POP SWAP3 SWAP2 POP POP JUMP JUMPDEST PUSH1 0x40 MLOAD DUP1 PUSH2 0x180 ADD PUSH1 0x40 MSTORE DUP1 PUSH1 0x0 DUP2 MSTORE PUSH1 0x20 ADD PUSH1 0x0 DUP2 MSTORE PUSH1 0x20 ADD PUSH1 0x0 DUP2 MSTORE PUSH1 0x20 ADD PUSH1 0x0 DUP2 MSTORE PUSH1 0x20 ADD PUSH1 0x0 DUP2 MSTORE PUSH1 0x20 ADD PUSH1 0x60 DUP2 MSTORE PUSH1 0x20 ADD PUSH1 0x60 DUP2 MSTORE PUSH1 0x20 ADD PUSH1 0x0 ISZERO ISZERO DUP2 MSTORE PUSH1 0x20 ADD PUSH1 0x0 ISZERO ISZERO DUP2 MSTORE PUSH1 0x20 ADD PUSH1 0x0 PUSH20 0xFFFFFFFFFFFFFFFFFFFFFFFFFFFFFFFFFFFFFFFF AND DUP2 MSTORE PUSH1 0x20 ADD PUSH1 0x0 PUSH20 0xFFFFFFFFFFFFFFFFFFFFFFFFFFFFFFFFFFFFFFFF AND DUP2 MSTORE PUSH1 0x20 ADD PUSH1 0x0 PUSH20 0xFFFFFFFFFFFFFFFFFFFFFFFFFFFFFFFFFFFFFFFF AND DUP2 MSTORE POP SWAP1 JUMP JUMPDEST PUSH1 0x40 MLOAD DUP1 PUSH1 0x60 ADD PUSH1 0x40 MSTORE DUP1 PUSH1 0x0 PUSH20 0xFFFFFFFFFFFFFFFFFFFFFFFFFFFFFFFFFFFFFFFF AND DUP2 MSTORE PUSH1 0x20 ADD PUSH1 0x0 DUP2 MSTORE PUSH1 0x20 ADD PUSH1 0x0 ISZERO ISZERO DUP2 MSTORE POP SWAP1 JUMP JUMPDEST PUSH1 0x0 PUSH1 0x40 MLOAD SWAP1 POP SWAP1 JUMP JUMPDEST PUSH1 0x0 DUP1 REVERT JUMPDEST PUSH1 0x0 DUP1 REVERT JUMPDEST PUSH1 0x0 PUSH32 0xFFFFFFFF00000000000000000000000000000000000000000000000000000000 DUP3 AND SWAP1 POP SWAP2 SWAP1 POP JUMP JUMPDEST PUSH2 0x26A7 DUP2 PUSH2 0x2672 JUMP JUMPDEST DUP2 EQ PUSH2 0x26B2 JUMPI PUSH1 0x0 DUP1 REVERT JUMPDEST POP JUMP JUMPDEST PUSH1 0x0 DUP2 CALLDATALOAD SWAP1 POP PUSH2 0x26C4 DUP2 PUSH2 0x269E JUMP JUMPDEST SWAP3 SWAP2 POP POP JUMP JUMPDEST PUSH1 0x0 PUSH1 0x20 DUP3 DUP5 SUB SLT ISZERO PUSH2 0x26E0 JUMPI PUSH2 0x26DF PUSH2 0x2668 JUMP JUMPDEST JUMPDEST PUSH1 0x0 PUSH2 0x26EE DUP5 DUP3 DUP6 ADD PUSH2 0x26B5 JUMP JUMPDEST SWAP2 POP POP SWAP3 SWAP2 POP POP JUMP JUMPDEST PUSH1 0x0 DUP2 ISZERO ISZERO SWAP1 POP SWAP2 SWAP1 POP JUMP JUMPDEST PUSH2 0x270C DUP2 PUSH2 0x26F7 JUMP JUMPDEST DUP3 MSTORE POP POP JUMP JUMPDEST PUSH1 0x0 PUSH1 0x20 DUP3 ADD SWAP1 POP PUSH2 0x2727 PUSH1 0x0 DUP4 ADD DUP5 PUSH2 0x2703 JUMP JUMPDEST SWAP3 SWAP2 POP POP JUMP JUMPDEST PUSH1 0x0 DUP2 SWAP1 POP SWAP2 SWAP1 POP JUMP JUMPDEST PUSH2 0x2740 DUP2 PUSH2 0x272D JUMP JUMPDEST DUP2 EQ PUSH2 0x274B JUMPI PUSH1 0x0 DUP1 REVERT JUMPDEST POP JUMP JUMPDEST PUSH1 0x0 DUP2 CALLDATALOAD SWAP1 POP PUSH2 0x275D DUP2 PUSH2 0x2737 JUMP JUMPDEST SWAP3 SWAP2 POP POP JUMP JUMPDEST PUSH1 0x0 PUSH1 0x20 DUP3 DUP5 SUB SLT ISZERO PUSH2 0x2779 JUMPI PUSH2 0x2778 PUSH2 0x2668 JUMP JUMPDEST JUMPDEST PUSH1 0x0 PUSH2 0x2787 DUP5 DUP3 DUP6 ADD PUSH2 0x274E JUMP JUMPDEST SWAP2 POP POP SWAP3 SWAP2 POP POP JUMP JUMPDEST PUSH2 0x2799 DUP2 PUSH2 0x272D JUMP JUMPDEST DUP3 MSTORE POP POP JUMP JUMPDEST PUSH1 0x0 PUSH1 0x20 DUP3 ADD SWAP1 POP PUSH2 0x27B4 PUSH1 0x0 DUP4 ADD DUP5 PUSH2 0x2790 JUMP JUMPDEST SWAP3 SWAP2 POP POP JUMP JUMPDEST PUSH1 0x0 DUP2 SWAP1 POP SWAP2 SWAP1 POP JUMP JUMPDEST PUSH2 0x27CD DUP2 PUSH2 0x27BA JUMP JUMPDEST DUP2 EQ PUSH2 0x27D8 JUMPI PUSH1 0x0 DUP1 REVERT JUMPDEST POP JUMP JUMPDEST PUSH1 0x0 DUP2 CALLDATALOAD SWAP1 POP PUSH2 0x27EA DUP2 PUSH2 0x27C4 JUMP JUMPDEST SWAP3 SWAP2 POP POP JUMP JUMPDEST PUSH1 0x0 PUSH1 0x20 DUP3 DUP5 SUB SLT ISZERO PUSH2 0x2806 JUMPI PUSH2 0x2805 PUSH2 0x2668 JUMP JUMPDEST JUMPDEST PUSH1 0x0 PUSH2 0x2814 DUP5 DUP3 DUP6 ADD PUSH2 0x27DB JUMP JUMPDEST SWAP2 POP POP SWAP3 SWAP2 POP POP JUMP JUMPDEST PUSH2 0x2826 DUP2 PUSH2 0x27BA JUMP JUMPDEST DUP3 MSTORE POP POP JUMP JUMPDEST PUSH1 0x0 PUSH1 0x20 DUP3 ADD SWAP1 POP PUSH2 0x2841 PUSH1 0x0 DUP4 ADD DUP5 PUSH2 0x281D JUMP JUMPDEST SWAP3 SWAP2 POP POP JUMP JUMPDEST PUSH1 0x0 PUSH20 0xFFFFFFFFFFFFFFFFFFFFFFFFFFFFFFFFFFFFFFFF DUP3 AND SWAP1 POP SWAP2 SWAP1 POP JUMP JUMPDEST PUSH1 0x0 PUSH2 0x2872 DUP3 PUSH2 0x2847 JUMP JUMPDEST SWAP1 POP SWAP2 SWAP1 POP JUMP JUMPDEST PUSH2 0x2882 DUP2 PUSH2 0x2867 JUMP JUMPDEST DUP2 EQ PUSH2 0x288D JUMPI PUSH1 0x0 DUP1 REVERT JUMPDEST POP JUMP JUMPDEST PUSH1 0x0 DUP2 CALLDATALOAD SWAP1 POP PUSH2 0x289F DUP2 PUSH2 0x2879 JUMP JUMPDEST SWAP3 SWAP2 POP POP JUMP JUMPDEST PUSH1 0x0 DUP1 PUSH1 0x40 DUP4 DUP6 SUB SLT ISZERO PUSH2 0x28BC JUMPI PUSH2 0x28BB PUSH2 0x2668 JUMP JUMPDEST JUMPDEST PUSH1 0x0 PUSH2 0x28CA DUP6 DUP3 DUP7 ADD PUSH2 0x27DB JUMP JUMPDEST SWAP3 POP POP PUSH1 0x20 PUSH2 0x28DB DUP6 DUP3 DUP7 ADD PUSH2 0x2890 JUMP JUMPDEST SWAP2 POP POP SWAP3 POP SWAP3 SWAP1 POP JUMP JUMPDEST PUSH1 0x0 DUP2 MLOAD SWAP1 POP SWAP2 SWAP1 POP JUMP JUMPDEST PUSH1 0x0 DUP3 DUP3 MSTORE PUSH1 0x20 DUP3 ADD SWAP1 POP SWAP3 SWAP2 POP POP JUMP JUMPDEST PUSH1 0x0 DUP2 SWAP1 POP PUSH1 0x20 DUP3 ADD SWAP1 POP SWAP2 SWAP1 POP JUMP JUMPDEST PUSH2 0x291A DUP2 PUSH2 0x272D JUMP JUMPDEST DUP3 MSTORE POP POP JUMP JUMPDEST PUSH1 0x0 DUP2 MLOAD SWAP1 POP SWAP2 SWAP1 POP JUMP JUMPDEST PUSH1 0x0 DUP3 DUP3 MSTORE PUSH1 0x20 DUP3 ADD SWAP1 POP SWAP3 SWAP2 POP POP JUMP JUMPDEST PUSH1 0x0 JUMPDEST DUP4 DUP2 LT ISZERO PUSH2 0x295A JUMPI DUP1 DUP3 ADD MLOAD DUP2 DUP5 ADD MSTORE PUSH1 0x20 DUP2 ADD SWAP1 POP PUSH2 0x293F JUMP JUMPDEST PUSH1 0x0 DUP5 DUP5 ADD MSTORE POP POP POP POP JUMP JUMPDEST PUSH1 0x0 PUSH1 0x1F NOT PUSH1 0x1F DUP4 ADD AND SWAP1 POP SWAP2 SWAP1 POP JUMP JUMPDEST PUSH1 0x0 PUSH2 0x2982 DUP3 PUSH2 0x2920 JUMP JUMPDEST PUSH2 0x298C DUP2 DUP6 PUSH2 0x292B JUMP JUMPDEST SWAP4 POP PUSH2 0x299C DUP2 DUP6 PUSH1 0x20 DUP7 ADD PUSH2 0x293C JUMP JUMPDEST PUSH2 0x29A5 DUP2 PUSH2 0x2966 JUMP JUMPDEST DUP5 ADD SWAP2 POP POP SWAP3 SWAP2 POP POP JUMP JUMPDEST PUSH2 0x29B9 DUP2 PUSH2 0x26F7 JUMP JUMPDEST DUP3 MSTORE POP POP JUMP JUMPDEST PUSH1 0x0 PUSH2 0x29CA DUP3 PUSH2 0x2847 JUMP JUMPDEST SWAP1 POP SWAP2 SWAP1 POP JUMP JUMPDEST PUSH2 0x29DA DUP2 PUSH2 0x29BF JUMP JUMPDEST DUP3 MSTORE POP POP JUMP JUMPDEST PUSH2 0x29E9 DUP2 PUSH2 0x2867 JUMP JUMPDEST DUP3 MSTORE POP POP JUMP JUMPDEST PUSH1 0x0 PUSH2 0x180 DUP4 ADD PUSH1 0x0 DUP4 ADD MLOAD PUSH2 0x2A08 PUSH1 0x0 DUP7 ADD DUP3 PUSH2 0x2911 JUMP JUMPDEST POP PUSH1 0x20 DUP4 ADD MLOAD PUSH2 0x2A1B PUSH1 0x20 DUP7 ADD DUP3 PUSH2 0x2911 JUMP JUMPDEST POP PUSH1 0x40 DUP4 ADD MLOAD PUSH2 0x2A2E PUSH1 0x40 DUP7 ADD DUP3 PUSH2 0x2911 JUMP JUMPDEST POP PUSH1 0x60 DUP4 ADD MLOAD PUSH2 0x2A41 PUSH1 0x60 DUP7 ADD DUP3 PUSH2 0x2911 JUMP JUMPDEST POP PUSH1 0x80 DUP4 ADD MLOAD PUSH2 0x2A54 PUSH1 0x80 DUP7 ADD DUP3 PUSH2 0x2911 JUMP JUMPDEST POP PUSH1 0xA0 DUP4 ADD MLOAD DUP5 DUP3 SUB PUSH1 0xA0 DUP7 ADD MSTORE PUSH2 0x2A6C DUP3 DUP3 PUSH2 0x2977 JUMP JUMPDEST SWAP2 POP POP PUSH1 0xC0 DUP4 ADD MLOAD DUP5 DUP3 SUB PUSH1 0xC0 DUP7 ADD MSTORE PUSH2 0x2A86 DUP3 DUP3 PUSH2 0x2977 JUMP JUMPDEST SWAP2 POP POP PUSH1 0xE0 DUP4 ADD MLOAD PUSH2 0x2A9B PUSH1 0xE0 DUP7 ADD DUP3 PUSH2 0x29B0 JUMP JUMPDEST POP PUSH2 0x100 DUP4 ADD MLOAD PUSH2 0x2AB0 PUSH2 0x100 DUP7 ADD DUP3 PUSH2 0x29B0 JUMP JUMPDEST POP PUSH2 0x120 DUP4 ADD MLOAD PUSH2 0x2AC5 PUSH2 0x120 DUP7 ADD DUP3 PUSH2 0x29D1 JUMP JUMPDEST POP PUSH2 0x140 DUP4 ADD MLOAD PUSH2 0x2ADA PUSH2 0x140 DUP7 ADD DUP3 PUSH2 0x29E0 JUMP JUMPDEST POP PUSH2 0x160 DUP4 ADD MLOAD PUSH2 0x2AEF PUSH2 0x160 DUP7 ADD DUP3 PUSH2 0x29E0 JUMP JUMPDEST POP DUP1 SWAP2 POP POP SWAP3 SWAP2 POP POP JUMP JUMPDEST PUSH1 0x0 PUSH2 0x2B06 DUP4 DUP4 PUSH2 0x29EF JUMP JUMPDEST SWAP1 POP SWAP3 SWAP2 POP POP JUMP JUMPDEST PUSH1 0x0 PUSH1 0x20 DUP3 ADD SWAP1 POP SWAP2 SWAP1 POP JUMP JUMPDEST PUSH1 0x0 PUSH2 0x2B26 DUP3 PUSH2 0x28E5 JUMP JUMPDEST PUSH2 0x2B30 DUP2 DUP6 PUSH2 0x28F0 JUMP JUMPDEST SWAP4 POP DUP4 PUSH1 0x20 DUP3 MUL DUP6 ADD PUSH2 0x2B42 DUP6 PUSH2 0x2901 JUMP JUMPDEST DUP1 PUSH1 0x0 JUMPDEST DUP6 DUP2 LT ISZERO PUSH2 0x2B7E JUMPI DUP5 DUP5 SUB DUP10 MSTORE DUP2 MLOAD PUSH2 0x2B5F DUP6 DUP3 PUSH2 0x2AFA JUMP JUMPDEST SWAP5 POP PUSH2 0x2B6A DUP4 PUSH2 0x2B0E JUMP JUMPDEST SWAP3 POP PUSH1 0x20 DUP11 ADD SWAP10 POP POP PUSH1 0x1 DUP2 ADD SWAP1 POP PUSH2 0x2B46 JUMP JUMPDEST POP DUP3 SWAP8 POP DUP8 SWAP6 POP POP POP POP POP POP SWAP3 SWAP2 POP POP JUMP JUMPDEST PUSH1 0x0 PUSH1 0x20 DUP3 ADD SWAP1 POP DUP2 DUP2 SUB PUSH1 0x0 DUP4 ADD MSTORE PUSH2 0x2BAA DUP2 DUP5 PUSH2 0x2B1B JUMP JUMPDEST SWAP1 POP SWAP3 SWAP2 POP POP JUMP JUMPDEST PUSH1 0x0 DUP2 MLOAD SWAP1 POP SWAP2 SWAP1 POP JUMP JUMPDEST PUSH1 0x0 DUP3 DUP3 MSTORE PUSH1 0x20 DUP3 ADD SWAP1 POP SWAP3 SWAP2 POP POP JUMP JUMPDEST PUSH1 0x0 DUP2 SWAP1 POP PUSH1 0x20 DUP3 ADD SWAP1 POP SWAP2 SWAP1 POP JUMP JUMPDEST PUSH1 0x60 DUP3 ADD PUSH1 0x0 DUP3 ADD MLOAD PUSH2 0x2BF4 PUSH1 0x0 DUP6 ADD DUP3 PUSH2 0x29E0 JUMP JUMPDEST POP PUSH1 0x20 DUP3 ADD MLOAD PUSH2 0x2C07 PUSH1 0x20 DUP6 ADD DUP3 PUSH2 0x2911 JUMP JUMPDEST POP PUSH1 0x40 DUP3 ADD MLOAD PUSH2 0x2C1A PUSH1 0x40 DUP6 ADD DUP3 PUSH2 0x29B0 JUMP JUMPDEST POP POP POP POP JUMP JUMPDEST PUSH1 0x0 PUSH2 0x2C2C DUP4 DUP4 PUSH2 0x2BDE JUMP JUMPDEST PUSH1 0x60 DUP4 ADD SWAP1 POP SWAP3 SWAP2 POP POP JUMP JUMPDEST PUSH1 0x0 PUSH1 0x20 DUP3 ADD SWAP1 POP SWAP2 SWAP1 POP JUMP JUMPDEST PUSH1 0x0 PUSH2 0x2C50 DUP3 PUSH2 0x2BB2 JUMP JUMPDEST PUSH2 0x2C5A DUP2 DUP6 PUSH2 0x2BBD JUMP JUMPDEST SWAP4 POP PUSH2 0x2C65 DUP4 PUSH2 0x2BCE JUMP JUMPDEST DUP1 PUSH1 0x0 JUMPDEST DUP4 DUP2 LT ISZERO PUSH2 0x2C96 JUMPI DUP2 MLOAD PUSH2 0x2C7D DUP9 DUP3 PUSH2 0x2C20 JUMP JUMPDEST SWAP8 POP PUSH2 0x2C88 DUP4 PUSH2 0x2C38 JUMP JUMPDEST SWAP3 POP POP PUSH1 0x1 DUP2 ADD SWAP1 POP PUSH2 0x2C69 JUMP JUMPDEST POP DUP6 SWAP4 POP POP POP POP SWAP3 SWAP2 POP POP JUMP JUMPDEST PUSH1 0x0 PUSH1 0x20 DUP3 ADD SWAP1 POP DUP2 DUP2 SUB PUSH1 0x0 DUP4 ADD MSTORE PUSH2 0x2CBD DUP2 DUP5 PUSH2 0x2C45 JUMP JUMPDEST SWAP1 POP SWAP3 SWAP2 POP POP JUMP JUMPDEST PUSH1 0x0 DUP1 REVERT JUMPDEST PUSH1 0x0 DUP1 REVERT JUMPDEST PUSH32 0x4E487B7100000000000000000000000000000000000000000000000000000000 PUSH1 0x0 MSTORE PUSH1 0x41 PUSH1 0x4 MSTORE PUSH1 0x24 PUSH1 0x0 REVERT JUMPDEST PUSH2 0x2D07 DUP3 PUSH2 0x2966 JUMP JUMPDEST DUP2 ADD DUP2 DUP2 LT PUSH8 0xFFFFFFFFFFFFFFFF DUP3 GT OR ISZERO PUSH2 0x2D26 JUMPI PUSH2 0x2D25 PUSH2 0x2CCF JUMP JUMPDEST JUMPDEST DUP1 PUSH1 0x40 MSTORE POP POP POP JUMP JUMPDEST PUSH1 0x0 PUSH2 0x2D39 PUSH2 0x265E JUMP JUMPDEST SWAP1 POP PUSH2 0x2D45 DUP3 DUP3 PUSH2 0x2CFE JUMP JUMPDEST SWAP2 SWAP1 POP JUMP JUMPDEST PUSH1 0x0 PUSH8 0xFFFFFFFFFFFFFFFF DUP3 GT ISZERO PUSH2 0x2D65 JUMPI PUSH2 0x2D64 PUSH2 0x2CCF JUMP JUMPDEST JUMPDEST PUSH2 0x2D6E DUP3 PUSH2 0x2966 JUMP JUMPDEST SWAP1 POP PUSH1 0x20 DUP2 ADD SWAP1 POP SWAP2 SWAP1 POP JUMP JUMPDEST DUP3 DUP2 DUP4 CALLDATACOPY PUSH1 0x0 DUP4 DUP4 ADD MSTORE POP POP POP JUMP JUMPDEST PUSH1 0x0 PUSH2 0x2D9D PUSH2 0x2D98 DUP5 PUSH2 0x2D4A JUMP JUMPDEST PUSH2 0x2D2F JUMP JUMPDEST SWAP1 POP DUP3 DUP2 MSTORE PUSH1 0x20 DUP2 ADD DUP5 DUP5 DUP5 ADD GT ISZERO PUSH2 0x2DB9 JUMPI PUSH2 0x2DB8 PUSH2 0x2CCA JUMP JUMPDEST JUMPDEST PUSH2 0x2DC4 DUP5 DUP3 DUP6 PUSH2 0x2D7B JUMP JUMPDEST POP SWAP4 SWAP3 POP POP POP JUMP JUMPDEST PUSH1 0x0 DUP3 PUSH1 0x1F DUP4 ADD SLT PUSH2 0x2DE1 JUMPI PUSH2 0x2DE0 PUSH2 0x2CC5 JUMP JUMPDEST JUMPDEST DUP2 CALLDATALOAD PUSH2 0x2DF1 DUP5 DUP3 PUSH1 0x20 DUP7 ADD PUSH2 0x2D8A JUMP JUMPDEST SWAP2 POP POP SWAP3 SWAP2 POP POP JUMP JUMPDEST PUSH1 0x0 DUP1 PUSH1 0x0 DUP1 PUSH1 0x80 DUP6 DUP8 SUB SLT ISZERO PUSH2 0x2E14 JUMPI PUSH2 0x2E13 PUSH2 0x2668 JUMP JUMPDEST JUMPDEST PUSH1 0x0 DUP6 ADD CALLDATALOAD PUSH8 0xFFFFFFFFFFFFFFFF DUP2 GT ISZERO PUSH2 0x2E32 JUMPI PUSH2 0x2E31 PUSH2 0x266D JUMP JUMPDEST JUMPDEST PUSH2 0x2E3E DUP8 DUP3 DUP9 ADD PUSH2 0x2DCC JUMP JUMPDEST SWAP5 POP POP PUSH1 0x20 DUP6 ADD CALLDATALOAD PUSH8 0xFFFFFFFFFFFFFFFF DUP2 GT ISZERO PUSH2 0x2E5F JUMPI PUSH2 0x2E5E PUSH2 0x266D JUMP JUMPDEST JUMPDEST PUSH2 0x2E6B DUP8 DUP3 DUP9 ADD PUSH2 0x2DCC JUMP JUMPDEST SWAP4 POP POP PUSH1 0x40 PUSH2 0x2E7C DUP8 DUP3 DUP9 ADD PUSH2 0x2890 JUMP JUMPDEST SWAP3 POP POP PUSH1 0x60 PUSH2 0x2E8D DUP8 DUP3 DUP9 ADD PUSH2 0x274E JUMP JUMPDEST SWAP2 POP POP SWAP3 SWAP6 SWAP2 SWAP5 POP SWAP3 POP JUMP JUMPDEST PUSH2 0x2EA2 DUP2 PUSH2 0x26F7 JUMP JUMPDEST DUP2 EQ PUSH2 0x2EAD JUMPI PUSH1 0x0 DUP1 REVERT JUMPDEST POP JUMP JUMPDEST PUSH1 0x0 DUP2 CALLDATALOAD SWAP1 POP PUSH2 0x2EBF DUP2 PUSH2 0x2E99 JUMP JUMPDEST SWAP3 SWAP2 POP POP JUMP JUMPDEST PUSH1 0x0 DUP1 PUSH1 0x40 DUP4 DUP6 SUB SLT ISZERO PUSH2 0x2EDC JUMPI PUSH2 0x2EDB PUSH2 0x2668 JUMP JUMPDEST JUMPDEST PUSH1 0x0 PUSH2 0x2EEA DUP6 DUP3 DUP7 ADD PUSH2 0x274E JUMP JUMPDEST SWAP3 POP POP PUSH1 0x20 PUSH2 0x2EFB DUP6 DUP3 DUP7 ADD PUSH2 0x2EB0 JUMP JUMPDEST SWAP2 POP POP SWAP3 POP SWAP3 SWAP1 POP JUMP JUMPDEST PUSH1 0x60 DUP3 ADD PUSH1 0x0 DUP3 ADD MLOAD PUSH2 0x2F1B PUSH1 0x0 DUP6 ADD DUP3 PUSH2 0x29E0 JUMP JUMPDEST POP PUSH1 0x20 DUP3 ADD MLOAD PUSH2 0x2F2E PUSH1 0x20 DUP6 ADD DUP3 PUSH2 0x2911 JUMP JUMPDEST POP PUSH1 0x40 DUP3 ADD MLOAD PUSH2 0x2F41 PUSH1 0x40 DUP6 ADD DUP3 PUSH2 0x29B0 JUMP JUMPDEST POP POP POP POP JUMP JUMPDEST PUSH1 0x0 PUSH1 0x60 DUP3 ADD SWAP1 POP PUSH2 0x2F5C PUSH1 0x0 DUP4 ADD DUP5 PUSH2 0x2F05 JUMP JUMPDEST SWAP3 SWAP2 POP POP JUMP JUMPDEST PUSH1 0x0 DUP2 MLOAD SWAP1 POP SWAP2 SWAP1 POP JUMP JUMPDEST PUSH1 0x0 DUP3 DUP3 MSTORE PUSH1 0x20 DUP3 ADD SWAP1 POP SWAP3 SWAP2 POP POP JUMP JUMPDEST PUSH1 0x0 DUP2 SWAP1 POP PUSH1 0x20 DUP3 ADD SWAP1 POP SWAP2 SWAP1 POP JUMP JUMPDEST PUSH1 0x0 PUSH2 0x2F9A DUP4 DUP4 PUSH2 0x2911 JUMP JUMPDEST PUSH1 0x20 DUP4 ADD SWAP1 POP SWAP3 SWAP2 POP POP JUMP JUMPDEST PUSH1 0x0 PUSH1 0x20 DUP3 ADD SWAP1 POP SWAP2 SWAP1 POP JUMP JUMPDEST PUSH1 0x0 PUSH2 0x2FBE DUP3 PUSH2 0x2F62 JUMP JUMPDEST PUSH2 0x2FC8 DUP2 DUP6 PUSH2 0x2F6D JUMP JUMPDEST SWAP4 POP PUSH2 0x2FD3 DUP4 PUSH2 0x2F7E JUMP JUMPDEST DUP1 PUSH1 0x0 JUMPDEST DUP4 DUP2 LT ISZERO PUSH2 0x3004 JUMPI DUP2 MLOAD PUSH2 0x2FEB DUP9 DUP3 PUSH2 0x2F8E JUMP JUMPDEST SWAP8 POP PUSH2 0x2FF6 DUP4 PUSH2 0x2FA6 JUMP JUMPDEST SWAP3 POP POP PUSH1 0x1 DUP2 ADD SWAP1 POP PUSH2 0x2FD7 JUMP JUMPDEST POP DUP6 SWAP4 POP POP POP POP SWAP3 SWAP2 POP POP JUMP JUMPDEST PUSH1 0x0 PUSH1 0x20 DUP3 ADD SWAP1 POP DUP2 DUP2 SUB PUSH1 0x0 DUP4 ADD MSTORE PUSH2 0x302B DUP2 DUP5 PUSH2 0x2FB3 JUMP JUMPDEST SWAP1 POP SWAP3 SWAP2 POP POP JUMP JUMPDEST PUSH1 0x0 PUSH2 0x180 DUP4 ADD PUSH1 0x0 DUP4 ADD MLOAD PUSH2 0x304C PUSH1 0x0 DUP7 ADD DUP3 PUSH2 0x2911 JUMP JUMPDEST POP PUSH1 0x20 DUP4 ADD MLOAD PUSH2 0x305F PUSH1 0x20 DUP7 ADD DUP3 PUSH2 0x2911 JUMP JUMPDEST POP PUSH1 0x40 DUP4 ADD MLOAD PUSH2 0x3072 PUSH1 0x40 DUP7 ADD DUP3 PUSH2 0x2911 JUMP JUMPDEST POP PUSH1 0x60 DUP4 ADD MLOAD PUSH2 0x3085 PUSH1 0x60 DUP7 ADD DUP3 PUSH2 0x2911 JUMP JUMPDEST POP PUSH1 0x80 DUP4 ADD MLOAD PUSH2 0x3098 PUSH1 0x80 DUP7 ADD DUP3 PUSH2 0x2911 JUMP JUMPDEST POP PUSH1 0xA0 DUP4 ADD MLOAD DUP5 DUP3 SUB PUSH1 0xA0 DUP7 ADD MSTORE PUSH2 0x30B0 DUP3 DUP3 PUSH2 0x2977 JUMP JUMPDEST SWAP2 POP POP PUSH1 0xC0 DUP4 ADD MLOAD DUP5 DUP3 SUB PUSH1 0xC0 DUP7 ADD MSTORE PUSH2 0x30CA DUP3 DUP3 PUSH2 0x2977 JUMP JUMPDEST SWAP2 POP POP PUSH1 0xE0 DUP4 ADD MLOAD PUSH2 0x30DF PUSH1 0xE0 DUP7 ADD DUP3 PUSH2 0x29B0 JUMP JUMPDEST POP PUSH2 0x100 DUP4 ADD MLOAD PUSH2 0x30F4 PUSH2 0x100 DUP7 ADD DUP3 PUSH2 0x29B0 JUMP JUMPDEST POP PUSH2 0x120 DUP4 ADD MLOAD PUSH2 0x3109 PUSH2 0x120 DUP7 ADD DUP3 PUSH2 0x29D1 JUMP JUMPDEST POP PUSH2 0x140 DUP4 ADD MLOAD PUSH2 0x311E PUSH2 0x140 DUP7 ADD DUP3 PUSH2 0x29E0 JUMP JUMPDEST POP PUSH2 0x160 DUP4 ADD MLOAD PUSH2 0x3133 PUSH2 0x160 DUP7 ADD DUP3 PUSH2 0x29E0 JUMP JUMPDEST POP DUP1 SWAP2 POP POP SWAP3 SWAP2 POP POP JUMP JUMPDEST PUSH1 0x0 PUSH1 0x20 DUP3 ADD SWAP1 POP DUP2 DUP2 SUB PUSH1 0x0 DUP4 ADD MSTORE PUSH2 0x3158 DUP2 DUP5 PUSH2 0x3033 JUMP JUMPDEST SWAP1 POP SWAP3 SWAP2 POP POP JUMP JUMPDEST PUSH1 0x0 DUP3 DUP3 MSTORE PUSH1 0x20 DUP3 ADD SWAP1 POP SWAP3 SWAP2 POP POP JUMP JUMPDEST PUSH1 0x0 PUSH2 0x317C DUP3 PUSH2 0x2920 JUMP JUMPDEST PUSH2 0x3186 DUP2 DUP6 PUSH2 0x3160 JUMP JUMPDEST SWAP4 POP PUSH2 0x3196 DUP2 DUP6 PUSH1 0x20 DUP7 ADD PUSH2 0x293C JUMP JUMPDEST PUSH2 0x319F DUP2 PUSH2 0x2966 JUMP JUMPDEST DUP5 ADD SWAP2 POP POP SWAP3 SWAP2 POP POP JUMP JUMPDEST PUSH1 0x0 PUSH1 0x20 DUP3 ADD SWAP1 POP DUP2 DUP2 SUB PUSH1 0x0 DUP4 ADD MSTORE PUSH2 0x31C4 DUP2 DUP5 PUSH2 0x3171 JUMP JUMPDEST SWAP1 POP SWAP3 SWAP2 POP POP JUMP JUMPDEST PUSH32 0x496E73756666696369656E742066756E64000000000000000000000000000000 PUSH1 0x0 DUP3 ADD MSTORE POP JUMP JUMPDEST PUSH1 0x0 PUSH2 0x3202 PUSH1 0x11 DUP4 PUSH2 0x3160 JUMP JUMPDEST SWAP2 POP PUSH2 0x320D DUP3 PUSH2 0x31CC JUMP JUMPDEST PUSH1 0x20 DUP3 ADD SWAP1 POP SWAP2 SWAP1 POP JUMP JUMPDEST PUSH1 0x0 PUSH1 0x20 DUP3 ADD SWAP1 POP DUP2 DUP2 SUB PUSH1 0x0 DUP4 ADD MSTORE PUSH2 0x3231 DUP2 PUSH2 0x31F5 JUMP JUMPDEST SWAP1 POP SWAP2 SWAP1 POP JUMP JUMPDEST PUSH32 0x5061796D656E742073656E74206265666F726500000000000000000000000000 PUSH1 0x0 DUP3 ADD MSTORE POP JUMP JUMPDEST PUSH1 0x0 PUSH2 0x326E PUSH1 0x13 DUP4 PUSH2 0x3160 JUMP JUMPDEST SWAP2 POP PUSH2 0x3279 DUP3 PUSH2 0x3238 JUMP JUMPDEST PUSH1 0x20 DUP3 ADD SWAP1 POP SWAP2 SWAP1 POP JUMP JUMPDEST PUSH1 0x0 PUSH1 0x20 DUP3 ADD SWAP1 POP DUP2 DUP2 SUB PUSH1 0x0 DUP4 ADD MSTORE PUSH2 0x329D DUP2 PUSH2 0x3261 JUMP JUMPDEST SWAP1 POP SWAP2 SWAP1 POP JUMP JUMPDEST PUSH32 0x496E73756666696369656E7420766F7465730000000000000000000000000000 PUSH1 0x0 DUP3 ADD MSTORE POP JUMP JUMPDEST PUSH1 0x0 PUSH2 0x32DA PUSH1 0x12 DUP4 PUSH2 0x3160 JUMP JUMPDEST SWAP2 POP PUSH2 0x32E5 DUP3 PUSH2 0x32A4 JUMP JUMPDEST PUSH1 0x20 DUP3 ADD SWAP1 POP SWAP2 SWAP1 POP JUMP JUMPDEST PUSH1 0x0 PUSH1 0x20 DUP3 ADD SWAP1 POP DUP2 DUP2 SUB PUSH1 0x0 DUP4 ADD MSTORE PUSH2 0x3309 DUP2 PUSH2 0x32CD JUMP JUMPDEST SWAP1 POP SWAP2 SWAP1 POP JUMP JUMPDEST PUSH32 0x4E487B7100000000000000000000000000000000000000000000000000000000 PUSH1 0x0 MSTORE PUSH1 0x11 PUSH1 0x4 MSTORE PUSH1 0x24 PUSH1 0x0 REVERT JUMPDEST PUSH1 0x0 PUSH2 0x334A DUP3 PUSH2 0x272D JUMP JUMPDEST SWAP2 POP PUSH2 0x3355 DUP4 PUSH2 0x272D JUMP JUMPDEST SWAP3 POP DUP3 DUP3 SUB SWAP1 POP DUP2 DUP2 GT ISZERO PUSH2 0x336D JUMPI PUSH2 0x336C PUSH2 0x3310 JUMP JUMPDEST JUMPDEST SWAP3 SWAP2 POP POP JUMP JUMPDEST PUSH32 0x5041594D454E54205452414E5346455245440000000000000000000000000000 PUSH1 0x0 DUP3 ADD MSTORE POP JUMP JUMPDEST PUSH1 0x0 PUSH2 0x33A9 PUSH1 0x12 DUP4 PUSH2 0x3160 JUMP JUMPDEST SWAP2 POP PUSH2 0x33B4 DUP3 PUSH2 0x3373 JUMP JUMPDEST PUSH1 0x20 DUP3 ADD SWAP1 POP SWAP2 SWAP1 POP JUMP JUMPDEST PUSH1 0x0 PUSH1 0x60 DUP3 ADD SWAP1 POP PUSH2 0x33D4 PUSH1 0x0 DUP4 ADD DUP6 PUSH2 0x281D JUMP JUMPDEST DUP2 DUP2 SUB PUSH1 0x20 DUP4 ADD MSTORE PUSH2 0x33E5 DUP2 PUSH2 0x339C JUMP JUMPDEST SWAP1 POP PUSH2 0x33F4 PUSH1 0x40 DUP4 ADD DUP5 PUSH2 0x2790 JUMP JUMPDEST SWAP4 SWAP3 POP POP POP JUMP JUMPDEST PUSH32 0x416363657373436F6E74726F6C3A2063616E206F6E6C792072656E6F756E6365 PUSH1 0x0 DUP3 ADD MSTORE PUSH32 0x20726F6C657320666F722073656C660000000000000000000000000000000000 PUSH1 0x20 DUP3 ADD MSTORE POP JUMP JUMPDEST PUSH1 0x0 PUSH2 0x3457 PUSH1 0x2F DUP4 PUSH2 0x3160 JUMP JUMPDEST SWAP2 POP PUSH2 0x3462 DUP3 PUSH2 0x33FB JUMP JUMPDEST PUSH1 0x40 DUP3 ADD SWAP1 POP SWAP2 SWAP1 POP JUMP JUMPDEST PUSH1 0x0 PUSH1 0x20 DUP3 ADD SWAP1 POP DUP2 DUP2 SUB PUSH1 0x0 DUP4 ADD MSTORE PUSH2 0x3486 DUP2 PUSH2 0x344A JUMP JUMPDEST SWAP1 POP SWAP2 SWAP1 POP JUMP JUMPDEST PUSH32 0x4E487B7100000000000000000000000000000000000000000000000000000000 PUSH1 0x0 MSTORE PUSH1 0x22 PUSH1 0x4 MSTORE PUSH1 0x24 PUSH1 0x0 REVERT JUMPDEST PUSH1 0x0 PUSH1 0x2 DUP3 DIV SWAP1 POP PUSH1 0x1 DUP3 AND DUP1 PUSH2 0x34D4 JUMPI PUSH1 0x7F DUP3 AND SWAP2 POP JUMPDEST PUSH1 0x20 DUP3 LT DUP2 SUB PUSH2 0x34E7 JUMPI PUSH2 0x34E6 PUSH2 0x348D JUMP JUMPDEST JUMPDEST POP SWAP2 SWAP1 POP JUMP JUMPDEST PUSH32 0x4E487B7100000000000000000000000000000000000000000000000000000000 PUSH1 0x0 MSTORE PUSH1 0x32 PUSH1 0x4 MSTORE PUSH1 0x24 PUSH1 0x0 REVERT JUMPDEST PUSH1 0x0 PUSH4 0xFFFFFFFF DUP3 AND SWAP1 POP SWAP2 SWAP1 POP JUMP JUMPDEST PUSH1 0x0 PUSH2 0x3537 DUP3 PUSH2 0x351C JUMP JUMPDEST SWAP2 POP PUSH4 0xFFFFFFFF DUP3 SUB PUSH2 0x354D JUMPI PUSH2 0x354C PUSH2 0x3310 JUMP JUMPDEST JUMPDEST PUSH1 0x1 DUP3 ADD SWAP1 POP SWAP2 SWAP1 POP JUMP JUMPDEST PUSH1 0x0 DUP2 SWAP1 POP DUP2 PUSH1 0x0 MSTORE PUSH1 0x20 PUSH1 0x0 KECCAK256 SWAP1 POP SWAP2 SWAP1 POP JUMP JUMPDEST PUSH1 0x0 PUSH1 0x20 PUSH1 0x1F DUP4 ADD DIV SWAP1 POP SWAP2 SWAP1 POP JUMP JUMPDEST PUSH1 0x0 DUP3 DUP3 SHL SWAP1 POP SWAP3 SWAP2 POP POP JUMP JUMPDEST PUSH1 0x0 PUSH1 0x8 DUP4 MUL PUSH2 0x35BA PUSH32 0xFFFFFFFFFFFFFFFFFFFFFFFFFFFFFFFFFFFFFFFFFFFFFFFFFFFFFFFFFFFFFFFF DUP3 PUSH2 0x357D JUMP JUMPDEST PUSH2 0x35C4 DUP7 DUP4 PUSH2 0x357D JUMP JUMPDEST SWAP6 POP DUP1 NOT DUP5 AND SWAP4 POP DUP1 DUP7 AND DUP5 OR SWAP3 POP POP POP SWAP4 SWAP3 POP POP POP JUMP JUMPDEST PUSH1 0x0 DUP2 SWAP1 POP SWAP2 SWAP1 POP JUMP JUMPDEST PUSH1 0x0 PUSH2 0x3601 PUSH2 0x35FC PUSH2 0x35F7 DUP5 PUSH2 0x272D JUMP JUMPDEST PUSH2 0x35DC JUMP JUMPDEST PUSH2 0x272D JUMP JUMPDEST SWAP1 POP SWAP2 SWAP1 POP JUMP JUMPDEST PUSH1 0x0 DUP2 SWAP1 POP SWAP2 SWAP1 POP JUMP JUMPDEST PUSH2 0x361B DUP4 PUSH2 0x35E6 JUMP JUMPDEST PUSH2 0x362F PUSH2 0x3627 DUP3 PUSH2 0x3608 JUMP JUMPDEST DUP5 DUP5 SLOAD PUSH2 0x358A JUMP JUMPDEST DUP3 SSTORE POP POP POP POP JUMP JUMPDEST PUSH1 0x0 SWAP1 JUMP JUMPDEST PUSH2 0x3644 PUSH2 0x3637 JUMP JUMPDEST PUSH2 0x364F DUP2 DUP5 DUP5 PUSH2 0x3612 JUMP JUMPDEST POP POP POP JUMP JUMPDEST JUMPDEST DUP2 DUP2 LT ISZERO PUSH2 0x3673 JUMPI PUSH2 0x3668 PUSH1 0x0 DUP3 PUSH2 0x363C JUMP JUMPDEST PUSH1 0x1 DUP2 ADD SWAP1 POP PUSH2 0x3655 JUMP JUMPDEST POP POP JUMP JUMPDEST PUSH1 0x1F DUP3 GT ISZERO PUSH2 0x36B8 JUMPI PUSH2 0x3689 DUP2 PUSH2 0x3558 JUMP JUMPDEST PUSH2 0x3692 DUP5 PUSH2 0x356D JUMP JUMPDEST DUP2 ADD PUSH1 0x20 DUP6 LT ISZERO PUSH2 0x36A1 JUMPI DUP2 SWAP1 POP JUMPDEST PUSH2 0x36B5 PUSH2 0x36AD DUP6 PUSH2 0x356D JUMP JUMPDEST DUP4 ADD DUP3 PUSH2 0x3654 JUMP JUMPDEST POP POP JUMPDEST POP POP POP JUMP JUMPDEST PUSH1 0x0 DUP3 DUP3 SHR SWAP1 POP SWAP3 SWAP2 POP POP JUMP JUMPDEST PUSH1 0x0 PUSH2 0x36DB PUSH1 0x0 NOT DUP5 PUSH1 0x8 MUL PUSH2 0x36BD JUMP JUMPDEST NOT DUP1 DUP4 AND SWAP2 POP POP SWAP3 SWAP2 POP POP JUMP JUMPDEST PUSH1 0x0 PUSH2 0x36F4 DUP4 DUP4 PUSH2 0x36CA JUMP JUMPDEST SWAP2 POP DUP3 PUSH1 0x2 MUL DUP3 OR SWAP1 POP SWAP3 SWAP2 POP POP JUMP JUMPDEST PUSH2 0x370D DUP3 PUSH2 0x2920 JUMP JUMPDEST PUSH8 0xFFFFFFFFFFFFFFFF DUP2 GT ISZERO PUSH2 0x3726 JUMPI PUSH2 0x3725 PUSH2 0x2CCF JUMP JUMPDEST JUMPDEST PUSH2 0x3730 DUP3 SLOAD PUSH2 0x34BC JUMP JUMPDEST PUSH2 0x373B DUP3 DUP3 DUP6 PUSH2 0x3677 JUMP JUMPDEST PUSH1 0x0 PUSH1 0x20 SWAP1 POP PUSH1 0x1F DUP4 GT PUSH1 0x1 DUP2 EQ PUSH2 0x376E JUMPI PUSH1 0x0 DUP5 ISZERO PUSH2 0x375C JUMPI DUP3 DUP8 ADD MLOAD SWAP1 POP JUMPDEST PUSH2 0x3766 DUP6 DUP3 PUSH2 0x36E8 JUMP JUMPDEST DUP7 SSTORE POP PUSH2 0x37CE JUMP JUMPDEST PUSH1 0x1F NOT DUP5 AND PUSH2 0x377C DUP7 PUSH2 0x3558 JUMP JUMPDEST PUSH1 0x0 JUMPDEST DUP3 DUP2 LT ISZERO PUSH2 0x37A4 JUMPI DUP5 DUP10 ADD MLOAD DUP3 SSTORE PUSH1 0x1 DUP3 ADD SWAP2 POP PUSH1 0x20 DUP6 ADD SWAP5 POP PUSH1 0x20 DUP2 ADD SWAP1 POP PUSH2 0x377F JUMP JUMPDEST DUP7 DUP4 LT ISZERO PUSH2 0x37C1 JUMPI DUP5 DUP10 ADD MLOAD PUSH2 0x37BD PUSH1 0x1F DUP10 AND DUP3 PUSH2 0x36CA JUMP JUMPDEST DUP4 SSTORE POP JUMPDEST PUSH1 0x1 PUSH1 0x2 DUP9 MUL ADD DUP9 SSTORE POP POP POP JUMPDEST POP POP POP POP POP POP JUMP JUMPDEST PUSH1 0x0 PUSH2 0x37E1 DUP3 PUSH2 0x272D JUMP JUMPDEST SWAP2 POP PUSH2 0x37EC DUP4 PUSH2 0x272D JUMP JUMPDEST SWAP3 POP DUP3 DUP3 ADD SWAP1 POP DUP1 DUP3 GT ISZERO PUSH2 0x3804 JUMPI PUSH2 0x3803 PUSH2 0x3310 JUMP JUMPDEST JUMPDEST SWAP3 SWAP2 POP POP JUMP JUMPDEST PUSH32 0x50524F504F53414C205241495345440000000000000000000000000000000000 PUSH1 0x0 DUP3 ADD MSTORE POP JUMP JUMPDEST PUSH1 0x0 PUSH2 0x3840 PUSH1 0xF DUP4 PUSH2 0x3160 JUMP JUMPDEST SWAP2 POP PUSH2 0x384B DUP3 PUSH2 0x380A JUMP JUMPDEST PUSH1 0x20 DUP3 ADD SWAP1 POP SWAP2 SWAP1 POP JUMP JUMPDEST PUSH1 0x0 PUSH1 0x60 DUP3 ADD SWAP1 POP PUSH2 0x386B PUSH1 0x0 DUP4 ADD DUP6 PUSH2 0x281D JUMP JUMPDEST DUP2 DUP2 SUB PUSH1 0x20 DUP4 ADD MSTORE PUSH2 0x387C DUP2 PUSH2 0x3833 JUMP JUMPDEST SWAP1 POP PUSH2 0x388B PUSH1 0x40 DUP4 ADD DUP5 PUSH2 0x2790 JUMP JUMPDEST SWAP4 SWAP3 POP POP POP JUMP JUMPDEST PUSH1 0x0 PUSH2 0x389D DUP3 PUSH2 0x272D JUMP JUMPDEST SWAP2 POP PUSH32 0xFFFFFFFFFFFFFFFFFFFFFFFFFFFFFFFFFFFFFFFFFFFFFFFFFFFFFFFFFFFFFFFF DUP3 SUB PUSH2 0x38CF JUMPI PUSH2 0x38CE PUSH2 0x3310 JUMP JUMPDEST JUMPDEST PUSH1 0x1 DUP3 ADD SWAP1 POP SWAP2 SWAP1 POP JUMP JUMPDEST PUSH32 0x50524F504F53414C20564F544500000000000000000000000000000000000000 PUSH1 0x0 DUP3 ADD MSTORE POP JUMP JUMPDEST PUSH1 0x0 PUSH2 0x3910 PUSH1 0xD DUP4 PUSH2 0x3160 JUMP JUMPDEST SWAP2 POP PUSH2 0x391B DUP3 PUSH2 0x38DA JUMP JUMPDEST PUSH1 0x20 DUP3 ADD SWAP1 POP SWAP2 SWAP1 POP JUMP JUMPDEST PUSH1 0x0 PUSH1 0x60 DUP3 ADD SWAP1 POP PUSH2 0x393B PUSH1 0x0 DUP4 ADD DUP6 PUSH2 0x281D JUMP JUMPDEST DUP2 DUP2 SUB PUSH1 0x20 DUP4 ADD MSTORE PUSH2 0x394C DUP2 PUSH2 0x3903 JUMP JUMPDEST SWAP1 POP PUSH2 0x395B PUSH1 0x40 DUP4 ADD DUP5 PUSH2 0x2790 JUMP JUMPDEST SWAP4 SWAP3 POP POP POP JUMP JUMPDEST PUSH32 0x436F6E747269627574696E67207A65726F206973206E6F7420616C6C6F776564 PUSH1 0x0 DUP3 ADD MSTORE PUSH32 0x2E00000000000000000000000000000000000000000000000000000000000000 PUSH1 0x20 DUP3 ADD MSTORE POP JUMP JUMPDEST PUSH1 0x0 PUSH2 0x39BE PUSH1 0x21 DUP4 PUSH2 0x3160 JUMP JUMPDEST SWAP2 POP PUSH2 0x39C9 DUP3 PUSH2 0x3962 JUMP JUMPDEST PUSH1 0x40 DUP3 ADD SWAP1 POP SWAP2 SWAP1 POP JUMP JUMPDEST PUSH1 0x0 PUSH1 0x20 DUP3 ADD SWAP1 POP DUP2 DUP2 SUB PUSH1 0x0 DUP4 ADD MSTORE PUSH2 0x39ED DUP2 PUSH2 0x39B1 JUMP JUMPDEST SWAP1 POP SWAP2 SWAP1 POP JUMP JUMPDEST PUSH32 0x434F4E545249425554494F4E2052454345495645440000000000000000000000 PUSH1 0x0 DUP3 ADD MSTORE POP JUMP JUMPDEST PUSH1 0x0 PUSH2 0x3A2A PUSH1 0x15 DUP4 PUSH2 0x3160 JUMP JUMPDEST SWAP2 POP PUSH2 0x3A35 DUP3 PUSH2 0x39F4 JUMP JUMPDEST PUSH1 0x20 DUP3 ADD SWAP1 POP SWAP2 SWAP1 POP JUMP JUMPDEST PUSH1 0x0 PUSH1 0x60 DUP3 ADD SWAP1 POP PUSH2 0x3A55 PUSH1 0x0 DUP4 ADD DUP6 PUSH2 0x281D JUMP JUMPDEST DUP2 DUP2 SUB PUSH1 0x20 DUP4 ADD MSTORE PUSH2 0x3A66 DUP2 PUSH2 0x3A1D JUMP JUMPDEST SWAP1 POP PUSH2 0x3A75 PUSH1 0x40 DUP4 ADD DUP5 PUSH2 0x2790 JUMP JUMPDEST SWAP4 SWAP3 POP POP POP JUMP JUMPDEST PUSH32 0x5265656E7472616E637947756172643A207265656E7472616E742063616C6C00 PUSH1 0x0 DUP3 ADD MSTORE POP JUMP JUMPDEST PUSH1 0x0 PUSH2 0x3AB2 PUSH1 0x1F DUP4 PUSH2 0x3160 JUMP JUMPDEST SWAP2 POP PUSH2 0x3ABD DUP3 PUSH2 0x3A7C JUMP JUMPDEST PUSH1 0x20 DUP3 ADD SWAP1 POP SWAP2 SWAP1 POP JUMP JUMPDEST PUSH1 0x0 PUSH1 0x20 DUP3 ADD SWAP1 POP DUP2 DUP2 SUB PUSH1 0x0 DUP4 ADD MSTORE PUSH2 0x3AE1 DUP2 PUSH2 0x3AA5 JUMP JUMPDEST SWAP1 POP SWAP2 SWAP1 POP JUMP JUMPDEST PUSH1 0x0 DUP2 SWAP1 POP SWAP3 SWAP2 POP POP JUMP JUMPDEST POP JUMP JUMPDEST PUSH1 0x0 PUSH2 0x3B03 PUSH1 0x0 DUP4 PUSH2 0x3AE8 JUMP JUMPDEST SWAP2 POP PUSH2 0x3B0E DUP3 PUSH2 0x3AF3 JUMP JUMPDEST PUSH1 0x0 DUP3 ADD SWAP1 POP SWAP2 SWAP1 POP JUMP JUMPDEST PUSH1 0x0 PUSH2 0x3B24 DUP3 PUSH2 0x3AF6 JUMP JUMPDEST SWAP2 POP DUP2 SWAP1 POP SWAP2 SWAP1 POP JUMP JUMPDEST PUSH32 0x5061796D656E74206661696C6564000000000000000000000000000000000000 PUSH1 0x0 DUP3 ADD MSTORE POP JUMP JUMPDEST PUSH1 0x0 PUSH2 0x3B64 PUSH1 0xE DUP4 PUSH2 0x3160 JUMP JUMPDEST SWAP2 POP PUSH2 0x3B6F DUP3 PUSH2 0x3B2E JUMP JUMPDEST PUSH1 0x20 DUP3 ADD SWAP1 POP SWAP2 SWAP1 POP JUMP JUMPDEST PUSH1 0x0 PUSH1 0x20 DUP3 ADD SWAP1 POP DUP2 DUP2 SUB PUSH1 0x0 DUP4 ADD MSTORE PUSH2 0x3B93 DUP2 PUSH2 0x3B57 JUMP JUMPDEST SWAP1 POP SWAP2 SWAP1 POP JUMP JUMPDEST PUSH32 0x70726F706F73616C206475726174696F6E206578706972656400000000000000 PUSH1 0x0 DUP3 ADD MSTORE POP JUMP JUMPDEST PUSH1 0x0 PUSH2 0x3BD0 PUSH1 0x19 DUP4 PUSH2 0x3160 JUMP JUMPDEST SWAP2 POP PUSH2 0x3BDB DUP3 PUSH2 0x3B9A JUMP JUMPDEST PUSH1 0x20 DUP3 ADD SWAP1 POP SWAP2 SWAP1 POP JUMP JUMPDEST PUSH1 0x0 PUSH1 0x20 DUP3 ADD SWAP1 POP DUP2 DUP2 SUB PUSH1 0x0 DUP4 ADD MSTORE PUSH2 0x3BFF DUP2 PUSH2 0x3BC3 JUMP JUMPDEST SWAP1 POP SWAP2 SWAP1 POP JUMP JUMPDEST PUSH32 0x446F75626C6520766F74696E67206E6F7420616C6C6F77656400000000000000 PUSH1 0x0 DUP3 ADD MSTORE POP JUMP JUMPDEST PUSH1 0x0 PUSH2 0x3C3C PUSH1 0x19 DUP4 PUSH2 0x3160 JUMP JUMPDEST SWAP2 POP PUSH2 0x3C47 DUP3 PUSH2 0x3C06 JUMP JUMPDEST PUSH1 0x20 DUP3 ADD SWAP1 POP SWAP2 SWAP1 POP JUMP JUMPDEST PUSH1 0x0 PUSH1 0x20 DUP3 ADD SWAP1 POP DUP2 DUP2 SUB PUSH1 0x0 DUP4 ADD MSTORE PUSH2 0x3C6B DUP2 PUSH2 0x3C2F JUMP JUMPDEST SWAP1 POP SWAP2 SWAP1 POP JUMP JUMPDEST PUSH1 0x0 DUP2 SWAP1 POP SWAP3 SWAP2 POP POP JUMP JUMPDEST PUSH32 0x416363657373436F6E74726F6C3A206163636F756E7420000000000000000000 PUSH1 0x0 DUP3 ADD MSTORE POP JUMP JUMPDEST PUSH1 0x0 PUSH2 0x3CB3 PUSH1 0x17 DUP4 PUSH2 0x3C72 JUMP JUMPDEST SWAP2 POP PUSH2 0x3CBE DUP3 PUSH2 0x3C7D JUMP JUMPDEST PUSH1 0x17 DUP3 ADD SWAP1 POP SWAP2 SWAP1 POP JUMP JUMPDEST PUSH1 0x0 PUSH2 0x3CD4 DUP3 PUSH2 0x2920 JUMP JUMPDEST PUSH2 0x3CDE DUP2 DUP6 PUSH2 0x3C72 JUMP JUMPDEST SWAP4 POP PUSH2 0x3CEE DUP2 DUP6 PUSH1 0x20 DUP7 ADD PUSH2 0x293C JUMP JUMPDEST DUP1 DUP5 ADD SWAP2 POP POP SWAP3 SWAP2 POP POP JUMP JUMPDEST PUSH32 0x206973206D697373696E6720726F6C6520000000000000000000000000000000 PUSH1 0x0 DUP3 ADD MSTORE POP JUMP JUMPDEST PUSH1 0x0 PUSH2 0x3D30 PUSH1 0x11 DUP4 PUSH2 0x3C72 JUMP JUMPDEST SWAP2 POP PUSH2 0x3D3B DUP3 PUSH2 0x3CFA JUMP JUMPDEST PUSH1 0x11 DUP3 ADD SWAP1 POP SWAP2 SWAP1 POP JUMP JUMPDEST PUSH1 0x0 PUSH2 0x3D51 DUP3 PUSH2 0x3CA6 JUMP JUMPDEST SWAP2 POP PUSH2 0x3D5D DUP3 DUP6 PUSH2 0x3CC9 JUMP JUMPDEST SWAP2 POP PUSH2 0x3D68 DUP3 PUSH2 0x3D23 JUMP JUMPDEST SWAP2 POP PUSH2 0x3D74 DUP3 DUP5 PUSH2 0x3CC9 JUMP JUMPDEST SWAP2 POP DUP2 SWAP1 POP SWAP4 SWAP3 POP POP POP JUMP JUMPDEST PUSH1 0x0 PUSH2 0x3D8B DUP3 PUSH2 0x272D JUMP JUMPDEST SWAP2 POP PUSH2 0x3D96 DUP4 PUSH2 0x272D JUMP JUMPDEST SWAP3 POP DUP3 DUP3 MUL PUSH2 0x3DA4 DUP2 PUSH2 0x272D JUMP JUMPDEST SWAP2 POP DUP3 DUP3 DIV DUP5 EQ DUP4 ISZERO OR PUSH2 0x3DBB JUMPI PUSH2 0x3DBA PUSH2 0x3310 JUMP JUMPDEST JUMPDEST POP SWAP3 SWAP2 POP POP JUMP JUMPDEST PUSH1 0x0 PUSH2 0x3DCD DUP3 PUSH2 0x272D JUMP JUMPDEST SWAP2 POP PUSH1 0x0 DUP3 SUB PUSH2 0x3DE0 JUMPI PUSH2 0x3DDF PUSH2 0x3310 JUMP JUMPDEST JUMPDEST PUSH1 0x1 DUP3 SUB SWAP1 POP SWAP2 SWAP1 POP JUMP JUMPDEST PUSH32 0x537472696E67733A20686578206C656E67746820696E73756666696369656E74 PUSH1 0x0 DUP3 ADD MSTORE POP JUMP JUMPDEST PUSH1 0x0 PUSH2 0x3E21 PUSH1 0x20 DUP4 PUSH2 0x3160 JUMP JUMPDEST SWAP2 POP PUSH2 0x3E2C DUP3 PUSH2 0x3DEB JUMP JUMPDEST PUSH1 0x20 DUP3 ADD SWAP1 POP SWAP2 SWAP1 POP JUMP JUMPDEST PUSH1 0x0 PUSH1 0x20 DUP3 ADD SWAP1 POP DUP2 DUP2 SUB PUSH1 0x0 DUP4 ADD MSTORE PUSH2 0x3E50 DUP2 PUSH2 0x3E14 JUMP JUMPDEST SWAP1 POP SWAP2 SWAP1 POP JUMP INVALID PUSH17 0x726F706F73616C206372656174696F6E20 PUSH2 0x6C6C PUSH16 0x77656420666F72207468652070726F70 PUSH16 0x73657273206F6E6C7944656E6965643A KECCAK256 SSTORE PUSH20 0x6572206973206E6F742061207374616B65686F6C PUSH5 0x6572556E61 PUSH22 0x74686F72697A6564206163636573733A2050726F706F PUSH20 0x657273206F6E6C79207065726D6974746564A264 PUSH10 0x7066735822122004F947 SWAP2 0xE4 PUSH16 0xFAE6E3D800EC1CC4AAA2C2449B6F6D2E 0xCC 0xF8 0x2F 0xAB PUSH5 0xA1020BDF6 PUSH5 0x736F6C6343 STOP ADDMOD AND STOP CALLER "},"methodIdentifiers":{"DEFAULT_ADMIN_ROLE()":"a217fddf","Vote(uint256,bool)":"8bfa1f40","contribute()":"d7bb99ba","createProposal(string,string,address,uint256)":"7cdc2eb7","daoBalance()":"bd972816","getBalance()":"12065fe0","getProposal(uint256)":"c7f758a8","getProposals()":"62564c48","getProposerBalance()":"f86f19fd","getProposerVotes()":"a2b5098b","getRoleAdmin(bytes32)":"248a9ca3","getStakeholderBalance()":"6a80d84d","getVotesOf(uint256)":"69a136dc","grantRole(bytes32,address)":"2f2ff15d","hasRole(bytes32,address)":"91d14854","isProposer()":"2a146524","isStakeholder()":"c02146ac","payBeneficiary(uint256)":"119c37c8","renounceRole(bytes32,address)":"36568abe","revokeRole(bytes32,address)":"d547741f","supportsInterface(bytes4)":"01ffc9a7"}}}}}