{
  "_format": "hh-sol-artifact-1",
  "contractName": "DAO",
  "sourceName": "contracts/DAO.sol",
  "abi": [
    {
      "anonymous": false,
      "inputs": [
        {
          "indexed": true,
          "internalType": "address",
          "name": "initiator",
          "type": "address"
        },
        {
          "indexed": false,
          "internalType": "bytes32",
          "name": "role",
          "type": "bytes32"
        },
        {
          "indexed": false,
          "internalType": "string",
          "name": "message",
          "type": "string"
        },
        {
          "indexed": true,
          "internalType": "address",
          "name": "beneficiary",
          "type": "address"
        },
        {
          "indexed": false,
          "internalType": "uint256",
          "name": "amount",
          "type": "uint256"
        }
      ],
      "name": "Action",
      "type": "event"
    },
    {
      "anonymous": false,
      "inputs": [
        {
          "indexed": true,
          "internalType": "bytes32",
          "name": "role",
          "type": "bytes32"
        },
        {
          "indexed": true,
          "internalType": "bytes32",
          "name": "previousAdminRole",
          "type": "bytes32"
        },
        {
          "indexed": true,
          "internalType": "bytes32",
          "name": "newAdminRole",
          "type": "bytes32"
        }
      ],
      "name": "RoleAdminChanged",
      "type": "event"
    },
    {
      "anonymous": false,
      "inputs": [
        {
          "indexed": true,
          "internalType": "bytes32",
          "name": "role",
          "type": "bytes32"
        },
        {
          "indexed": true,
          "internalType": "address",
          "name": "account",
          "type": "address"
        },
        {
          "indexed": true,
          "internalType": "address",
          "name": "sender",
          "type": "address"
        }
      ],
      "name": "RoleGranted",
      "type": "event"
    },
    {
      "anonymous": false,
      "inputs": [
        {
          "indexed": true,
          "internalType": "bytes32",
          "name": "role",
          "type": "bytes32"
        },
        {
          "indexed": true,
          "internalType": "address",
          "name": "account",
          "type": "address"
        },
        {
          "indexed": true,
          "internalType": "address",
          "name": "sender",
          "type": "address"
        }
      ],
      "name": "RoleRevoked",
      "type": "event"
    },
    {
      "inputs": [],
      "name": "DEFAULT_ADMIN_ROLE",
      "outputs": [
        {
          "internalType": "bytes32",
          "name": "",
          "type": "bytes32"
        }
      ],
      "stateMutability": "view",
      "type": "function"
    },
    {
      "inputs": [
        {
          "internalType": "uint256",
          "name": "proposalId",
          "type": "uint256"
        },
        {
          "internalType": "bool",
          "name": "chosen",
          "type": "bool"
        }
      ],
      "name": "Vote",
      "outputs": [
        {
          "components": [
            {
              "internalType": "address",
              "name": "voter",
              "type": "address"
            },
            {
              "internalType": "uint256",
              "name": "timestamp",
              "type": "uint256"
            },
            {
              "internalType": "bool",
              "name": "chosen",
              "type": "bool"
            }
          ],
          "internalType": "struct DAO.VotedStruct",
          "name": "",
          "type": "tuple"
        }
      ],
      "stateMutability": "nonpayable",
      "type": "function"
    },
    {
      "inputs": [],
      "name": "contribute",
      "outputs": [],
      "stateMutability": "payable",
      "type": "function"
    },
    {
      "inputs": [
        {
          "internalType": "string",
          "name": "title",
          "type": "string"
        },
        {
          "internalType": "string",
          "name": "description",
          "type": "string"
        },
        {
          "internalType": "address",
          "name": "beneficiary",
          "type": "address"
        },
        {
          "internalType": "uint256",
          "name": "amount",
          "type": "uint256"
        }
      ],
      "name": "createProposal",
      "outputs": [],
      "stateMutability": "nonpayable",
      "type": "function"
    },
    {
      "inputs": [],
      "name": "daoBalance",
      "outputs": [
        {
          "internalType": "uint256",
          "name": "",
          "type": "uint256"
        }
      ],
      "stateMutability": "view",
      "type": "function"
    },
    {
      "inputs": [],
      "name": "getBalance",
      "outputs": [
        {
          "internalType": "uint256",
          "name": "",
          "type": "uint256"
        }
      ],
      "stateMutability": "view",
      "type": "function"
    },
    {
      "inputs": [
        {
          "internalType": "uint256",
          "name": "proposalId",
          "type": "uint256"
        }
      ],
      "name": "getProposal",
      "outputs": [
        {
          "components": [
            {
              "internalType": "uint256",
              "name": "id",
              "type": "uint256"
            },
            {
              "internalType": "uint256",
              "name": "amount",
              "type": "uint256"
            },
            {
              "internalType": "uint256",
              "name": "duration",
              "type": "uint256"
            },
            {
              "internalType": "uint256",
              "name": "upvotes",
              "type": "uint256"
            },
            {
              "internalType": "uint256",
              "name": "downvotes",
              "type": "uint256"
            },
            {
              "internalType": "string",
              "name": "title",
              "type": "string"
            },
            {
              "internalType": "string",
              "name": "description",
              "type": "string"
            },
            {
              "internalType": "bool",
              "name": "passed",
              "type": "bool"
            },
            {
              "internalType": "bool",
              "name": "paid",
              "type": "bool"
            },
            {
              "internalType": "address payable",
              "name": "beneficiary",
              "type": "address"
            },
            {
              "internalType": "address",
              "name": "originator",
              "type": "address"
            },
            {
              "internalType": "address",
              "name": "executor",
              "type": "address"
            }
          ],
          "internalType": "struct DAO.ProposalStruct",
          "name": "",
          "type": "tuple"
        }
      ],
      "stateMutability": "view",
      "type": "function"
    },
    {
      "inputs": [],
      "name": "getProposals",
      "outputs": [
        {
          "components": [
            {
              "internalType": "uint256",
              "name": "id",
              "type": "uint256"
            },
            {
              "internalType": "uint256",
              "name": "amount",
              "type": "uint256"
            },
            {
              "internalType": "uint256",
              "name": "duration",
              "type": "uint256"
            },
            {
              "internalType": "uint256",
              "name": "upvotes",
              "type": "uint256"
            },
            {
              "internalType": "uint256",
              "name": "downvotes",
              "type": "uint256"
            },
            {
              "internalType": "string",
              "name": "title",
              "type": "string"
            },
            {
              "internalType": "string",
              "name": "description",
              "type": "string"
            },
            {
              "internalType": "bool",
              "name": "passed",
              "type": "bool"
            },
            {
              "internalType": "bool",
              "name": "paid",
              "type": "bool"
            },
            {
              "internalType": "address payable",
              "name": "beneficiary",
              "type": "address"
            },
            {
              "internalType": "address",
              "name": "originator",
              "type": "address"
            },
            {
              "internalType": "address",
              "name": "executor",
              "type": "address"
            }
          ],
          "internalType": "struct DAO.ProposalStruct[]",
          "name": "props",
          "type": "tuple[]"
        }
      ],
      "stateMutability": "view",
      "type": "function"
    },
    {
      "inputs": [],
      "name": "getProposerBalance",
      "outputs": [
        {
          "internalType": "uint256",
          "name": "",
          "type": "uint256"
        }
      ],
      "stateMutability": "view",
      "type": "function"
    },
    {
      "inputs": [],
      "name": "getProposerVotes",
      "outputs": [
        {
          "internalType": "uint256[]",
          "name": "",
          "type": "uint256[]"
        }
      ],
      "stateMutability": "view",
      "type": "function"
    },
    {
      "inputs": [
        {
          "internalType": "bytes32",
          "name": "role",
          "type": "bytes32"
        }
      ],
      "name": "getRoleAdmin",
      "outputs": [
        {
          "internalType": "bytes32",
          "name": "",
          "type": "bytes32"
        }
      ],
      "stateMutability": "view",
      "type": "function"
    },
    {
      "inputs": [],
      "name": "getStakeholderBalance",
      "outputs": [
        {
          "internalType": "uint256",
          "name": "",
          "type": "uint256"
        }
      ],
      "stateMutability": "view",
      "type": "function"
    },
    {
      "inputs": [
        {
          "internalType": "uint256",
          "name": "proposalId",
          "type": "uint256"
        }
      ],
      "name": "getVotesOf",
      "outputs": [
        {
          "components": [
            {
              "internalType": "address",
              "name": "voter",
              "type": "address"
            },
            {
              "internalType": "uint256",
              "name": "timestamp",
              "type": "uint256"
            },
            {
              "internalType": "bool",
              "name": "chosen",
              "type": "bool"
            }
          ],
          "internalType": "struct DAO.VotedStruct[]",
          "name": "",
          "type": "tuple[]"
        }
      ],
      "stateMutability": "view",
      "type": "function"
    },
    {
      "inputs": [
        {
          "internalType": "bytes32",
          "name": "role",
          "type": "bytes32"
        },
        {
          "internalType": "address",
          "name": "account",
          "type": "address"
        }
      ],
      "name": "grantRole",
      "outputs": [],
      "stateMutability": "nonpayable",
      "type": "function"
    },
    {
      "inputs": [
        {
          "internalType": "bytes32",
          "name": "role",
          "type": "bytes32"
        },
        {
          "internalType": "address",
          "name": "account",
          "type": "address"
        }
      ],
      "name": "hasRole",
      "outputs": [
        {
          "internalType": "bool",
          "name": "",
          "type": "bool"
        }
      ],
      "stateMutability": "view",
      "type": "function"
    },
    {
      "inputs": [],
      "name": "isProposer",
      "outputs": [
        {
          "internalType": "bool",
          "name": "",
          "type": "bool"
        }
      ],
      "stateMutability": "view",
      "type": "function"
    },
    {
      "inputs": [],
      "name": "isStakeholder",
      "outputs": [
        {
          "internalType": "bool",
          "name": "",
          "type": "bool"
        }
      ],
      "stateMutability": "view",
      "type": "function"
    },
    {
      "inputs": [
        {
          "internalType": "uint256",
          "name": "proposalId",
          "type": "uint256"
        }
      ],
      "name": "payBeneficiary",
      "outputs": [
        {
          "internalType": "uint256",
          "name": "",
          "type": "uint256"
        }
      ],
      "stateMutability": "nonpayable",
      "type": "function"
    },
    {
      "inputs": [
        {
          "internalType": "bytes32",
          "name": "role",
          "type": "bytes32"
        },
        {
          "internalType": "address",
          "name": "account",
          "type": "address"
        }
      ],
      "name": "renounceRole",
      "outputs": [],
      "stateMutability": "nonpayable",
      "type": "function"
    },
    {
      "inputs": [
        {
          "internalType": "bytes32",
          "name": "role",
          "type": "bytes32"
        },
        {
          "internalType": "address",
          "name": "account",
          "type": "address"
        }
      ],
      "name": "revokeRole",
      "outputs": [],
      "stateMutability": "nonpayable",
      "type": "function"
    },
    {
      "inputs": [
        {
          "internalType": "bytes4",
          "name": "interfaceId",
          "type": "bytes4"
        }
      ],
      "name": "supportsInterface",
      "outputs": [
        {
          "internalType": "bool",
          "name": "",
          "type": "bool"
        }
      ],
      "stateMutability": "view",
      "type": "function"
    }
  ],
  "bytecode": "0x6101006040527ff4bb84e1768dd286358a736d195a0b228621173f655a73b89bf8b191ed0ba07d6080908152507fc4338366b9cfc07901c46677a3a32746bd05d5c114e4d0d293c468cff87acde060a09081525068022b1c8c1227a0000060c09081525061025863ffffffff1660e09063ffffffff1681525034801561008457600080fd5b50600160008190555060805160a05160c05160e051613f0b61011360003960006110ca01526000611a550152600081816105c20152818161085301528181610f3d01528181611153015281816111b8015281816114450152818161156b015281816119db01528181611ac301528181611c860152611cfb015260008181610e710152611b440152613f0b6000f3fe60806040526004361061012a5760003560e01c80637cdc2eb7116100ab578063bd9728161161006f578063bd9728161461041a578063c02146ac14610445578063c7f758a814610470578063d547741f146104ad578063d7bb99ba146104d6578063f86f19fd146104e05761012a565b80637cdc2eb7146103215780638bfa1f401461034a57806391d1485414610387578063a217fddf146103c4578063a2b5098b146103ef5761012a565b80632f2ff15d116100f25780632f2ff15d1461023c57806336568abe1461026557806362564c481461028e57806369a136dc146102b95780636a80d84d146102f65761012a565b806301ffc9a71461012f578063119c37c81461016c57806312065fe0146101a9578063248a9ca3146101d45780632a14652414610211575b600080fd5b34801561013b57600080fd5b50610156600480360381019061015191906126ca565b61050b565b6040516101639190612712565b60405180910390f35b34801561017857600080fd5b50610193600480360381019061018e9190612763565b610585565b6040516101a0919061279f565b60405180910390f35b3480156101b557600080fd5b506101be6108a1565b6040516101cb919061279f565b60405180910390f35b3480156101e057600080fd5b506101fb60048036038101906101f691906127f0565b6108e8565b604051610208919061282c565b60405180910390f35b34801561021d57600080fd5b50610226610908565b6040516102339190612712565b60405180910390f35b34801561024857600080fd5b50610263600480360381019061025e91906128a5565b610951565b005b34801561027157600080fd5b5061028c600480360381019061028791906128a5565b610972565b005b34801561029a57600080fd5b506102a36109f5565b6040516102b09190612b90565b60405180910390f35b3480156102c557600080fd5b506102e060048036038101906102db9190612763565b610d64565b6040516102ed9190612ca3565b60405180910390f35b34801561030257600080fd5b5061030b610e51565b604051610318919061279f565b60405180910390f35b34801561032d57600080fd5b5061034860048036038101906103439190612dfa565b610f1f565b005b34801561035657600080fd5b50610371600480360381019061036c9190612ec5565b611192565b60405161037e9190612f47565b60405180910390f35b34801561039357600080fd5b506103ae60048036038101906103a991906128a5565b6114bc565b6040516103bb9190612712565b60405180910390f35b3480156103d057600080fd5b506103d9611527565b6040516103e6919061282c565b60405180910390f35b3480156103fb57600080fd5b5061040461152e565b6040516104119190613011565b60405180910390f35b34801561042657600080fd5b5061042f611667565b60405161043c919061279f565b60405180910390f35b34801561045157600080fd5b5061045a61166d565b6040516104679190612712565b60405180910390f35b34801561047c57600080fd5b5061049760048036038101906104929190612763565b6116b6565b6040516104a4919061313e565b60405180910390f35b3480156104b957600080fd5b506104d460048036038101906104cf91906128a5565b611972565b005b6104de611993565b005b3480156104ec57600080fd5b506104f5611cbe565b604051610502919061279f565b60405180910390f35b60007f7965db0b000000000000000000000000000000000000000000000000000000007bffffffffffffffffffffffffffffffffffffffffffffffffffffffff1916827bffffffffffffffffffffffffffffffffffffffffffffffffffffffff1916148061057e575061057d82611da9565b5b9050919050565b60006040518060400160405280601c81526020017f556e617574686f72697a65643a2050726f706f73657273206f6e6c79000000008152506105e77f0000000000000000000000000000000000000000000000000000000000000000336114bc565b8190610629576040517f08c379a000000000000000000000000000000000000000000000000000000000815260040161062091906131aa565b60405180910390fd5b50610632611e13565b600060046000858152602001908152602001600020905080600101546003541015610692576040517f08c379a000000000000000000000000000000000000000000000000000000000815260040161068990613218565b60405180910390fd5b8060070160019054906101000a900460ff16156106e4576040517f08c379a00000000000000000000000000000000000000000000000000000000081526004016106db90613284565b60405180910390fd5b806004015481600301541161072e576040517f08c379a0000000000000000000000000000000000000000000000000000000008152600401610725906132f0565b60405180910390fd5b60018160070160016101000a81548160ff021916908315150217905550338160090160006101000a81548173ffffffffffffffffffffffffffffffffffffffff021916908373ffffffffffffffffffffffffffffffffffffffff1602179055508060010154600360008282546107a4919061333f565b925050819055506107dd8160070160029054906101000a900473ffffffffffffffffffffffffffffffffffffffff168260010154611e62565b508060070160029054906101000a900473ffffffffffffffffffffffffffffffffffffffff1673ffffffffffffffffffffffffffffffffffffffff163373ffffffffffffffffffffffffffffffffffffffff167fa596782d699d74613fcbf59d33e720baabd313d6be9c95e2268f305430305eb77f000000000000000000000000000000000000000000000000000000000000000084600101546040516108859291906133bf565b60405180910390a360035492505061089b611f1a565b50919050565b6000600760003373ffffffffffffffffffffffffffffffffffffffff1673ffffffffffffffffffffffffffffffffffffffff16815260200190815260200160002054905090565b600060016000838152602001908152602001600020600101549050919050565b600080600860003373ffffffffffffffffffffffffffffffffffffffff1673ffffffffffffffffffffffffffffffffffffffff1681526020019081526020016000205411905090565b61095a826108e8565b61096381611f24565b61096d8383611f38565b505050565b61097a612018565b73ffffffffffffffffffffffffffffffffffffffff168173ffffffffffffffffffffffffffffffffffffffff16146109e7576040517f08c379a00000000000000000000000000000000000000000000000000000000081526004016109de9061346d565b60405180910390fd5b6109f18282612020565b5050565b6060600260009054906101000a900463ffffffff1663ffffffff1667ffffffffffffffff811115610a2957610a28612ccf565b5b604051908082528060200260200182016040528015610a6257816020015b610a4f61257e565b815260200190600190039081610a475790505b50905060005b600260009054906101000a900463ffffffff1663ffffffff16811015610d605760046000828152602001908152602001600020604051806101800160405290816000820154815260200160018201548152602001600282015481526020016003820154815260200160048201548152602001600582018054610ae9906134bc565b80601f0160208091040260200160405190810160405280929190818152602001828054610b15906134bc565b8015610b625780601f10610b3757610100808354040283529160200191610b62565b820191906000526020600020905b815481529060010190602001808311610b4557829003601f168201915b50505050508152602001600682018054610b7b906134bc565b80601f0160208091040260200160405190810160405280929190818152602001828054610ba7906134bc565b8015610bf45780601f10610bc957610100808354040283529160200191610bf4565b820191906000526020600020905b815481529060010190602001808311610bd757829003601f168201915b505050505081526020016007820160009054906101000a900460ff161515151581526020016007820160019054906101000a900460ff161515151581526020016007820160029054906101000a900473ffffffffffffffffffffffffffffffffffffffff1673ffffffffffffffffffffffffffffffffffffffff1673ffffffffffffffffffffffffffffffffffffffff1681526020016008820160009054906101000a900473ffffffffffffffffffffffffffffffffffffffff1673ffffffffffffffffffffffffffffffffffffffff1673ffffffffffffffffffffffffffffffffffffffff1681526020016009820160009054906101000a900473ffffffffffffffffffffffffffffffffffffffff1673ffffffffffffffffffffffffffffffffffffffff1673ffffffffffffffffffffffffffffffffffffffff1681525050828281518110610d4857610d476134ed565b5b60200260200101819052508080600101915050610a68565b5090565b606060066000838152602001908152602001600020805480602002602001604051908101604052809291908181526020016000905b82821015610e4657838290600052602060002090600302016040518060600160405290816000820160009054906101000a900473ffffffffffffffffffffffffffffffffffffffff1673ffffffffffffffffffffffffffffffffffffffff1673ffffffffffffffffffffffffffffffffffffffff168152602001600182015481526020016002820160009054906101000a900460ff16151515158152505081526020019060010190610d99565b505050509050919050565b6000604051806060016040528060218152602001613e8860219139610e967f0000000000000000000000000000000000000000000000000000000000000000336114bc565b8190610ed8576040517f08c379a0000000000000000000000000000000000000000000000000000000008152600401610ecf91906131aa565b60405180910390fd5b50600760003373ffffffffffffffffffffffffffffffffffffffff1673ffffffffffffffffffffffffffffffffffffffff1681526020019081526020016000205491505090565b604051806060016040528060308152602001613e5860309139610f627f0000000000000000000000000000000000000000000000000000000000000000336114bc565b8190610fa4576040517f08c379a0000000000000000000000000000000000000000000000000000000008152600401610f9b91906131aa565b60405180910390fd5b5060006002600081819054906101000a900463ffffffff1680929190610fc99061352c565b91906101000a81548163ffffffff021916908363ffffffff16021790555090506000600460008363ffffffff16815260200190815260200160002090508163ffffffff168160000181905550338160080160006101000a81548173ffffffffffffffffffffffffffffffffffffffff021916908373ffffffffffffffffffffffffffffffffffffffff160217905550868160050190816110699190613704565b508581600601908161107b9190613704565b50848160070160026101000a81548173ffffffffffffffffffffffffffffffffffffffff021916908373ffffffffffffffffffffffffffffffffffffffff1602179055508381600101819055507f000000000000000000000000000000000000000000000000000000000000000063ffffffff16426110fa91906137d6565b81600201819055508473ffffffffffffffffffffffffffffffffffffffff163373ffffffffffffffffffffffffffffffffffffffff167fa596782d699d74613fcbf59d33e720baabd313d6be9c95e2268f305430305eb77f000000000000000000000000000000000000000000000000000000000000000087604051611181929190613856565b60405180910390a350505050505050565b61119a612625565b6040518060600160405280602d8152602001613ea9602d91396111dd7f0000000000000000000000000000000000000000000000000000000000000000336114bc565b819061121f576040517f08c379a000000000000000000000000000000000000000000000000000000000815260040161121691906131aa565b60405180910390fd5b50600060046000868152602001908152602001600020905061124081612102565b83156112655780600301600081548092919061125b90613892565b9190505550611280565b80600401600081548092919061127a90613892565b91905055505b600560003373ffffffffffffffffffffffffffffffffffffffff1673ffffffffffffffffffffffffffffffffffffffff16815260200190815260200160002081600001549080600181540180825580915050600190039060005260206000200160009091909190915055600660008260000154815260200190815260200160002060405180606001604052803373ffffffffffffffffffffffffffffffffffffffff168152602001428152602001861515815250908060018154018082558091505060019003906000526020600020906003020160009091909190915060008201518160000160006101000a81548173ffffffffffffffffffffffffffffffffffffffff021916908373ffffffffffffffffffffffffffffffffffffffff1602179055506020820151816001015560408201518160020160006101000a81548160ff02191690831515021790555050508060070160029054906101000a900473ffffffffffffffffffffffffffffffffffffffff1673ffffffffffffffffffffffffffffffffffffffff163373ffffffffffffffffffffffffffffffffffffffff167fa596782d699d74613fcbf59d33e720baabd313d6be9c95e2268f305430305eb77f00000000000000000000000000000000000000000000000000000000000000008460010154604051611477929190613926565b60405180910390a360405180606001604052803373ffffffffffffffffffffffffffffffffffffffff1681526020014281526020018515158152509250505092915050565b60006001600084815260200190815260200160002060000160008373ffffffffffffffffffffffffffffffffffffffff1673ffffffffffffffffffffffffffffffffffffffff16815260200190815260200160002060009054906101000a900460ff16905092915050565b6000801b81565b60606040518060400160405280601c81526020017f556e617574686f72697a65643a206e6f7420612070726f706f736572000000008152506115907f0000000000000000000000000000000000000000000000000000000000000000336114bc565b81906115d2576040517f08c379a00000000000000000000000000000000000000000000000000000000081526004016115c991906131aa565b60405180910390fd5b50600560003373ffffffffffffffffffffffffffffffffffffffff1673ffffffffffffffffffffffffffffffffffffffff16815260200190815260200160002080548060200260200160405190810160405280929190818152602001828054801561165c57602002820191906000526020600020905b815481526020019060010190808311611648575b505050505091505090565b60035481565b600080600760003373ffffffffffffffffffffffffffffffffffffffff1673ffffffffffffffffffffffffffffffffffffffff1681526020019081526020016000205411905090565b6116be61257e565b6004600083815260200190815260200160002060405180610180016040529081600082015481526020016001820154815260200160028201548152602001600382015481526020016004820154815260200160058201805461171f906134bc565b80601f016020809104026020016040519081016040528092919081815260200182805461174b906134bc565b80156117985780601f1061176d57610100808354040283529160200191611798565b820191906000526020600020905b81548152906001019060200180831161177b57829003601f168201915b505050505081526020016006820180546117b1906134bc565b80601f01602080910402602001604051908101604052809291908181526020018280546117dd906134bc565b801561182a5780601f106117ff5761010080835404028352916020019161182a565b820191906000526020600020905b81548152906001019060200180831161180d57829003601f168201915b505050505081526020016007820160009054906101000a900460ff161515151581526020016007820160019054906101000a900460ff161515151581526020016007820160029054906101000a900473ffffffffffffffffffffffffffffffffffffffff1673ffffffffffffffffffffffffffffffffffffffff1673ffffffffffffffffffffffffffffffffffffffff1681526020016008820160009054906101000a900473ffffffffffffffffffffffffffffffffffffffff1673ffffffffffffffffffffffffffffffffffffffff1673ffffffffffffffffffffffffffffffffffffffff1681526020016009820160009054906101000a900473ffffffffffffffffffffffffffffffffffffffff1673ffffffffffffffffffffffffffffffffffffffff1673ffffffffffffffffffffffffffffffffffffffff16815250509050919050565b61197b826108e8565b61198481611f24565b61198e8383612020565b505050565b600034116119d6576040517f08c379a00000000000000000000000000000000000000000000000000000000081526004016119cd906139d4565b60405180910390fd5b611a007f0000000000000000000000000000000000000000000000000000000000000000336114bc565b611b6f57600034600760003373ffffffffffffffffffffffffffffffffffffffff1673ffffffffffffffffffffffffffffffffffffffff16815260200190815260200160002054611a5191906137d6565b90507f00000000000000000000000000000000000000000000000000000000000000008110611ae95780600860003373ffffffffffffffffffffffffffffffffffffffff1673ffffffffffffffffffffffffffffffffffffffff16815260200190815260200160002081905550611ae87f000000000000000000000000000000000000000000000000000000000000000033611f38565b5b34600760003373ffffffffffffffffffffffffffffffffffffffff1673ffffffffffffffffffffffffffffffffffffffff1681526020019081526020016000206000828254611b3891906137d6565b92505081905550611b697f000000000000000000000000000000000000000000000000000000000000000033611f38565b50611c1c565b34600760003373ffffffffffffffffffffffffffffffffffffffff1673ffffffffffffffffffffffffffffffffffffffff1681526020019081526020016000206000828254611bbe91906137d6565b9250508190555034600860003373ffffffffffffffffffffffffffffffffffffffff1673ffffffffffffffffffffffffffffffffffffffff1681526020019081526020016000206000828254611c1491906137d6565b925050819055505b3460036000828254611c2e91906137d6565b925050819055503073ffffffffffffffffffffffffffffffffffffffff163373ffffffffffffffffffffffffffffffffffffffff167fa596782d699d74613fcbf59d33e720baabd313d6be9c95e2268f305430305eb77f000000000000000000000000000000000000000000000000000000000000000034604051611cb4929190613a40565b60405180910390a3565b60006040518060400160405280601c81526020017f556e617574686f72697a65643a206e6f7420612070726f706f73657200000000815250611d207f0000000000000000000000000000000000000000000000000000000000000000336114bc565b8190611d62576040517f08c379a0000000000000000000000000000000000000000000000000000000008152600401611d5991906131aa565b60405180910390fd5b50600860003373ffffffffffffffffffffffffffffffffffffffff1673ffffffffffffffffffffffffffffffffffffffff1681526020019081526020016000205491505090565b60007f01ffc9a7000000000000000000000000000000000000000000000000000000007bffffffffffffffffffffffffffffffffffffffffffffffffffffffff1916827bffffffffffffffffffffffffffffffffffffffffffffffffffffffff1916149050919050565b600260005403611e58576040517f08c379a0000000000000000000000000000000000000000000000000000000008152600401611e4f90613ac8565b60405180910390fd5b6002600081905550565b6000808373ffffffffffffffffffffffffffffffffffffffff1683604051611e8990613b19565b60006040518083038185875af1925050503d8060008114611ec6576040519150601f19603f3d011682016040523d82523d6000602084013e611ecb565b606091505b5050905080611f0f576040517f08c379a0000000000000000000000000000000000000000000000000000000008152600401611f0690613b7a565b60405180910390fd5b600191505092915050565b6001600081905550565b611f3581611f30612018565b612290565b50565b611f4282826114bc565b61201457600180600084815260200190815260200160002060000160008373ffffffffffffffffffffffffffffffffffffffff1673ffffffffffffffffffffffffffffffffffffffff16815260200190815260200160002060006101000a81548160ff021916908315150217905550611fb9612018565b73ffffffffffffffffffffffffffffffffffffffff168173ffffffffffffffffffffffffffffffffffffffff16837f2f8788117e7eff1d82e926ec794901d17c78024a50270940304540a733656f0d60405160405180910390a45b5050565b600033905090565b61202a82826114bc565b156120fe5760006001600084815260200190815260200160002060000160008373ffffffffffffffffffffffffffffffffffffffff1673ffffffffffffffffffffffffffffffffffffffff16815260200190815260200160002060006101000a81548160ff0219169083151502179055506120a3612018565b73ffffffffffffffffffffffffffffffffffffffff168173ffffffffffffffffffffffffffffffffffffffff16837ff6391f5c32d9c69d2a47ea670b442974b53935d1edc7fd64eb21e047a839171b60405160405180910390a45b5050565b8060070160009054906101000a900460ff1680612123575042816002015411155b156121805760018160070160006101000a81548160ff0219169083151502179055506040517f08c379a000000000000000000000000000000000000000000000000000000000815260040161217790613be6565b60405180910390fd5b6000600560003373ffffffffffffffffffffffffffffffffffffffff1673ffffffffffffffffffffffffffffffffffffffff16815260200190815260200160002080548060200260200160405190810160405280929190818152602001828054801561220b57602002820191906000526020600020905b8154815260200190600101908083116121f7575b5050505050905060005b815181101561228b57818181518110612231576122306134ed565b5b602002602001015183600001540361227e576040517f08c379a000000000000000000000000000000000000000000000000000000000815260040161227590613c52565b60405180910390fd5b8080600101915050612215565b505050565b61229a82826114bc565b612311576122a781612315565b6122b58360001c6020612342565b6040516020016122c6929190613d46565b6040516020818303038152906040526040517f08c379a000000000000000000000000000000000000000000000000000000000815260040161230891906131aa565b60405180910390fd5b5050565b606061233b8273ffffffffffffffffffffffffffffffffffffffff16601460ff16612342565b9050919050565b6060600060028360026123559190613d80565b61235f91906137d6565b67ffffffffffffffff81111561237857612377612ccf565b5b6040519080825280601f01601f1916602001820160405280156123aa5781602001600182028036833780820191505090505b5090507f3000000000000000000000000000000000000000000000000000000000000000816000815181106123e2576123e16134ed565b5b60200101907effffffffffffffffffffffffffffffffffffffffffffffffffffffffffffff1916908160001a9053507f780000000000000000000000000000000000000000000000000000000000000081600181518110612446576124456134ed565b5b60200101907effffffffffffffffffffffffffffffffffffffffffffffffffffffffffffff1916908160001a905350600060018460026124869190613d80565b61249091906137d6565b90505b6001811115612530577f3031323334353637383961626364656600000000000000000000000000000000600f8616601081106124d2576124d16134ed565b5b1a60f81b8282815181106124e9576124e86134ed565b5b60200101907effffffffffffffffffffffffffffffffffffffffffffffffffffffffffffff1916908160001a905350600485901c94508061252990613dc2565b9050612493565b5060008414612574576040517f08c379a000000000000000000000000000000000000000000000000000000000815260040161256b90613e37565b60405180910390fd5b8091505092915050565b60405180610180016040528060008152602001600081526020016000815260200160008152602001600081526020016060815260200160608152602001600015158152602001600015158152602001600073ffffffffffffffffffffffffffffffffffffffff168152602001600073ffffffffffffffffffffffffffffffffffffffff168152602001600073ffffffffffffffffffffffffffffffffffffffff1681525090565b6040518060600160405280600073ffffffffffffffffffffffffffffffffffffffff168152602001600081526020016000151581525090565b6000604051905090565b600080fd5b600080fd5b60007fffffffff0000000000000000000000000000000000000000000000000000000082169050919050565b6126a781612672565b81146126b257600080fd5b50565b6000813590506126c48161269e565b92915050565b6000602082840312156126e0576126df612668565b5b60006126ee848285016126b5565b91505092915050565b60008115159050919050565b61270c816126f7565b82525050565b60006020820190506127276000830184612703565b92915050565b6000819050919050565b6127408161272d565b811461274b57600080fd5b50565b60008135905061275d81612737565b92915050565b60006020828403121561277957612778612668565b5b60006127878482850161274e565b91505092915050565b6127998161272d565b82525050565b60006020820190506127b46000830184612790565b92915050565b6000819050919050565b6127cd816127ba565b81146127d857600080fd5b50565b6000813590506127ea816127c4565b92915050565b60006020828403121561280657612805612668565b5b6000612814848285016127db565b91505092915050565b612826816127ba565b82525050565b6000602082019050612841600083018461281d565b92915050565b600073ffffffffffffffffffffffffffffffffffffffff82169050919050565b600061287282612847565b9050919050565b61288281612867565b811461288d57600080fd5b50565b60008135905061289f81612879565b92915050565b600080604083850312156128bc576128bb612668565b5b60006128ca858286016127db565b92505060206128db85828601612890565b9150509250929050565b600081519050919050565b600082825260208201905092915050565b6000819050602082019050919050565b61291a8161272d565b82525050565b600081519050919050565b600082825260208201905092915050565b60005b8381101561295a57808201518184015260208101905061293f565b60008484015250505050565b6000601f19601f8301169050919050565b600061298282612920565b61298c818561292b565b935061299c81856020860161293c565b6129a581612966565b840191505092915050565b6129b9816126f7565b82525050565b60006129ca82612847565b9050919050565b6129da816129bf565b82525050565b6129e981612867565b82525050565b600061018083016000830151612a086000860182612911565b506020830151612a1b6020860182612911565b506040830151612a2e6040860182612911565b506060830151612a416060860182612911565b506080830151612a546080860182612911565b5060a083015184820360a0860152612a6c8282612977565b91505060c083015184820360c0860152612a868282612977565b91505060e0830151612a9b60e08601826129b0565b50610100830151612ab06101008601826129b0565b50610120830151612ac56101208601826129d1565b50610140830151612ada6101408601826129e0565b50610160830151612aef6101608601826129e0565b508091505092915050565b6000612b0683836129ef565b905092915050565b6000602082019050919050565b6000612b26826128e5565b612b3081856128f0565b935083602082028501612b4285612901565b8060005b85811015612b7e5784840389528151612b5f8582612afa565b9450612b6a83612b0e565b925060208a01995050600181019050612b46565b50829750879550505050505092915050565b60006020820190508181036000830152612baa8184612b1b565b905092915050565b600081519050919050565b600082825260208201905092915050565b6000819050602082019050919050565b606082016000820151612bf460008501826129e0565b506020820151612c076020850182612911565b506040820151612c1a60408501826129b0565b50505050565b6000612c2c8383612bde565b60608301905092915050565b6000602082019050919050565b6000612c5082612bb2565b612c5a8185612bbd565b9350612c6583612bce565b8060005b83811015612c96578151612c7d8882612c20565b9750612c8883612c38565b925050600181019050612c69565b5085935050505092915050565b60006020820190508181036000830152612cbd8184612c45565b905092915050565b600080fd5b600080fd5b7f4e487b7100000000000000000000000000000000000000000000000000000000600052604160045260246000fd5b612d0782612966565b810181811067ffffffffffffffff82111715612d2657612d25612ccf565b5b80604052505050565b6000612d3961265e565b9050612d458282612cfe565b919050565b600067ffffffffffffffff821115612d6557612d64612ccf565b5b612d6e82612966565b9050602081019050919050565b82818337600083830152505050565b6000612d9d612d9884612d4a565b612d2f565b905082815260208101848484011115612db957612db8612cca565b5b612dc4848285612d7b565b509392505050565b600082601f830112612de157612de0612cc5565b5b8135612df1848260208601612d8a565b91505092915050565b60008060008060808587031215612e1457612e13612668565b5b600085013567ffffffffffffffff811115612e3257612e3161266d565b5b612e3e87828801612dcc565b945050602085013567ffffffffffffffff811115612e5f57612e5e61266d565b5b612e6b87828801612dcc565b9350506040612e7c87828801612890565b9250506060612e8d8782880161274e565b91505092959194509250565b612ea2816126f7565b8114612ead57600080fd5b50565b600081359050612ebf81612e99565b92915050565b60008060408385031215612edc57612edb612668565b5b6000612eea8582860161274e565b9250506020612efb85828601612eb0565b9150509250929050565b606082016000820151612f1b60008501826129e0565b506020820151612f2e6020850182612911565b506040820151612f4160408501826129b0565b50505050565b6000606082019050612f5c6000830184612f05565b92915050565b600081519050919050565b600082825260208201905092915050565b6000819050602082019050919050565b6000612f9a8383612911565b60208301905092915050565b6000602082019050919050565b6000612fbe82612f62565b612fc88185612f6d565b9350612fd383612f7e565b8060005b83811015613004578151612feb8882612f8e565b9750612ff683612fa6565b925050600181019050612fd7565b5085935050505092915050565b6000602082019050818103600083015261302b8184612fb3565b905092915050565b60006101808301600083015161304c6000860182612911565b50602083015161305f6020860182612911565b5060408301516130726040860182612911565b5060608301516130856060860182612911565b5060808301516130986080860182612911565b5060a083015184820360a08601526130b08282612977565b91505060c083015184820360c08601526130ca8282612977565b91505060e08301516130df60e08601826129b0565b506101008301516130f46101008601826129b0565b506101208301516131096101208601826129d1565b5061014083015161311e6101408601826129e0565b506101608301516131336101608601826129e0565b508091505092915050565b600060208201905081810360008301526131588184613033565b905092915050565b600082825260208201905092915050565b600061317c82612920565b6131868185613160565b935061319681856020860161293c565b61319f81612966565b840191505092915050565b600060208201905081810360008301526131c48184613171565b905092915050565b7f496e73756666696369656e742066756e64000000000000000000000000000000600082015250565b6000613202601183613160565b915061320d826131cc565b602082019050919050565b60006020820190508181036000830152613231816131f5565b9050919050565b7f5061796d656e742073656e74206265666f726500000000000000000000000000600082015250565b600061326e601383613160565b915061327982613238565b602082019050919050565b6000602082019050818103600083015261329d81613261565b9050919050565b7f496e73756666696369656e7420766f7465730000000000000000000000000000600082015250565b60006132da601283613160565b91506132e5826132a4565b602082019050919050565b60006020820190508181036000830152613309816132cd565b9050919050565b7f4e487b7100000000000000000000000000000000000000000000000000000000600052601160045260246000fd5b600061334a8261272d565b91506133558361272d565b925082820390508181111561336d5761336c613310565b5b92915050565b7f5041594d454e54205452414e5346455245440000000000000000000000000000600082015250565b60006133a9601283613160565b91506133b482613373565b602082019050919050565b60006060820190506133d4600083018561281d565b81810360208301526133e58161339c565b90506133f46040830184612790565b9392505050565b7f416363657373436f6e74726f6c3a2063616e206f6e6c792072656e6f756e636560008201527f20726f6c657320666f722073656c660000000000000000000000000000000000602082015250565b6000613457602f83613160565b9150613462826133fb565b604082019050919050565b600060208201905081810360008301526134868161344a565b9050919050565b7f4e487b7100000000000000000000000000000000000000000000000000000000600052602260045260246000fd5b600060028204905060018216806134d457607f821691505b6020821081036134e7576134e661348d565b5b50919050565b7f4e487b7100000000000000000000000000000000000000000000000000000000600052603260045260246000fd5b600063ffffffff82169050919050565b60006135378261351c565b915063ffffffff820361354d5761354c613310565b5b600182019050919050565b60008190508160005260206000209050919050565b60006020601f8301049050919050565b600082821b905092915050565b6000600883026135ba7fffffffffffffffffffffffffffffffffffffffffffffffffffffffffffffffff8261357d565b6135c4868361357d565b95508019841693508086168417925050509392505050565b6000819050919050565b60006136016135fc6135f78461272d565b6135dc565b61272d565b9050919050565b6000819050919050565b61361b836135e6565b61362f61362782613608565b84845461358a565b825550505050565b600090565b613644613637565b61364f818484613612565b505050565b5b818110156136735761366860008261363c565b600181019050613655565b5050565b601f8211156136b85761368981613558565b6136928461356d565b810160208510156136a1578190505b6136b56136ad8561356d565b830182613654565b50505b505050565b600082821c905092915050565b60006136db600019846008026136bd565b1980831691505092915050565b60006136f483836136ca565b9150826002028217905092915050565b61370d82612920565b67ffffffffffffffff81111561372657613725612ccf565b5b61373082546134bc565b61373b828285613677565b600060209050601f83116001811461376e576000841561375c578287015190505b61376685826136e8565b8655506137ce565b601f19841661377c86613558565b60005b828110156137a45784890151825560018201915060208501945060208101905061377f565b868310156137c157848901516137bd601f8916826136ca565b8355505b6001600288020188555050505b505050505050565b60006137e18261272d565b91506137ec8361272d565b925082820190508082111561380457613803613310565b5b92915050565b7f50524f504f53414c205241495345440000000000000000000000000000000000600082015250565b6000613840600f83613160565b915061384b8261380a565b602082019050919050565b600060608201905061386b600083018561281d565b818103602083015261387c81613833565b905061388b6040830184612790565b9392505050565b600061389d8261272d565b91507fffffffffffffffffffffffffffffffffffffffffffffffffffffffffffffffff82036138cf576138ce613310565b5b600182019050919050565b7f50524f504f53414c20564f544500000000000000000000000000000000000000600082015250565b6000613910600d83613160565b915061391b826138da565b602082019050919050565b600060608201905061393b600083018561281d565b818103602083015261394c81613903565b905061395b6040830184612790565b9392505050565b7f436f6e747269627574696e67207a65726f206973206e6f7420616c6c6f77656460008201527f2e00000000000000000000000000000000000000000000000000000000000000602082015250565b60006139be602183613160565b91506139c982613962565b604082019050919050565b600060208201905081810360008301526139ed816139b1565b9050919050565b7f434f4e545249425554494f4e2052454345495645440000000000000000000000600082015250565b6000613a2a601583613160565b9150613a35826139f4565b602082019050919050565b6000606082019050613a55600083018561281d565b8181036020830152613a6681613a1d565b9050613a756040830184612790565b9392505050565b7f5265656e7472616e637947756172643a207265656e7472616e742063616c6c00600082015250565b6000613ab2601f83613160565b9150613abd82613a7c565b602082019050919050565b60006020820190508181036000830152613ae181613aa5565b9050919050565b600081905092915050565b50565b6000613b03600083613ae8565b9150613b0e82613af3565b600082019050919050565b6000613b2482613af6565b9150819050919050565b7f5061796d656e74206661696c6564000000000000000000000000000000000000600082015250565b6000613b64600e83613160565b9150613b6f82613b2e565b602082019050919050565b60006020820190508181036000830152613b9381613b57565b9050919050565b7f70726f706f73616c206475726174696f6e206578706972656400000000000000600082015250565b6000613bd0601983613160565b9150613bdb82613b9a565b602082019050919050565b60006020820190508181036000830152613bff81613bc3565b9050919050565b7f446f75626c6520766f74696e67206e6f7420616c6c6f77656400000000000000600082015250565b6000613c3c601983613160565b9150613c4782613c06565b602082019050919050565b60006020820190508181036000830152613c6b81613c2f565b9050919050565b600081905092915050565b7f416363657373436f6e74726f6c3a206163636f756e7420000000000000000000600082015250565b6000613cb3601783613c72565b9150613cbe82613c7d565b601782019050919050565b6000613cd482612920565b613cde8185613c72565b9350613cee81856020860161293c565b80840191505092915050565b7f206973206d697373696e6720726f6c6520000000000000000000000000000000600082015250565b6000613d30601183613c72565b9150613d3b82613cfa565b601182019050919050565b6000613d5182613ca6565b9150613d5d8285613cc9565b9150613d6882613d23565b9150613d748284613cc9565b91508190509392505050565b6000613d8b8261272d565b9150613d968361272d565b9250828202613da48161272d565b91508282048414831517613dbb57613dba613310565b5b5092915050565b6000613dcd8261272d565b915060008203613de057613ddf613310565b5b600182039050919050565b7f537472696e67733a20686578206c656e67746820696e73756666696369656e74600082015250565b6000613e21602083613160565b9150613e2c82613deb565b602082019050919050565b60006020820190508181036000830152613e5081613e14565b905091905056fe70726f706f73616c206372656174696f6e20616c6c6f77656420666f72207468652070726f706f73657273206f6e6c7944656e6965643a2055736572206973206e6f742061207374616b65686f6c646572556e617574686f72697a6564206163636573733a2050726f706f73657273206f6e6c79207065726d6974746564a2646970667358221220caa5302889d8d34700e3009132dc70dcc2bd43a2215677a1983f6e79f28bdfcc64736f6c63430008160033",
  "linkReferences": {},
  "deployedLinkReferences": {}
}